{
  "contractName": "Dex",
  "abi": [
    {
      "anonymous": false,
      "inputs": [
        {
          "indexed": true,
          "internalType": "address",
          "name": "previousOwner",
          "type": "address"
        },
        {
          "indexed": true,
          "internalType": "address",
          "name": "newOwner",
          "type": "address"
        }
      ],
      "name": "OwnershipTransferred",
      "type": "event"
    },
    {
      "inputs": [
        {
          "internalType": "string",
          "name": "_id",
          "type": "string"
        },
        {
          "internalType": "bytes32",
          "name": "_name",
          "type": "bytes32"
        },
        {
          "internalType": "bytes32",
          "name": "_ticker",
          "type": "bytes32"
        },
        {
          "internalType": "address",
          "name": "_tokenAddress",
          "type": "address"
        }
      ],
      "name": "addToken",
      "outputs": [],
      "stateMutability": "nonpayable",
      "type": "function"
    },
    {
      "inputs": [
        {
          "internalType": "address",
          "name": "",
          "type": "address"
        },
        {
          "internalType": "bytes32",
          "name": "",
          "type": "bytes32"
        }
      ],
      "name": "balances",
      "outputs": [
        {
          "internalType": "uint256",
          "name": "",
          "type": "uint256"
        }
      ],
      "stateMutability": "view",
      "type": "function",
      "constant": true
    },
    {
      "inputs": [
        {
          "internalType": "uint256",
          "name": "_amount",
          "type": "uint256"
        },
        {
          "internalType": "bytes32",
          "name": "_ticker",
          "type": "bytes32"
        }
      ],
      "name": "deposit",
      "outputs": [],
      "stateMutability": "nonpayable",
      "type": "function"
    },
    {
      "inputs": [],
      "name": "depositEth",
      "outputs": [],
      "stateMutability": "payable",
      "type": "function",
      "payable": true
    },
    {
      "inputs": [],
      "name": "nextOrderId",
      "outputs": [
        {
          "internalType": "uint256",
          "name": "",
          "type": "uint256"
        }
      ],
      "stateMutability": "view",
      "type": "function",
      "constant": true
    },
    {
      "inputs": [
        {
          "internalType": "bytes32",
          "name": "",
          "type": "bytes32"
        },
        {
          "internalType": "uint256",
          "name": "",
          "type": "uint256"
        },
        {
          "internalType": "uint256",
          "name": "",
          "type": "uint256"
        }
      ],
      "name": "orderBook",
      "outputs": [
        {
          "internalType": "uint256",
          "name": "id",
          "type": "uint256"
        },
        {
          "internalType": "address",
          "name": "trader",
          "type": "address"
        },
        {
          "internalType": "enum Dex.OrderType",
          "name": "orderType",
          "type": "uint8"
        },
        {
          "internalType": "bytes32",
          "name": "symbol",
          "type": "bytes32"
        },
        {
          "internalType": "uint256",
          "name": "amount",
          "type": "uint256"
        },
        {
          "internalType": "uint256",
          "name": "price",
          "type": "uint256"
        },
        {
          "internalType": "uint256",
          "name": "filled",
          "type": "uint256"
        }
      ],
      "stateMutability": "view",
      "type": "function",
      "constant": true
    },
    {
      "inputs": [],
      "name": "owner",
      "outputs": [
        {
          "internalType": "address",
          "name": "",
          "type": "address"
        }
      ],
      "stateMutability": "view",
      "type": "function",
      "constant": true
    },
    {
      "inputs": [],
      "name": "renounceOwnership",
      "outputs": [],
      "stateMutability": "nonpayable",
      "type": "function"
    },
    {
      "inputs": [
        {
          "internalType": "uint256",
          "name": "",
          "type": "uint256"
        }
      ],
      "name": "tokenList",
      "outputs": [
        {
          "internalType": "bytes32",
          "name": "",
          "type": "bytes32"
        }
      ],
      "stateMutability": "view",
      "type": "function",
      "constant": true
    },
    {
      "inputs": [],
      "name": "tokenListCount",
      "outputs": [
        {
          "internalType": "uint256",
          "name": "",
          "type": "uint256"
        }
      ],
      "stateMutability": "view",
      "type": "function",
      "constant": true
    },
    {
      "inputs": [
        {
          "internalType": "bytes32",
          "name": "",
          "type": "bytes32"
        }
      ],
      "name": "tokens",
      "outputs": [
        {
          "internalType": "string",
          "name": "id",
          "type": "string"
        },
        {
          "internalType": "bytes32",
          "name": "name",
          "type": "bytes32"
        },
        {
          "internalType": "bytes32",
          "name": "ticker",
          "type": "bytes32"
        },
        {
          "internalType": "address",
          "name": "tokenAddress",
          "type": "address"
        }
      ],
      "stateMutability": "view",
      "type": "function",
      "constant": true
    },
    {
      "inputs": [
        {
          "internalType": "address",
          "name": "newOwner",
          "type": "address"
        }
      ],
      "name": "transferOwnership",
      "outputs": [],
      "stateMutability": "nonpayable",
      "type": "function"
    },
    {
      "inputs": [
        {
          "internalType": "uint256",
          "name": "_amount",
          "type": "uint256"
        },
        {
          "internalType": "bytes32",
          "name": "_ticker",
          "type": "bytes32"
        }
      ],
      "name": "withdraw",
      "outputs": [],
      "stateMutability": "nonpayable",
      "type": "function"
    },
    {
      "inputs": [
        {
          "internalType": "uint256",
          "name": "_amount",
          "type": "uint256"
        }
      ],
      "name": "withdrawEth",
      "outputs": [
        {
          "internalType": "bool",
          "name": "",
          "type": "bool"
        }
      ],
      "stateMutability": "payable",
      "type": "function",
      "payable": true
    },
    {
      "inputs": [
        {
          "internalType": "bytes32",
          "name": "_symbol",
          "type": "bytes32"
        },
        {
          "internalType": "enum Dex.OrderType",
          "name": "_orderType",
          "type": "uint8"
        }
      ],
      "name": "getOrderBook",
      "outputs": [
        {
          "components": [
            {
              "internalType": "uint256",
              "name": "id",
              "type": "uint256"
            },
            {
              "internalType": "address",
              "name": "trader",
              "type": "address"
            },
            {
              "internalType": "enum Dex.OrderType",
              "name": "orderType",
              "type": "uint8"
            },
            {
              "internalType": "bytes32",
              "name": "symbol",
              "type": "bytes32"
            },
            {
              "internalType": "uint256",
              "name": "amount",
              "type": "uint256"
            },
            {
              "internalType": "uint256",
              "name": "price",
              "type": "uint256"
            },
            {
              "internalType": "uint256",
              "name": "filled",
              "type": "uint256"
            }
          ],
          "internalType": "struct Dex.Order[]",
          "name": "",
          "type": "tuple[]"
        }
      ],
      "stateMutability": "view",
      "type": "function",
      "constant": true
    },
    {
      "inputs": [
        {
          "internalType": "uint256",
          "name": "_orderId",
          "type": "uint256"
        },
        {
          "internalType": "bytes32",
          "name": "_symbol",
          "type": "bytes32"
        },
        {
          "internalType": "enum Dex.OrderType",
          "name": "_orderType",
          "type": "uint8"
        }
      ],
      "name": "deleteOrder",
      "outputs": [
        {
          "internalType": "bool",
          "name": "success",
          "type": "bool"
        }
      ],
      "stateMutability": "nonpayable",
      "type": "function"
    },
    {
      "inputs": [
        {
          "internalType": "enum Dex.OrderType",
          "name": "_orderType",
          "type": "uint8"
        },
        {
          "internalType": "bytes32",
          "name": "_symbol",
          "type": "bytes32"
        },
        {
          "internalType": "uint256",
          "name": "_amount",
          "type": "uint256"
        },
        {
          "internalType": "uint256",
          "name": "_price",
          "type": "uint256"
        }
      ],
      "name": "createLimitOrder",
      "outputs": [],
      "stateMutability": "nonpayable",
      "type": "function"
    },
    {
      "inputs": [
        {
          "internalType": "enum Dex.OrderType",
          "name": "_orderType",
          "type": "uint8"
        },
        {
          "internalType": "bytes32",
          "name": "_symbol",
          "type": "bytes32"
        },
        {
          "internalType": "uint256",
          "name": "_amount",
          "type": "uint256"
        }
      ],
      "name": "createMarketOrder",
      "outputs": [],
      "stateMutability": "nonpayable",
      "type": "function"
    }
  ],
  "bytecode": "0x6080604052600060035560006005553480156200001b57600080fd5b50620000306200002a62000079565b6200007d565b60408051808201909152600c81526b6574682d657468657265756d60a01b6020820152620000739067457468657265756d60c01b6208aa8960eb1b6000620000cd565b62000354565b3390565b600080546001600160a01b038381166001600160a01b0319831681178455604051919092169283917f8be0079c531659141344cd1fd0a4f28419497f9722a3daafe3b4186f6b6457e09190a35050565b620000d7620001b4565b6040805160808101825285815260208082018690528183018590526001600160a01b038416606083015260008581526001825292909220815180519293919262000125928492019062000214565b5060208201516001828101919091556040830151600280840191909155606090930151600392830180546001600160a01b0319166001600160a01b039092169190911790558254908101835560009283527f405787fa12a823e0f2b7631cc41b3ba8828b3321ca811111fa75cd3aa3bb5ace01849055805491620001a9836200032c565b919050555050505050565b620001be62000079565b6001600160a01b0316620001d162000205565b6001600160a01b031614620002035760405162461bcd60e51b8152600401620001fa90620002ba565b60405180910390fd5b565b6000546001600160a01b031690565b8280546200022290620002ef565b90600052602060002090601f01602090048101928262000246576000855562000291565b82601f106200026157805160ff191683800117855562000291565b8280016001018555821562000291579182015b828111156200029157825182559160200191906001019062000274565b506200029f929150620002a3565b5090565b5b808211156200029f5760008155600101620002a4565b6020808252818101527f4f776e61626c653a2063616c6c6572206973206e6f7420746865206f776e6572604082015260600190565b6002810460018216806200030457607f821691505b602082108114156200032657634e487b7160e01b600052602260045260246000fd5b50919050565b60006000198214156200034d57634e487b7160e01b81526011600452602481fd5b5060010190565b6127df80620003646000396000f3fe6080604052600436106101095760003560e01c80639ead722211610095578063c311d04911610064578063c311d049146102bf578063c9630cb0146102df578063d15e2efe146102ff578063f2fde38b1461031f578063fae1cbce1461033f57610109565b80639ead72221461023d578063a43ad7e71461025d578063a8d2021a14610272578063ba58ea681461029257610109565b80636f3b62f9116100dc5780636f3b62f914610196578063715018a6146101b65780638da5cb5b146101cb578063904194a3146101ed57806399ec2f1c1461021d57610109565b80630bb431b61461010e5780631f14df691461014a5780632a58b33014610177578063439370b11461018c575b600080fd5b34801561011a57600080fd5b5061012e61012936600461222c565b61035f565b604051610141979695949392919061267b565b60405180910390f35b34801561015657600080fd5b5061016a6101653660046121a0565b6103d5565b60405161014191906124fb565b34801561018357600080fd5b5061016a6103f2565b6101946103f8565b005b3480156101a257600080fd5b506101946101b1366004612289565b610476565b3480156101c257600080fd5b50610194610dcc565b3480156101d757600080fd5b506101e0610de0565b604051610141919061240b565b3480156101f957600080fd5b5061020d6102083660046121e9565b610def565b6040516101419493929190612504565b34801561022957600080fd5b50610194610238366004612257565b610eaa565b34801561024957600080fd5b5061016a6102583660046121e9565b6118e3565b34801561026957600080fd5b5061016a611904565b34801561027e57600080fd5b5061019461028d366004612384565b61190a565b34801561029e57600080fd5b506102b26102ad366004612201565b611aa5565b604051610141919061245c565b6102d26102cd3660046121e9565b611bda565b60405161014191906124f0565b3480156102eb57600080fd5b506101946102fa366004612384565b611cf7565b34801561030b57600080fd5b506102d261031a3660046123a5565b611e4e565b34801561032b57600080fd5b5061019461033a366004612186565b611eee565b34801561034b57600080fd5b5061019461035a3660046122c1565b611f28565b6006602052826000526040600020602052816000526040600020818154811061038757600080fd5b60009182526020909120600690910201805460018201546002830154600384015460048501546005909501549397506001600160a01b0383169650600160a01b90920460ff16945092909187565b600460209081526000928352604080842090915290825290205481565b60055481565b61043b3460046000610408612009565b6001600160a01b03168152602080820192909252604090810160009081206208aa8960eb1b82529092529020549061200d565b60046000610447612009565b6001600160a01b03168152602080820192909252604090810160009081206208aa8960eb1b8252909252902055565b600084600181111561049857634e487b7160e01b600052602160045260246000fd5b14156104fc576104a88282612020565b600460006104b4612009565b6001600160a01b03166001600160a01b0316815260200190815260200160002060006208aa8960eb1b81526020019081526020016000205410156104f757600080fd5b61056e565b600184600181111561051e57634e487b7160e01b600052602160045260246000fd5b141561056e578160046000610531612009565b6001600160a01b03166001600160a01b03168152602001908152602001600020600085815260200190815260200160002054101561056e57600080fd5b60008381526006602052604081208186600181111561059d57634e487b7160e01b600052602160045260246000fd5b81526020019081526020016000209050806040518060e0016040528060055481526020016105c9612009565b6001600160a01b031681526020018760018111156105f757634e487b7160e01b600052602160045260246000fd5b81526020808201889052604080830188905260608301879052600060809093018390528454600180820187559584529282902084516006909402019283559083015182850180546001600160a01b0319166001600160a01b0390921691909117808255918401519394929392909160ff60a01b191690600160a01b90849081111561069257634e487b7160e01b600052602160045260246000fd5b0217905550606082015160028201556080820151600382015560a0820151600482015560c090910151600590910155805415610db45760008560018111156106ea57634e487b7160e01b600052602160045260246000fd5b1415610a40578054600090610701906001906126f9565b90505b8015610a3a5781818154811061072a57634e487b7160e01b600052603260045260246000fd5b9060005260206000209060060201600401548260018361074a91906126f9565b8154811061076857634e487b7160e01b600052603260045260246000fd5b9060005260206000209060060201600401541115610a285760008261078e6001846126f9565b815481106107ac57634e487b7160e01b600052603260045260246000fd5b60009182526020918290206040805160e081018252600693909302909101805483526001808201546001600160a01b038116958501959095529293909291840191600160a01b90910460ff169081111561081657634e487b7160e01b600052602160045260246000fd5b600181111561083557634e487b7160e01b600052602160045260246000fd5b8152602001600282015481526020016003820154815260200160048201548152602001600582015481525050905082828154811061088357634e487b7160e01b600052603260045260246000fd5b90600052602060002090600602018360018461089f91906126f9565b815481106108bd57634e487b7160e01b600052603260045260246000fd5b6000918252602090912082546006909202019081556001808301805482840180546001600160a01b0319166001600160a01b0390921691909117808255915460ff600160a01b918290041693919260ff60a01b191691849081111561093257634e487b7160e01b600052602160045260246000fd5b0217905550600282015481600201556003820154816003015560048201548160040155600582015481600501559050508083838154811061098357634e487b7160e01b600052603260045260246000fd5b600091825260209182902083516006929092020190815590820151600180830180546001600160a01b0319166001600160a01b03909316929092178083556040850151929160ff60a01b1990911690600160a01b9084908111156109f757634e487b7160e01b600052602160045260246000fd5b0217905550606082015160028201556080820151600382015560a0820151600482015560c090910151600590910155505b80610a3281612710565b915050610704565b50610db4565b6001856001811115610a6257634e487b7160e01b600052602160045260246000fd5b1415610db4578054600090610a79906001906126f9565b90505b8015610db257818181548110610aa257634e487b7160e01b600052603260045260246000fd5b90600052602060002090600602016004015482600183610ac291906126f9565b81548110610ae057634e487b7160e01b600052603260045260246000fd5b9060005260206000209060060201600401541015610da057600082610b066001846126f9565b81548110610b2457634e487b7160e01b600052603260045260246000fd5b60009182526020918290206040805160e081018252600693909302909101805483526001808201546001600160a01b038116958501959095529293909291840191600160a01b90910460ff1690811115610b8e57634e487b7160e01b600052602160045260246000fd5b6001811115610bad57634e487b7160e01b600052602160045260246000fd5b81526020016002820154815260200160038201548152602001600482015481526020016005820154815250509050828281548110610bfb57634e487b7160e01b600052603260045260246000fd5b906000526020600020906006020183600184610c1791906126f9565b81548110610c3557634e487b7160e01b600052603260045260246000fd5b6000918252602090912082546006909202019081556001808301805482840180546001600160a01b0319166001600160a01b0390921691909117808255915460ff600160a01b918290041693919260ff60a01b1916918490811115610caa57634e487b7160e01b600052602160045260246000fd5b02179055506002820154816002015560038201548160030155600482015481600401556005820154816005015590505080838381548110610cfb57634e487b7160e01b600052603260045260246000fd5b600091825260209182902083516006929092020190815590820151600180830180546001600160a01b0319166001600160a01b03909316929092178083556040850151929160ff60a01b1990911690600160a01b908490811115610d6f57634e487b7160e01b600052602160045260246000fd5b0217905550606082015160028201556080820151600382015560a0820151600482015560c090910151600590910155505b80610daa81612710565b915050610a7c565b505b600554610dc290600161200d565b6005555050505050565b610dd461202c565b610dde600061206b565b565b6000546001600160a01b031690565b600160205260009081526040902080548190610e0a90612727565b80601f0160208091040260200160405190810160405280929190818152602001828054610e3690612727565b8015610e835780601f10610e5857610100808354040283529160200191610e83565b820191906000526020600020905b815481529060010190602001808311610e6657829003601f168201915b5050505060018301546002840154600390940154929390929091506001600160a01b031684565b6001836001811115610ecc57634e487b7160e01b600052602160045260246000fd5b1415610f38578060046000610edf612009565b6001600160a01b03166001600160a01b031681526020019081526020016000206000848152602001908152602001600020541015610f385760405162461bcd60e51b8152600401610f2f906125bb565b60405180910390fd5b600080846001811115610f5b57634e487b7160e01b600052602160045260246000fd5b1415610f6957506001610f6d565b5060005b6000838152600660209081526040808320848452909152812090805b825481108015610f9857508482105b156116d5576000610fa986846120bb565b90506000611022858481548110610fd057634e487b7160e01b600052603260045260246000fd5b90600052602060002090600602016005015486858154811061100257634e487b7160e01b600052603260045260246000fd5b9060005260206000209060060201600301546120bb90919063ffffffff16565b9050600082821115611035575081611038565b50805b611042858261200d565b94506110888187868154811061106857634e487b7160e01b600052603260045260246000fd5b90600052602060002090600602016005015461200d90919063ffffffff16565b8685815481106110a857634e487b7160e01b600052603260045260246000fd5b90600052602060002090600602016005018190555060006111038786815481106110e257634e487b7160e01b600052603260045260246000fd5b9060005260206000209060060201600401548361202090919063ffffffff16565b905060008b600181111561112757634e487b7160e01b600052602160045260246000fd5b141561142557806004600061113a612009565b6001600160a01b03166001600160a01b0316815260200190815260200160002060006208aa8960eb1b815260200190815260200160002054101561117d57600080fd5b6111ba826004600061118d612009565b6001600160a01b03168152602080820192909252604090810160009081208f82529092529020549061200d565b600460006111c6612009565b6001600160a01b03166001600160a01b0316815260200190815260200160002060008c81526020019081526020016000208190555061123e816004600061120b612009565b6001600160a01b03168152602080820192909252604090810160009081206208aa8960eb1b8252909252902054906120bb565b6004600061124a612009565b6001600160a01b03166001600160a01b0316815260200190815260200160002060006208aa8960eb1b8152602001908152602001600020819055506112ec82600460008a89815481106112ad57634e487b7160e01b600052603260045260246000fd5b60009182526020808320600160069093020191909101546001600160a01b0316835282810193909352604091820181208f8252909252902054906120bb565b6004600089888154811061131057634e487b7160e01b600052603260045260246000fd5b60009182526020808320600160069093020191909101546001600160a01b0316835282810193909352604091820181208e825290925281209190915587546113bd918391600491908b908a90811061137857634e487b7160e01b600052603260045260246000fd5b60009182526020808320600160069093020191909101546001600160a01b0316835282810193909352604091820181206208aa8960eb1b82529092529020549061200d565b600460008988815481106113e157634e487b7160e01b600052603260045260246000fd5b60009182526020808320600160069093020191909101546001600160a01b0316835282810193909352604091820181206208aa8960eb1b82529092529020556116be565b60018b600181111561144757634e487b7160e01b600052602160045260246000fd5b14156116be5761148a826004600061145d612009565b6001600160a01b03168152602080820192909252604090810160009081208f8252909252902054906120bb565b60046000611496612009565b6001600160a01b03166001600160a01b0316815260200190815260200160002060008c8152602001908152602001600020819055506114db8160046000610408612009565b600460006114e7612009565b6001600160a01b03166001600160a01b0316815260200190815260200160002060006208aa8960eb1b81526020019081526020016000208190555061158982600460008a898154811061154a57634e487b7160e01b600052603260045260246000fd5b60009182526020808320600160069093020191909101546001600160a01b0316835282810193909352604091820181208f82529092529020549061200d565b600460008988815481106115ad57634e487b7160e01b600052603260045260246000fd5b60009182526020808320600160069093020191909101546001600160a01b0316835282810193909352604091820181208e8252909252812091909155875461165a918391600491908b908a90811061161557634e487b7160e01b600052603260045260246000fd5b60009182526020808320600160069093020191909101546001600160a01b0316835282810193909352604091820181206208aa8960eb1b8252909252902054906120bb565b6004600089888154811061167e57634e487b7160e01b600052603260045260246000fd5b60009182526020808320600160069093020191909101546001600160a01b0316835282810193909352604091820181206208aa8960eb1b82529092529020555b5050505080806116cd90612762565b915050610f89565b505b81541580159061174a57508160008154811061170357634e487b7160e01b600052603260045260246000fd5b9060005260206000209060060201600301548260008154811061173657634e487b7160e01b600052603260045260246000fd5b906000526020600020906006020160050154145b156118db5760005b8254611760906001906126f9565b81101561187257826117738260016126c2565b8154811061179157634e487b7160e01b600052603260045260246000fd5b90600052602060002090600602018382815481106117bf57634e487b7160e01b600052603260045260246000fd5b6000918252602090912082546006909202019081556001808301805482840180546001600160a01b0319166001600160a01b0390921691909117808255915460ff600160a01b918290041693919260ff60a01b191691849081111561183457634e487b7160e01b600052602160045260246000fd5b02179055506002828101549082015560038083015490820155600480830154908201556005918201549101558061186a81612762565b915050611752565b508180548061189157634e487b7160e01b600052603160045260246000fd5b6000828152602081206006600019909301928302018181556001810180546001600160a81b03191690556002810182905560038101829055600481018290556005015590556116d7565b505050505050565b600281815481106118f357600080fd5b600091825260209091200154905081565b60035481565b60008181526001602052604090206003015481906001600160a01b03166119435760405162461bcd60e51b8152600401610f2f906125e9565b8260046000611950612009565b6001600160a01b03166001600160a01b0316815260200190815260200160002060008481526020019081526020016000205410156119a05760405162461bcd60e51b8152600401610f2f90612617565b6119dd83600460006119b0612009565b6001600160a01b0316815260208082019290925260409081016000908120878252909252902054906120bb565b600460006119e9612009565b6001600160a01b039081168252602080830193909352604091820160009081208782528452828120949094556001909252909120600301541663a9059cbb611a2f612009565b856040518363ffffffff1660e01b8152600401611a4d929190612443565b602060405180830381600087803b158015611a6757600080fd5b505af1158015611a7b573d6000803e3d6000fd5b505050506040513d601f19601f82011682018060405250810190611a9f91906121c9565b50505050565b6000828152600660205260408120606091836001811115611ad657634e487b7160e01b600052602160045260246000fd5b8152602001908152602001600020805480602002602001604051908101604052809291908181526020016000905b82821015611bce5760008481526020908190206040805160e08101825260068602909201805483526001808201546001600160a01b038116958501959095529293909291840191600160a01b90910460ff1690811115611b7457634e487b7160e01b600052602160045260246000fd5b6001811115611b9357634e487b7160e01b600052602160045260246000fd5b815260200160028201548152602001600382015481526020016004820154815260200160058201548152505081526020019060010190611b04565b50505050905092915050565b60008160046000611be9612009565b6001600160a01b03166001600160a01b0316815260200190815260200160002060006208aa8960eb1b8152602001908152602001600020541015611c3f5760405162461bcd60e51b8152600401610f2f906125bb565b611c4f826004600061120b612009565b60046000611c5b612009565b6001600160a01b03168152602080820192909252604090810160009081206208aa8960eb1b8252909252812091909155611c93612009565b6001600160a01b031683604051611ca990612408565b60006040518083038185875af1925050503d8060008114611ce6576040519150601f19603f3d011682016040523d82523d6000602084013e611ceb565b606091505b5090925050505b919050565b60008181526001602052604090206003015481906001600160a01b0316611d305760405162461bcd60e51b8152600401610f2f906125e9565b6000828152600160205260409020600301546001600160a01b03166323b872dd611d58612009565b30866040518463ffffffff1660e01b8152600401611d789392919061241f565b602060405180830381600087803b158015611d9257600080fd5b505af1158015611da6573d6000803e3d6000fd5b505050506040513d601f19601f82011682018060405250810190611dca91906121c9565b50611e088360046000611ddb612009565b6001600160a01b03168152602080820192909252604090810160009081208782529092529020549061200d565b60046000611e14612009565b6001600160a01b03166001600160a01b03168152602001908152602001600020600084815260200190815260200160002081905550505050565b600082815260066020526040812081836001811115611e7d57634e487b7160e01b600052602160045260246000fd5b81526020019081526020016000208481548110611eaa57634e487b7160e01b600052603260045260246000fd5b6000918252602082206006909102018181556001810180546001600160a81b0319169055600281018290556003810182905560048101829055600501559392505050565b611ef661202c565b6001600160a01b038116611f1c5760405162461bcd60e51b8152600401610f2f90612575565b611f258161206b565b50565b611f3061202c565b6040805160808101825285815260208082018690528183018590526001600160a01b0384166060830152600085815260018252929092208151805192939192611f7c92849201906120c7565b5060208201516001828101919091556040830151600280840191909155606090930151600392830180546001600160a01b0319166001600160a01b039092169190911790558254908101835560009283527f405787fa12a823e0f2b7631cc41b3ba8828b3321ca811111fa75cd3aa3bb5ace01849055805491611ffe83612762565b919050555050505050565b3390565b600061201982846126c2565b9392505050565b600061201982846126da565b612034612009565b6001600160a01b0316612045610de0565b6001600160a01b031614610dde5760405162461bcd60e51b8152600401610f2f90612646565b600080546001600160a01b038381166001600160a01b0319831681178455604051919092169283917f8be0079c531659141344cd1fd0a4f28419497f9722a3daafe3b4186f6b6457e09190a35050565b600061201982846126f9565b8280546120d390612727565b90600052602060002090601f0160209004810192826120f5576000855561213b565b82601f1061210e57805160ff191683800117855561213b565b8280016001018555821561213b579182015b8281111561213b578251825591602001919060010190612120565b5061214792915061214b565b5090565b5b80821115612147576000815560010161214c565b80356001600160a01b0381168114611cf257600080fd5b803560028110611cf257600080fd5b600060208284031215612197578081fd5b61201982612160565b600080604083850312156121b2578081fd5b6121bb83612160565b946020939093013593505050565b6000602082840312156121da578081fd5b81518015158114612019578182fd5b6000602082840312156121fa578081fd5b5035919050565b60008060408385031215612213578182fd5b8235915061222360208401612177565b90509250929050565b600080600060608486031215612240578081fd5b505081359360208301359350604090920135919050565b60008060006060848603121561226b578283fd5b61227484612177565b95602085013595506040909401359392505050565b6000806000806080858703121561229e578081fd5b6122a785612177565b966020860135965060408601359560600135945092505050565b600080600080608085870312156122d6578384fd5b843567ffffffffffffffff808211156122ed578586fd5b818701915087601f830112612300578586fd5b813560208282111561231457612314612793565b604051601f8301601f191681018201848111828210171561233757612337612793565b60405282815284830182018b101561234d578889fd5b828286018383013791820181019790975295870135945050506040850135915061237960608601612160565b905092959194509250565b60008060408385031215612396578182fd5b50508035926020909101359150565b6000806000606084860312156123b9578283fd5b83359250602084013591506123d060408501612177565b90509250925092565b6001600160a01b03169052565b6002811061240457634e487b7160e01b600052602160045260246000fd5b9052565b90565b6001600160a01b0391909116815260200190565b6001600160a01b039384168152919092166020820152604081019190915260600190565b6001600160a01b03929092168252602082015260400190565b602080825282518282018190526000919060409081850190868401855b828110156124e357815180518552868101516001600160a01b031687860152858101516124a8878701826123e6565b50606081810151908601526080808201519086015260a0808201519086015260c0908101519085015260e09093019290850190600101612479565b5091979650505050505050565b901515815260200190565b90815260200190565b6000608082528551806080840152815b8181101561253157602081890181015160a0868401015201612514565b81811115612542578260a083860101525b506020830186905260408301859052601f01601f1916820160a001905061256c60608301846123d9565b95945050505050565b60208082526026908201527f4f776e61626c653a206e6577206f776e657220697320746865207a65726f206160408201526564647265737360d01b606082015260800190565b602080825260149082015273496e73756666696369656e742062616c616e636560601b604082015260600190565b602080825260149082015273151bdad95b88191bd95cc81b9bdd08195e1a5cdd60621b604082015260600190565b60208082526015908201527424b739bab33334b1b4b2b73a103130b630b731b29760591b604082015260600190565b6020808252818101527f4f776e61626c653a2063616c6c6572206973206e6f7420746865206f776e6572604082015260600190565b8781526001600160a01b038716602082015260e0810161269e60408301886123e6565b8560608301528460808301528360a08301528260c083015298975050505050505050565b600082198211156126d5576126d561277d565b500190565b60008160001904831182151516156126f4576126f461277d565b500290565b60008282101561270b5761270b61277d565b500390565b60008161271f5761271f61277d565b506000190190565b60028104600182168061273b57607f821691505b6020821081141561275c57634e487b7160e01b600052602260045260246000fd5b50919050565b60006000198214156127765761277661277d565b5060010190565b634e487b7160e01b600052601160045260246000fd5b634e487b7160e01b600052604160045260246000fdfea264697066735822122015e50639e9263a040043a9f3a1e124bf85c5dc530321017d11bd1435089ca4c764736f6c63430008000033",
  "immutableReferences": {},
  "source": "// SPDX-License-Identifier: UNLICENSED\n\npragma solidity 0.8.0;\npragma experimental ABIEncoderV2;\n\nimport \"./Wallet.sol\";\n\ncontract Dex is Wallet {\n\n    using SafeMath for uint256;\n\n    enum OrderType {\n        BUY,\n        SELL\n    }\n    \n    struct Order {\n        uint256 id;\n        address trader;\n        OrderType orderType;\n        bytes32 symbol;\n        uint256 amount;\n        uint256 price;\n        uint256 filled;\n    }\n\n    uint public nextOrderId = 0;\n\n    mapping (bytes32 => mapping (uint => Order[])) public orderBook;\n\n    function getOrderBook(bytes32 _symbol, OrderType _orderType) view public returns (Order[] memory) {\n        return orderBook[_symbol][uint(_orderType)];\n    }\n\n    function deleteOrder(uint256 _orderId, bytes32 _symbol, OrderType _orderType) public returns(bool success) {\n        delete orderBook[_symbol][uint(_orderType)][_orderId];\n        return success;\n    }\n\n    function createLimitOrder(OrderType _orderType,  bytes32 _symbol, uint256 _amount, uint256 _price) public {\n        if (_orderType == OrderType.BUY) {\n            require(balances[_msgSender()][\"ETH\"] >= _amount.mul(_price));\n        } else if (_orderType == OrderType.SELL) {\n            require(balances[_msgSender()][_symbol] >= _amount);\n        }\n\n        Order[] storage orders = orderBook[_symbol][uint(_orderType)];\n\n        orders.push(\n            Order(nextOrderId, _msgSender(), _orderType, _symbol, _amount, _price, 0)\n        );\n\n        // Bubble sort\n        if (orders.length > 0) {\n            if (_orderType == OrderType.BUY) {\n                for (uint256 i=orders.length-1; i>0; i--) {\n                    if (orders[i-1].price > orders[i].price) {\n                        Order memory orderToMove = orders[i-1];\n                        orders[i-1] = orders[i];\n                        orders[i] = orderToMove;\n                    }\n                }\n            } else if (_orderType == OrderType.SELL) {\n                for (uint256 i=orders.length-1; i>0; i--) {\n                    if (orders[i-1].price < orders[i].price) {\n                        Order memory orderToMove = orders[i-1];\n                        orders[i-1] = orders[i];\n                        orders[i] = orderToMove;\n                    }\n                }\n            }\n        }\n\n        nextOrderId = nextOrderId.add(1);\n    }\n\n    function createMarketOrder(OrderType _orderType,  bytes32 _symbol, uint256 _amount) public {\n        if (_orderType == OrderType.SELL) {\n            require(balances[_msgSender()][_symbol] >= _amount, \"Insufficient balance\");\n        }\n\n        uint negateOrderType;\n        if (_orderType == OrderType.BUY) {\n            negateOrderType = 1;\n        } else {\n            negateOrderType = 0;\n        }\n\n        Order[] storage orders = orderBook[_symbol][uint(negateOrderType)];\n\n        uint orderFilled;\n        for (uint256 i = 0; i < orders.length && orderFilled < _amount; i++) {\n            uint leftToFill = _amount.sub(orderFilled);\n            uint availableToFill = orders[i].amount.sub(orders[i].filled);\n            uint filled = 0;\n\n            if(availableToFill > leftToFill) {\n                filled = leftToFill;\n            } else {\n                filled = availableToFill;\n            }\n\n            orderFilled = orderFilled.add(filled);\n            orders[i].filled = orders[i].filled.add(filled);\n            uint cost = filled.mul(orders[i].price);\n\n            if (_orderType == OrderType.BUY) {\n                require(balances[_msgSender()][ETH] >= cost);\n                balances[_msgSender()][_symbol] = balances[_msgSender()][_symbol].add(filled);\n                balances[_msgSender()][ETH] = balances[_msgSender()][ETH].sub(cost);\n\n                balances[orders[i].trader][_symbol] = balances[orders[i].trader][_symbol].sub(filled);\n                balances[orders[i].trader][ETH] = balances[orders[i].trader][ETH].add(cost);\n            } else if (_orderType == OrderType.SELL) {\n                balances[_msgSender()][_symbol] = balances[_msgSender()][_symbol].sub(filled);\n                balances[_msgSender()][ETH] = balances[_msgSender()][ETH].add(cost);\n\n                balances[orders[i].trader][_symbol] = balances[orders[i].trader][_symbol].add(filled);\n                balances[orders[i].trader][ETH] = balances[orders[i].trader][ETH].sub(cost);\n            }\n        }\n\n        while(orders.length > 0 && orders[0].filled == orders[0].amount) {\n            for (uint256 i = 0; i < orders.length -1; i++) {\n                orders[i] = orders[i+1];\n            }\n            orders.pop();\n        }\n    }\n}",
  "sourcePath": "/Users/shaunlindsley/Desktop/coding/moralis-academy-courses/dex/contracts/Dex.sol",
  "compiler": {
    "name": "solc",
    "version": "0.8.0+commit.c7dfd78e.Emscripten.clang"
  },
  "schemaVersion": "3.4.14",
  "updatedAt": "2023-08-01T19:38:17.406Z",
  "networkType": "ethereum",
  "devdoc": {
    "kind": "dev",
    "methods": {
      "addToken(string,bytes32,bytes32,address)": {
        "details": "Add a token into the tokens mapping"
      },
      "deposit(uint256,bytes32)": {
        "details": "Deposit tokens to your account"
      },
      "depositEth()": {
        "details": "Deposit ETH into your account"
      },
      "owner()": {
        "details": "Returns the address of the current owner."
      },
      "renounceOwnership()": {
        "details": "Leaves the contract without owner. It will not be possible to call `onlyOwner` functions. Can only be called by the current owner. NOTE: Renouncing ownership will leave the contract without an owner, thereby disabling any functionality that is only available to the owner."
      },
      "transferOwnership(address)": {
        "details": "Transfers ownership of the contract to a new account (`newOwner`). Can only be called by the current owner."
      },
      "withdraw(uint256,bytes32)": {
        "details": "Withdraw tokens from your account"
      }
    },
    "version": 1
  },
  "userdoc": {
    "kind": "user",
    "methods": {},
    "version": 1
  }
}