{
  "contractName": "Dex",
  "abi": [
    {
      "anonymous": false,
      "inputs": [
        {
          "indexed": true,
          "internalType": "address",
          "name": "previousOwner",
          "type": "address"
        },
        {
          "indexed": true,
          "internalType": "address",
          "name": "newOwner",
          "type": "address"
        }
      ],
      "name": "OwnershipTransferred",
      "type": "event"
    },
    {
      "inputs": [
        {
          "internalType": "string",
          "name": "_id",
          "type": "string"
        },
        {
          "internalType": "bytes32",
          "name": "_name",
          "type": "bytes32"
        },
        {
          "internalType": "bytes32",
          "name": "_ticker",
          "type": "bytes32"
        },
        {
          "internalType": "address",
          "name": "_tokenAddress",
          "type": "address"
        }
      ],
      "name": "addToken",
      "outputs": [],
      "stateMutability": "nonpayable",
      "type": "function"
    },
    {
      "inputs": [
        {
          "internalType": "address",
          "name": "",
          "type": "address"
        },
        {
          "internalType": "bytes32",
          "name": "",
          "type": "bytes32"
        }
      ],
      "name": "balances",
      "outputs": [
        {
          "internalType": "uint256",
          "name": "",
          "type": "uint256"
        }
      ],
      "stateMutability": "view",
      "type": "function",
      "constant": true
    },
    {
      "inputs": [
        {
          "internalType": "uint256",
          "name": "_amount",
          "type": "uint256"
        },
        {
          "internalType": "bytes32",
          "name": "_ticker",
          "type": "bytes32"
        }
      ],
      "name": "deposit",
      "outputs": [],
      "stateMutability": "nonpayable",
      "type": "function"
    },
    {
      "inputs": [],
      "name": "depositEth",
      "outputs": [],
      "stateMutability": "payable",
      "type": "function",
      "payable": true
    },
    {
      "inputs": [],
      "name": "nextOrderId",
      "outputs": [
        {
          "internalType": "uint256",
          "name": "",
          "type": "uint256"
        }
      ],
      "stateMutability": "view",
      "type": "function",
      "constant": true
    },
    {
      "inputs": [
        {
          "internalType": "bytes32",
          "name": "",
          "type": "bytes32"
        },
        {
          "internalType": "uint256",
          "name": "",
          "type": "uint256"
        },
        {
          "internalType": "uint256",
          "name": "",
          "type": "uint256"
        }
      ],
      "name": "orderBook",
      "outputs": [
        {
          "internalType": "uint256",
          "name": "id",
          "type": "uint256"
        },
        {
          "internalType": "address",
          "name": "trader",
          "type": "address"
        },
        {
          "internalType": "enum Dex.OrderType",
          "name": "orderType",
          "type": "uint8"
        },
        {
          "internalType": "bytes32",
          "name": "symbol",
          "type": "bytes32"
        },
        {
          "internalType": "uint256",
          "name": "amount",
          "type": "uint256"
        },
        {
          "internalType": "uint256",
          "name": "price",
          "type": "uint256"
        },
        {
          "internalType": "uint256",
          "name": "filled",
          "type": "uint256"
        }
      ],
      "stateMutability": "view",
      "type": "function",
      "constant": true
    },
    {
      "inputs": [],
      "name": "owner",
      "outputs": [
        {
          "internalType": "address",
          "name": "",
          "type": "address"
        }
      ],
      "stateMutability": "view",
      "type": "function",
      "constant": true
    },
    {
      "inputs": [],
      "name": "renounceOwnership",
      "outputs": [],
      "stateMutability": "nonpayable",
      "type": "function"
    },
    {
      "inputs": [
        {
          "internalType": "uint256",
          "name": "",
          "type": "uint256"
        }
      ],
      "name": "tokenList",
      "outputs": [
        {
          "internalType": "bytes32",
          "name": "",
          "type": "bytes32"
        }
      ],
      "stateMutability": "view",
      "type": "function",
      "constant": true
    },
    {
      "inputs": [],
      "name": "tokenListCount",
      "outputs": [
        {
          "internalType": "uint256",
          "name": "",
          "type": "uint256"
        }
      ],
      "stateMutability": "view",
      "type": "function",
      "constant": true
    },
    {
      "inputs": [
        {
          "internalType": "bytes32",
          "name": "",
          "type": "bytes32"
        }
      ],
      "name": "tokens",
      "outputs": [
        {
          "internalType": "string",
          "name": "id",
          "type": "string"
        },
        {
          "internalType": "bytes32",
          "name": "name",
          "type": "bytes32"
        },
        {
          "internalType": "bytes32",
          "name": "ticker",
          "type": "bytes32"
        },
        {
          "internalType": "address",
          "name": "tokenAddress",
          "type": "address"
        }
      ],
      "stateMutability": "view",
      "type": "function",
      "constant": true
    },
    {
      "inputs": [
        {
          "internalType": "address",
          "name": "newOwner",
          "type": "address"
        }
      ],
      "name": "transferOwnership",
      "outputs": [],
      "stateMutability": "nonpayable",
      "type": "function"
    },
    {
      "inputs": [
        {
          "internalType": "uint256",
          "name": "_amount",
          "type": "uint256"
        },
        {
          "internalType": "bytes32",
          "name": "_ticker",
          "type": "bytes32"
        }
      ],
      "name": "withdraw",
      "outputs": [],
      "stateMutability": "nonpayable",
      "type": "function"
    },
    {
      "inputs": [
        {
          "internalType": "uint256",
          "name": "_amount",
          "type": "uint256"
        }
      ],
      "name": "withdrawEth",
      "outputs": [
        {
          "internalType": "bool",
          "name": "",
          "type": "bool"
        }
      ],
      "stateMutability": "payable",
      "type": "function",
      "payable": true
    },
    {
      "inputs": [
        {
          "internalType": "bytes32",
          "name": "_symbol",
          "type": "bytes32"
        },
        {
          "internalType": "enum Dex.OrderType",
          "name": "_orderType",
          "type": "uint8"
        }
      ],
      "name": "getOrderBook",
      "outputs": [
        {
          "components": [
            {
              "internalType": "uint256",
              "name": "id",
              "type": "uint256"
            },
            {
              "internalType": "address",
              "name": "trader",
              "type": "address"
            },
            {
              "internalType": "enum Dex.OrderType",
              "name": "orderType",
              "type": "uint8"
            },
            {
              "internalType": "bytes32",
              "name": "symbol",
              "type": "bytes32"
            },
            {
              "internalType": "uint256",
              "name": "amount",
              "type": "uint256"
            },
            {
              "internalType": "uint256",
              "name": "price",
              "type": "uint256"
            },
            {
              "internalType": "uint256",
              "name": "filled",
              "type": "uint256"
            }
          ],
          "internalType": "struct Dex.Order[]",
          "name": "",
          "type": "tuple[]"
        }
      ],
      "stateMutability": "view",
      "type": "function",
      "constant": true
    },
    {
      "inputs": [
        {
          "internalType": "uint256",
          "name": "_orderId",
          "type": "uint256"
        },
        {
          "internalType": "bytes32",
          "name": "_symbol",
          "type": "bytes32"
        },
        {
          "internalType": "enum Dex.OrderType",
          "name": "_orderType",
          "type": "uint8"
        }
      ],
      "name": "deleteOrder",
      "outputs": [
        {
          "internalType": "bool",
          "name": "success",
          "type": "bool"
        }
      ],
      "stateMutability": "nonpayable",
      "type": "function"
    },
    {
      "inputs": [
        {
          "internalType": "enum Dex.OrderType",
          "name": "_orderType",
          "type": "uint8"
        },
        {
          "internalType": "bytes32",
          "name": "_symbol",
          "type": "bytes32"
        },
        {
          "internalType": "uint256",
          "name": "_amount",
          "type": "uint256"
        },
        {
          "internalType": "uint256",
          "name": "_price",
          "type": "uint256"
        }
      ],
      "name": "createLimitOrder",
      "outputs": [],
      "stateMutability": "nonpayable",
      "type": "function"
    },
    {
      "inputs": [
        {
          "internalType": "enum Dex.OrderType",
          "name": "_orderType",
          "type": "uint8"
        },
        {
          "internalType": "bytes32",
          "name": "_symbol",
          "type": "bytes32"
        },
        {
          "internalType": "uint256",
          "name": "_amount",
          "type": "uint256"
        }
      ],
      "name": "createMarketOrder",
      "outputs": [],
      "stateMutability": "nonpayable",
      "type": "function"
    }
  ],
  "bytecode": "0x6080604052600060035560006005553480156200001b57600080fd5b50620000306200002a62000079565b6200007d565b60408051808201909152600c81526b6574682d657468657265756d60a01b6020820152620000739067457468657265756d60c01b6208aa8960eb1b6000620000cd565b62000354565b3390565b600080546001600160a01b038381166001600160a01b0319831681178455604051919092169283917f8be0079c531659141344cd1fd0a4f28419497f9722a3daafe3b4186f6b6457e09190a35050565b620000d7620001b4565b6040805160808101825285815260208082018690528183018590526001600160a01b038416606083015260008581526001825292909220815180519293919262000125928492019062000214565b5060208201516001828101919091556040830151600280840191909155606090930151600392830180546001600160a01b0319166001600160a01b039092169190911790558254908101835560009283527f405787fa12a823e0f2b7631cc41b3ba8828b3321ca811111fa75cd3aa3bb5ace01849055805491620001a9836200032c565b919050555050505050565b620001be62000079565b6001600160a01b0316620001d162000205565b6001600160a01b031614620002035760405162461bcd60e51b8152600401620001fa90620002ba565b60405180910390fd5b565b6000546001600160a01b031690565b8280546200022290620002ef565b90600052602060002090601f01602090048101928262000246576000855562000291565b82601f106200026157805160ff191683800117855562000291565b8280016001018555821562000291579182015b828111156200029157825182559160200191906001019062000274565b506200029f929150620002a3565b5090565b5b808211156200029f5760008155600101620002a4565b6020808252818101527f4f776e61626c653a2063616c6c6572206973206e6f7420746865206f776e6572604082015260600190565b6002810460018216806200030457607f821691505b602082108114156200032657634e487b7160e01b600052602260045260246000fd5b50919050565b60006000198214156200034d57634e487b7160e01b81526011600452602481fd5b5060010190565b6128d280620003646000396000f3fe6080604052600436106101095760003560e01c80639ead722211610095578063c311d04911610064578063c311d049146102bf578063c9630cb0146102df578063d15e2efe146102ff578063f2fde38b1461031f578063fae1cbce1461033f57610109565b80639ead72221461023d578063a43ad7e71461025d578063a8d2021a14610272578063ba58ea681461029257610109565b80636f3b62f9116100dc5780636f3b62f914610196578063715018a6146101b65780638da5cb5b146101cb578063904194a3146101ed57806399ec2f1c1461021d57610109565b80630bb431b61461010e5780631f14df691461014a5780632a58b33014610177578063439370b11461018c575b600080fd5b34801561011a57600080fd5b5061012e6101293660046122ff565b61035f565b604051610141979695949392919061274e565b60405180910390f35b34801561015657600080fd5b5061016a610165366004612273565b6103d5565b60405161014191906125ce565b34801561018357600080fd5b5061016a6103f2565b6101946103f8565b005b3480156101a257600080fd5b506101946101b136600461235c565b610476565b3480156101c257600080fd5b50610194610ddf565b3480156101d757600080fd5b506101e0610df3565b60405161014191906124de565b3480156101f957600080fd5b5061020d6102083660046122bc565b610e02565b60405161014194939291906125d7565b34801561022957600080fd5b5061019461023836600461232a565b610ebd565b34801561024957600080fd5b5061016a6102583660046122bc565b611943565b34801561026957600080fd5b5061016a611964565b34801561027e57600080fd5b5061019461028d366004612457565b61196a565b34801561029e57600080fd5b506102b26102ad3660046122d4565b611b05565b604051610141919061252f565b6102d26102cd3660046122bc565b611c3a565b60405161014191906125c3565b3480156102eb57600080fd5b506101946102fa366004612457565b611d57565b34801561030b57600080fd5b506102d261031a366004612478565b611eae565b34801561032b57600080fd5b5061019461033a366004612259565b611f4e565b34801561034b57600080fd5b5061019461035a366004612394565b611f88565b6006602052826000526040600020602052816000526040600020818154811061038757600080fd5b60009182526020909120600690910201805460018201546002830154600384015460048501546005909501549397506001600160a01b0383169650600160a01b90920460ff16945092909187565b600460209081526000928352604080842090915290825290205481565b60055481565b61043b3460046000610408612069565b6001600160a01b03168152602080820192909252604090810160009081206208aa8960eb1b82529092529020549061206d565b60046000610447612069565b6001600160a01b03168152602080820192909252604090810160009081206208aa8960eb1b8252909252902055565b600084600181111561049857634e487b7160e01b600052602160045260246000fd5b1415610507576104b36104ac826064612080565b839061208c565b600460006104bf612069565b6001600160a01b03166001600160a01b0316815260200190815260200160002060006208aa8960eb1b815260200190815260200160002054101561050257600080fd5b610579565b600184600181111561052957634e487b7160e01b600052602160045260246000fd5b141561057957816004600061053c612069565b6001600160a01b03166001600160a01b03168152602001908152602001600020600085815260200190815260200160002054101561057957600080fd5b6000838152600660205260408120818660018111156105a857634e487b7160e01b600052602160045260246000fd5b81526020019081526020016000209050806040518060e0016040528060055481526020016105d4612069565b6001600160a01b0316815260200187600181111561060257634e487b7160e01b600052602160045260246000fd5b81526020810187905260408101869052606001610620856064612080565b8152600060209182018190528354600180820186559482529082902083516006909202019081559082015181840180546001600160a01b0319166001600160a01b03909216919091178082556040840151939492939260ff60a01b1990911690600160a01b9084908111156106a557634e487b7160e01b600052602160045260246000fd5b0217905550606082015160028201556080820151600382015560a0820151600482015560c090910151600590910155805415610dc75760008560018111156106fd57634e487b7160e01b600052602160045260246000fd5b1415610a53578054600090610714906001906127ec565b90505b8015610a4d5781818154811061073d57634e487b7160e01b600052603260045260246000fd5b9060005260206000209060060201600401548260018361075d91906127ec565b8154811061077b57634e487b7160e01b600052603260045260246000fd5b9060005260206000209060060201600401541115610a3b576000826107a16001846127ec565b815481106107bf57634e487b7160e01b600052603260045260246000fd5b60009182526020918290206040805160e081018252600693909302909101805483526001808201546001600160a01b038116958501959095529293909291840191600160a01b90910460ff169081111561082957634e487b7160e01b600052602160045260246000fd5b600181111561084857634e487b7160e01b600052602160045260246000fd5b8152602001600282015481526020016003820154815260200160048201548152602001600582015481525050905082828154811061089657634e487b7160e01b600052603260045260246000fd5b9060005260206000209060060201836001846108b291906127ec565b815481106108d057634e487b7160e01b600052603260045260246000fd5b6000918252602090912082546006909202019081556001808301805482840180546001600160a01b0319166001600160a01b0390921691909117808255915460ff600160a01b918290041693919260ff60a01b191691849081111561094557634e487b7160e01b600052602160045260246000fd5b0217905550600282015481600201556003820154816003015560048201548160040155600582015481600501559050508083838154811061099657634e487b7160e01b600052603260045260246000fd5b600091825260209182902083516006929092020190815590820151600180830180546001600160a01b0319166001600160a01b03909316929092178083556040850151929160ff60a01b1990911690600160a01b908490811115610a0a57634e487b7160e01b600052602160045260246000fd5b0217905550606082015160028201556080820151600382015560a0820151600482015560c090910151600590910155505b80610a4581612803565b915050610717565b50610dc7565b6001856001811115610a7557634e487b7160e01b600052602160045260246000fd5b1415610dc7578054600090610a8c906001906127ec565b90505b8015610dc557818181548110610ab557634e487b7160e01b600052603260045260246000fd5b90600052602060002090600602016004015482600183610ad591906127ec565b81548110610af357634e487b7160e01b600052603260045260246000fd5b9060005260206000209060060201600401541015610db357600082610b196001846127ec565b81548110610b3757634e487b7160e01b600052603260045260246000fd5b60009182526020918290206040805160e081018252600693909302909101805483526001808201546001600160a01b038116958501959095529293909291840191600160a01b90910460ff1690811115610ba157634e487b7160e01b600052602160045260246000fd5b6001811115610bc057634e487b7160e01b600052602160045260246000fd5b81526020016002820154815260200160038201548152602001600482015481526020016005820154815250509050828281548110610c0e57634e487b7160e01b600052603260045260246000fd5b906000526020600020906006020183600184610c2a91906127ec565b81548110610c4857634e487b7160e01b600052603260045260246000fd5b6000918252602090912082546006909202019081556001808301805482840180546001600160a01b0319166001600160a01b0390921691909117808255915460ff600160a01b918290041693919260ff60a01b1916918490811115610cbd57634e487b7160e01b600052602160045260246000fd5b02179055506002820154816002015560038201548160030155600482015481600401556005820154816005015590505080838381548110610d0e57634e487b7160e01b600052603260045260246000fd5b600091825260209182902083516006929092020190815590820151600180830180546001600160a01b0319166001600160a01b03909316929092178083556040850151929160ff60a01b1990911690600160a01b908490811115610d8257634e487b7160e01b600052602160045260246000fd5b0217905550606082015160028201556080820151600382015560a0820151600482015560c090910151600590910155505b80610dbd81612803565b915050610a8f565b505b600554610dd590600161206d565b6005555050505050565b610de7612098565b610df160006120d7565b565b6000546001600160a01b031690565b600160205260009081526040902080548190610e1d9061281a565b80601f0160208091040260200160405190810160405280929190818152602001828054610e499061281a565b8015610e965780601f10610e6b57610100808354040283529160200191610e96565b820191906000526020600020905b815481529060010190602001808311610e7957829003601f168201915b5050505060018301546002840154600390940154929390929091506001600160a01b031684565b6001836001811115610edf57634e487b7160e01b600052602160045260246000fd5b1415610f4b578060046000610ef2612069565b6001600160a01b03166001600160a01b031681526020019081526020016000206000848152602001908152602001600020541015610f4b5760405162461bcd60e51b8152600401610f429061268e565b60405180910390fd5b600080846001811115610f6e57634e487b7160e01b600052602160045260246000fd5b1415610f7c57506001610f80565b5060005b6000838152600660209081526040808320848452909152812090805b825481108015610fab57508482105b15611735576000610fbc8684612127565b90506000611035858481548110610fe357634e487b7160e01b600052603260045260246000fd5b90600052602060002090600602016005015486858154811061101557634e487b7160e01b600052603260045260246000fd5b90600052602060002090600602016003015461212790919063ffffffff16565b905060008282111561104857508161104b565b50805b611055858261206d565b945061109b8187868154811061107b57634e487b7160e01b600052603260045260246000fd5b90600052602060002090600602016005015461206d90919063ffffffff16565b8685815481106110bb57634e487b7160e01b600052603260045260246000fd5b90600052602060002090600602016005018190555060006111168786815481106110f557634e487b7160e01b600052603260045260246000fd5b9060005260206000209060060201600401548361208c90919063ffffffff16565b905060008b600181111561113a57634e487b7160e01b600052602160045260246000fd5b141561146157806004600061114d612069565b6001600160a01b03166001600160a01b0316815260200190815260200160002060006208aa8960eb1b815260200190815260200160002054101561119057600080fd5b6111cd82600460006111a0612069565b6001600160a01b03168152602080820192909252604090810160009081208f82529092529020549061206d565b600460006111d9612069565b6001600160a01b03166001600160a01b0316815260200190815260200160002060008c815260200190815260200160002081905550611251816004600061121e612069565b6001600160a01b03168152602080820192909252604090810160009081206208aa8960eb1b825290925290205490612127565b6004600061125d612069565b6001600160a01b03166001600160a01b0316815260200190815260200160002060006208aa8960eb1b8152602001908152602001600020819055506112ff82600460008a89815481106112c057634e487b7160e01b600052603260045260246000fd5b60009182526020808320600160069093020191909101546001600160a01b0316835282810193909352604091820181208f825290925290205490612127565b6004600089888154811061132357634e487b7160e01b600052603260045260246000fd5b60009182526020808320600160069093020191909101546001600160a01b0316835282810193909352604091820181208e825290925281209190915587546113d0918391600491908b908a90811061138b57634e487b7160e01b600052603260045260246000fd5b60009182526020808320600160069093020191909101546001600160a01b0316835282810193909352604091820181206208aa8960eb1b82529092529020549061206d565b600460008988815481106113f457634e487b7160e01b600052603260045260246000fd5b60009182526020808320600160069093020191909101546001600160a01b0316835282810193909352604091820181206208aa8960eb1b825290925290205561145b737eaafed0e594a1ac12f50d59847ebb784c66c45e6114568b6064612080565b612133565b5061171e565b60018b600181111561148357634e487b7160e01b600052602160045260246000fd5b141561171e576114c68260046000611499612069565b6001600160a01b03168152602080820192909252604090810160009081208f825290925290205490612127565b600460006114d2612069565b6001600160a01b03166001600160a01b0316815260200190815260200160002060008c8152602001908152602001600020819055506115178160046000610408612069565b60046000611523612069565b6001600160a01b03166001600160a01b0316815260200190815260200160002060006208aa8960eb1b8152602001908152602001600020819055506115c582600460008a898154811061158657634e487b7160e01b600052603260045260246000fd5b60009182526020808320600160069093020191909101546001600160a01b0316835282810193909352604091820181208f82529092529020549061206d565b600460008988815481106115e957634e487b7160e01b600052603260045260246000fd5b60009182526020808320600160069093020191909101546001600160a01b0316835282810193909352604091820181208e82529092528120919091558754611696918391600491908b908a90811061165157634e487b7160e01b600052603260045260246000fd5b60009182526020808320600160069093020191909101546001600160a01b0316835282810193909352604091820181206208aa8960eb1b825290925290205490612127565b600460008988815481106116ba57634e487b7160e01b600052603260045260246000fd5b60009182526020808320600160069093020191909101546001600160a01b0316835282810193909352604091820181206208aa8960eb1b825290925290205561171c737eaafed0e594a1ac12f50d59847ebb784c66c45e6114568b6064612080565b505b50505050808061172d90612855565b915050610f9c565b505b8154158015906117aa57508160008154811061176357634e487b7160e01b600052603260045260246000fd5b9060005260206000209060060201600301548260008154811061179657634e487b7160e01b600052603260045260246000fd5b906000526020600020906006020160050154145b1561193b5760005b82546117c0906001906127ec565b8110156118d257826117d3826001612795565b815481106117f157634e487b7160e01b600052603260045260246000fd5b906000526020600020906006020183828154811061181f57634e487b7160e01b600052603260045260246000fd5b6000918252602090912082546006909202019081556001808301805482840180546001600160a01b0319166001600160a01b0390921691909117808255915460ff600160a01b918290041693919260ff60a01b191691849081111561189457634e487b7160e01b600052602160045260246000fd5b0217905550600282810154908201556003808301549082015560048083015490820155600591820154910155806118ca81612855565b9150506117b2565b50818054806118f157634e487b7160e01b600052603160045260246000fd5b6000828152602081206006600019909301928302018181556001810180546001600160a81b0319169055600281018290556003810182905560048101829055600501559055611737565b505050505050565b6002818154811061195357600080fd5b600091825260209091200154905081565b60035481565b60008181526001602052604090206003015481906001600160a01b03166119a35760405162461bcd60e51b8152600401610f42906126bc565b82600460006119b0612069565b6001600160a01b03166001600160a01b031681526020019081526020016000206000848152602001908152602001600020541015611a005760405162461bcd60e51b8152600401610f42906126ea565b611a3d8360046000611a10612069565b6001600160a01b031681526020808201929092526040908101600090812087825290925290205490612127565b60046000611a49612069565b6001600160a01b039081168252602080830193909352604091820160009081208782528452828120949094556001909252909120600301541663a9059cbb611a8f612069565b856040518363ffffffff1660e01b8152600401611aad929190612516565b602060405180830381600087803b158015611ac757600080fd5b505af1158015611adb573d6000803e3d6000fd5b505050506040513d601f19601f82011682018060405250810190611aff919061229c565b50505050565b6000828152600660205260408120606091836001811115611b3657634e487b7160e01b600052602160045260246000fd5b8152602001908152602001600020805480602002602001604051908101604052809291908181526020016000905b82821015611c2e5760008481526020908190206040805160e08101825260068602909201805483526001808201546001600160a01b038116958501959095529293909291840191600160a01b90910460ff1690811115611bd457634e487b7160e01b600052602160045260246000fd5b6001811115611bf357634e487b7160e01b600052602160045260246000fd5b815260200160028201548152602001600382015481526020016004820154815260200160058201548152505081526020019060010190611b64565b50505050905092915050565b60008160046000611c49612069565b6001600160a01b03166001600160a01b0316815260200190815260200160002060006208aa8960eb1b8152602001908152602001600020541015611c9f5760405162461bcd60e51b8152600401610f429061268e565b611caf826004600061121e612069565b60046000611cbb612069565b6001600160a01b03168152602080820192909252604090810160009081206208aa8960eb1b8252909252812091909155611cf3612069565b6001600160a01b031683604051611d09906124db565b60006040518083038185875af1925050503d8060008114611d46576040519150601f19603f3d011682016040523d82523d6000602084013e611d4b565b606091505b5090925050505b919050565b60008181526001602052604090206003015481906001600160a01b0316611d905760405162461bcd60e51b8152600401610f42906126bc565b6000828152600160205260409020600301546001600160a01b03166323b872dd611db8612069565b30866040518463ffffffff1660e01b8152600401611dd8939291906124f2565b602060405180830381600087803b158015611df257600080fd5b505af1158015611e06573d6000803e3d6000fd5b505050506040513d601f19601f82011682018060405250810190611e2a919061229c565b50611e688360046000611e3b612069565b6001600160a01b03168152602080820192909252604090810160009081208782529092529020549061206d565b60046000611e74612069565b6001600160a01b03166001600160a01b03168152602001908152602001600020600084815260200190815260200160002081905550505050565b600082815260066020526040812081836001811115611edd57634e487b7160e01b600052602160045260246000fd5b81526020019081526020016000208481548110611f0a57634e487b7160e01b600052603260045260246000fd5b6000918252602082206006909102018181556001810180546001600160a81b0319169055600281018290556003810182905560048101829055600501559392505050565b611f56612098565b6001600160a01b038116611f7c5760405162461bcd60e51b8152600401610f4290612648565b611f85816120d7565b50565b611f90612098565b6040805160808101825285815260208082018690528183018590526001600160a01b0384166060830152600085815260018252929092208151805192939192611fdc928492019061219a565b5060208201516001828101919091556040830151600280840191909155606090930151600392830180546001600160a01b0319166001600160a01b039092169190911790558254908101835560009283527f405787fa12a823e0f2b7631cc41b3ba8828b3321ca811111fa75cd3aa3bb5ace0184905580549161205e83612855565b919050555050505050565b3390565b60006120798284612795565b9392505050565b600061207982846127ad565b600061207982846127cd565b6120a0612069565b6001600160a01b03166120b1610df3565b6001600160a01b031614610df15760405162461bcd60e51b8152600401610f4290612719565b600080546001600160a01b038381166001600160a01b0319831681178455604051919092169283917f8be0079c531659141344cd1fd0a4f28419497f9722a3daafe3b4186f6b6457e09190a35050565b600061207982846127ec565b600080836001600160a01b03168360405161214d906124db565b60006040518083038185875af1925050503d806000811461218a576040519150601f19603f3d011682016040523d82523d6000602084013e61218f565b606091505b509095945050505050565b8280546121a69061281a565b90600052602060002090601f0160209004810192826121c8576000855561220e565b82601f106121e157805160ff191683800117855561220e565b8280016001018555821561220e579182015b8281111561220e5782518255916020019190600101906121f3565b5061221a92915061221e565b5090565b5b8082111561221a576000815560010161221f565b80356001600160a01b0381168114611d5257600080fd5b803560028110611d5257600080fd5b60006020828403121561226a578081fd5b61207982612233565b60008060408385031215612285578081fd5b61228e83612233565b946020939093013593505050565b6000602082840312156122ad578081fd5b81518015158114612079578182fd5b6000602082840312156122cd578081fd5b5035919050565b600080604083850312156122e6578182fd5b823591506122f66020840161224a565b90509250929050565b600080600060608486031215612313578081fd5b505081359360208301359350604090920135919050565b60008060006060848603121561233e578283fd5b6123478461224a565b95602085013595506040909401359392505050565b60008060008060808587031215612371578081fd5b61237a8561224a565b966020860135965060408601359560600135945092505050565b600080600080608085870312156123a9578384fd5b843567ffffffffffffffff808211156123c0578586fd5b818701915087601f8301126123d3578586fd5b81356020828211156123e7576123e7612886565b604051601f8301601f191681018201848111828210171561240a5761240a612886565b60405282815284830182018b1015612420578889fd5b828286018383013791820181019790975295870135945050506040850135915061244c60608601612233565b905092959194509250565b60008060408385031215612469578182fd5b50508035926020909101359150565b60008060006060848603121561248c578283fd5b83359250602084013591506124a36040850161224a565b90509250925092565b6001600160a01b03169052565b600281106124d757634e487b7160e01b600052602160045260246000fd5b9052565b90565b6001600160a01b0391909116815260200190565b6001600160a01b039384168152919092166020820152604081019190915260600190565b6001600160a01b03929092168252602082015260400190565b602080825282518282018190526000919060409081850190868401855b828110156125b657815180518552868101516001600160a01b0316878601528581015161257b878701826124b9565b50606081810151908601526080808201519086015260a0808201519086015260c0908101519085015260e0909301929085019060010161254c565b5091979650505050505050565b901515815260200190565b90815260200190565b6000608082528551806080840152815b8181101561260457602081890181015160a08684010152016125e7565b81811115612615578260a083860101525b506020830186905260408301859052601f01601f1916820160a001905061263f60608301846124ac565b95945050505050565b60208082526026908201527f4f776e61626c653a206e6577206f776e657220697320746865207a65726f206160408201526564647265737360d01b606082015260800190565b602080825260149082015273496e73756666696369656e742062616c616e636560601b604082015260600190565b602080825260149082015273151bdad95b88191bd95cc81b9bdd08195e1a5cdd60621b604082015260600190565b60208082526015908201527424b739bab33334b1b4b2b73a103130b630b731b29760591b604082015260600190565b6020808252818101527f4f776e61626c653a2063616c6c6572206973206e6f7420746865206f776e6572604082015260600190565b8781526001600160a01b038716602082015260e0810161277160408301886124b9565b8560608301528460808301528360a08301528260c083015298975050505050505050565b600082198211156127a8576127a8612870565b500190565b6000826127c857634e487b7160e01b81526012600452602481fd5b500490565b60008160001904831182151516156127e7576127e7612870565b500290565b6000828210156127fe576127fe612870565b500390565b60008161281257612812612870565b506000190190565b60028104600182168061282e57607f821691505b6020821081141561284f57634e487b7160e01b600052602260045260246000fd5b50919050565b600060001982141561286957612869612870565b5060010190565b634e487b7160e01b600052601160045260246000fd5b634e487b7160e01b600052604160045260246000fdfea26469706673582212206ba270f5264c19f5c88ec4cd3e2a86ce04e123a4d1520f4cb9ccd10c6467467564736f6c63430008000033",
  "immutableReferences": {},
  "source": "// SPDX-License-Identifier: UNLICENSED\n\npragma solidity 0.8.0;\npragma experimental ABIEncoderV2;\n\nimport \"./Wallet.sol\";\n\ncontract Dex is Wallet {\n\n    using SafeMath for uint256;\n\n    enum OrderType {\n        BUY,\n        SELL\n    }\n    \n    struct Order {\n        uint256 id;\n        address trader;\n        OrderType orderType;\n        bytes32 symbol;\n        uint256 amount;\n        uint256 price;\n        uint256 filled;\n    }\n\n    address payable constant FEE_ADDRESS = payable(0x7eaAFED0E594a1ac12f50d59847eBB784c66c45E);\n\n    uint public nextOrderId = 0;\n\n    mapping (bytes32 => mapping (uint => Order[])) public orderBook;\n\n    function getOrderBook(bytes32 _symbol, OrderType _orderType) view public returns (Order[] memory) {\n        return orderBook[_symbol][uint(_orderType)];\n    }\n\n    function deleteOrder(uint256 _orderId, bytes32 _symbol, OrderType _orderType) public returns(bool success) {\n        delete orderBook[_symbol][uint(_orderType)][_orderId];\n        return success;\n    }\n\n    function createLimitOrder(OrderType _orderType,  bytes32 _symbol, uint256 _amount, uint256 _price) public {\n        if (_orderType == OrderType.BUY) {\n            require(balances[_msgSender()][\"ETH\"] >= _amount.mul(_price.div(100)));\n        } else if (_orderType == OrderType.SELL) {\n            require(balances[_msgSender()][_symbol] >= _amount);\n        }\n\n        Order[] storage orders = orderBook[_symbol][uint(_orderType)];\n\n        orders.push(\n            Order(nextOrderId, _msgSender(), _orderType, _symbol, _amount, _price.div(100), 0)\n        );\n\n        // Bubble sort\n        if (orders.length > 0) {\n            if (_orderType == OrderType.BUY) {\n                for (uint256 i=orders.length-1; i>0; i--) {\n                    if (orders[i-1].price > orders[i].price) {\n                        Order memory orderToMove = orders[i-1];\n                        orders[i-1] = orders[i];\n                        orders[i] = orderToMove;\n                    }\n                }\n            } else if (_orderType == OrderType.SELL) {\n                for (uint256 i=orders.length-1; i>0; i--) {\n                    if (orders[i-1].price < orders[i].price) {\n                        Order memory orderToMove = orders[i-1];\n                        orders[i-1] = orders[i];\n                        orders[i] = orderToMove;\n                    }\n                }\n            }\n        }\n\n        nextOrderId = nextOrderId.add(1);\n    }\n\n    function createMarketOrder(OrderType _orderType,  bytes32 _symbol, uint256 _amount) public {\n        if (_orderType == OrderType.SELL) {\n            require(balances[_msgSender()][_symbol] >= _amount, \"Insufficient balance\");\n        }\n\n        uint negateOrderType;\n        if (_orderType == OrderType.BUY) {\n            negateOrderType = 1;\n        } else {\n            negateOrderType = 0;\n        }\n\n        Order[] storage orders = orderBook[_symbol][uint(negateOrderType)];\n\n        uint orderFilled;\n        for (uint256 i = 0; i < orders.length && orderFilled < _amount; i++) {\n            uint leftToFill = _amount.sub(orderFilled);\n            uint availableToFill = orders[i].amount.sub(orders[i].filled);\n            uint filled = 0;\n\n            if(availableToFill > leftToFill) {\n                filled = leftToFill;\n            } else {\n                filled = availableToFill;\n            }\n\n            orderFilled = orderFilled.add(filled);\n            orders[i].filled = orders[i].filled.add(filled);\n            uint cost = filled.mul(orders[i].price);\n\n            if (_orderType == OrderType.BUY) {\n                require(balances[_msgSender()][ETH] >= cost);\n                balances[_msgSender()][_symbol] = balances[_msgSender()][_symbol].add(filled);\n                balances[_msgSender()][ETH] = balances[_msgSender()][ETH].sub(cost);\n\n                balances[orders[i].trader][_symbol] = balances[orders[i].trader][_symbol].sub(filled);\n                balances[orders[i].trader][ETH] = balances[orders[i].trader][ETH].add(cost);\n\n                _transfer(FEE_ADDRESS, _amount.div(100));\n            } else if (_orderType == OrderType.SELL) {\n                balances[_msgSender()][_symbol] = balances[_msgSender()][_symbol].sub(filled);\n                balances[_msgSender()][ETH] = balances[_msgSender()][ETH].add(cost);\n\n                balances[orders[i].trader][_symbol] = balances[orders[i].trader][_symbol].add(filled);\n                balances[orders[i].trader][ETH] = balances[orders[i].trader][ETH].sub(cost);\n\n                _transfer(FEE_ADDRESS, _amount.div(100));\n            }\n        }\n\n        while(orders.length > 0 && orders[0].filled == orders[0].amount) {\n            for (uint256 i = 0; i < orders.length -1; i++) {\n                orders[i] = orders[i+1];\n            }\n            orders.pop();\n        }\n    }\n\n    function _transfer(address payable recipient, uint amount) private returns(bool) {\n        (bool success,) = recipient.call{value: amount}(\"\");\n        return success;\n    }\n}",
  "sourcePath": "/Users/shaunlindsley/Desktop/coding/moralis-academy-courses/dex/contracts/Dex.sol",
  "compiler": {
    "name": "solc",
    "version": "0.8.0+commit.c7dfd78e.Emscripten.clang"
  },
  "schemaVersion": "3.4.14",
  "updatedAt": "2023-08-04T09:47:25.487Z",
  "networkType": "ethereum",
  "devdoc": {
    "kind": "dev",
    "methods": {
      "addToken(string,bytes32,bytes32,address)": {
        "details": "Add a token into the tokens mapping"
      },
      "deposit(uint256,bytes32)": {
        "details": "Deposit tokens to your account"
      },
      "depositEth()": {
        "details": "Deposit ETH into your account"
      },
      "owner()": {
        "details": "Returns the address of the current owner."
      },
      "renounceOwnership()": {
        "details": "Leaves the contract without owner. It will not be possible to call `onlyOwner` functions. Can only be called by the current owner. NOTE: Renouncing ownership will leave the contract without an owner, thereby disabling any functionality that is only available to the owner."
      },
      "transferOwnership(address)": {
        "details": "Transfers ownership of the contract to a new account (`newOwner`). Can only be called by the current owner."
      },
      "withdraw(uint256,bytes32)": {
        "details": "Withdraw tokens from your account"
      }
    },
    "version": 1
  },
  "userdoc": {
    "kind": "user",
    "methods": {},
    "version": 1
  }
}