{
  "contractName": "Dex",
  "abi": [
    {
      "anonymous": false,
      "inputs": [
        {
          "indexed": true,
          "internalType": "address",
          "name": "previousOwner",
          "type": "address"
        },
        {
          "indexed": true,
          "internalType": "address",
          "name": "newOwner",
          "type": "address"
        }
      ],
      "name": "OwnershipTransferred",
      "type": "event"
    },
    {
      "inputs": [
        {
          "internalType": "string",
          "name": "_id",
          "type": "string"
        },
        {
          "internalType": "bytes32",
          "name": "_name",
          "type": "bytes32"
        },
        {
          "internalType": "bytes32",
          "name": "_ticker",
          "type": "bytes32"
        },
        {
          "internalType": "address",
          "name": "_tokenAddress",
          "type": "address"
        }
      ],
      "name": "addToken",
      "outputs": [],
      "stateMutability": "nonpayable",
      "type": "function"
    },
    {
      "inputs": [
        {
          "internalType": "address",
          "name": "",
          "type": "address"
        },
        {
          "internalType": "bytes32",
          "name": "",
          "type": "bytes32"
        }
      ],
      "name": "balances",
      "outputs": [
        {
          "internalType": "uint256",
          "name": "",
          "type": "uint256"
        }
      ],
      "stateMutability": "view",
      "type": "function"
    },
    {
      "inputs": [
        {
          "internalType": "bytes32",
          "name": "_ticker",
          "type": "bytes32"
        },
        {
          "internalType": "uint256",
          "name": "_index",
          "type": "uint256"
        }
      ],
      "name": "deleteToken",
      "outputs": [],
      "stateMutability": "nonpayable",
      "type": "function"
    },
    {
      "inputs": [
        {
          "internalType": "uint256",
          "name": "_amount",
          "type": "uint256"
        },
        {
          "internalType": "bytes32",
          "name": "_ticker",
          "type": "bytes32"
        }
      ],
      "name": "deposit",
      "outputs": [],
      "stateMutability": "nonpayable",
      "type": "function"
    },
    {
      "inputs": [],
      "name": "depositEth",
      "outputs": [],
      "stateMutability": "payable",
      "type": "function"
    },
    {
      "inputs": [],
      "name": "nextOrderId",
      "outputs": [
        {
          "internalType": "uint256",
          "name": "",
          "type": "uint256"
        }
      ],
      "stateMutability": "view",
      "type": "function"
    },
    {
      "inputs": [
        {
          "internalType": "bytes32",
          "name": "",
          "type": "bytes32"
        },
        {
          "internalType": "uint256",
          "name": "",
          "type": "uint256"
        },
        {
          "internalType": "uint256",
          "name": "",
          "type": "uint256"
        }
      ],
      "name": "orderBook",
      "outputs": [
        {
          "internalType": "uint256",
          "name": "id",
          "type": "uint256"
        },
        {
          "internalType": "address",
          "name": "trader",
          "type": "address"
        },
        {
          "internalType": "enum Dex.OrderType",
          "name": "orderType",
          "type": "uint8"
        },
        {
          "internalType": "bytes32",
          "name": "symbol",
          "type": "bytes32"
        },
        {
          "internalType": "uint256",
          "name": "amount",
          "type": "uint256"
        },
        {
          "internalType": "uint256",
          "name": "price",
          "type": "uint256"
        },
        {
          "internalType": "uint256",
          "name": "filled",
          "type": "uint256"
        }
      ],
      "stateMutability": "view",
      "type": "function"
    },
    {
      "inputs": [],
      "name": "owner",
      "outputs": [
        {
          "internalType": "address",
          "name": "",
          "type": "address"
        }
      ],
      "stateMutability": "view",
      "type": "function"
    },
    {
      "inputs": [],
      "name": "renounceOwnership",
      "outputs": [],
      "stateMutability": "nonpayable",
      "type": "function"
    },
    {
      "inputs": [
        {
          "internalType": "uint256",
          "name": "",
          "type": "uint256"
        }
      ],
      "name": "tokenList",
      "outputs": [
        {
          "internalType": "bytes32",
          "name": "",
          "type": "bytes32"
        }
      ],
      "stateMutability": "view",
      "type": "function"
    },
    {
      "inputs": [],
      "name": "tokenListCount",
      "outputs": [
        {
          "internalType": "uint256",
          "name": "",
          "type": "uint256"
        }
      ],
      "stateMutability": "view",
      "type": "function"
    },
    {
      "inputs": [
        {
          "internalType": "bytes32",
          "name": "",
          "type": "bytes32"
        }
      ],
      "name": "tokens",
      "outputs": [
        {
          "internalType": "string",
          "name": "id",
          "type": "string"
        },
        {
          "internalType": "bytes32",
          "name": "name",
          "type": "bytes32"
        },
        {
          "internalType": "bytes32",
          "name": "ticker",
          "type": "bytes32"
        },
        {
          "internalType": "address",
          "name": "tokenAddress",
          "type": "address"
        }
      ],
      "stateMutability": "view",
      "type": "function"
    },
    {
      "inputs": [
        {
          "internalType": "address",
          "name": "newOwner",
          "type": "address"
        }
      ],
      "name": "transferOwnership",
      "outputs": [],
      "stateMutability": "nonpayable",
      "type": "function"
    },
    {
      "inputs": [
        {
          "internalType": "uint256",
          "name": "_amount",
          "type": "uint256"
        },
        {
          "internalType": "bytes32",
          "name": "_ticker",
          "type": "bytes32"
        }
      ],
      "name": "withdraw",
      "outputs": [],
      "stateMutability": "nonpayable",
      "type": "function"
    },
    {
      "inputs": [
        {
          "internalType": "uint256",
          "name": "_amount",
          "type": "uint256"
        }
      ],
      "name": "withdrawEth",
      "outputs": [
        {
          "internalType": "bool",
          "name": "",
          "type": "bool"
        }
      ],
      "stateMutability": "payable",
      "type": "function"
    },
    {
      "inputs": [
        {
          "internalType": "bytes32",
          "name": "_symbol",
          "type": "bytes32"
        },
        {
          "internalType": "enum Dex.OrderType",
          "name": "_orderType",
          "type": "uint8"
        }
      ],
      "name": "getOrderBook",
      "outputs": [
        {
          "components": [
            {
              "internalType": "uint256",
              "name": "id",
              "type": "uint256"
            },
            {
              "internalType": "address",
              "name": "trader",
              "type": "address"
            },
            {
              "internalType": "enum Dex.OrderType",
              "name": "orderType",
              "type": "uint8"
            },
            {
              "internalType": "bytes32",
              "name": "symbol",
              "type": "bytes32"
            },
            {
              "internalType": "uint256",
              "name": "amount",
              "type": "uint256"
            },
            {
              "internalType": "uint256",
              "name": "price",
              "type": "uint256"
            },
            {
              "internalType": "uint256",
              "name": "filled",
              "type": "uint256"
            }
          ],
          "internalType": "struct Dex.Order[]",
          "name": "",
          "type": "tuple[]"
        }
      ],
      "stateMutability": "view",
      "type": "function"
    },
    {
      "inputs": [
        {
          "internalType": "uint256",
          "name": "_orderId",
          "type": "uint256"
        },
        {
          "internalType": "bytes32",
          "name": "_symbol",
          "type": "bytes32"
        },
        {
          "internalType": "enum Dex.OrderType",
          "name": "_orderType",
          "type": "uint8"
        }
      ],
      "name": "deleteOrder",
      "outputs": [],
      "stateMutability": "nonpayable",
      "type": "function"
    },
    {
      "inputs": [
        {
          "internalType": "enum Dex.OrderType",
          "name": "_orderType",
          "type": "uint8"
        },
        {
          "internalType": "bytes32",
          "name": "_symbol",
          "type": "bytes32"
        },
        {
          "internalType": "uint256",
          "name": "_amount",
          "type": "uint256"
        },
        {
          "internalType": "uint256",
          "name": "_price",
          "type": "uint256"
        }
      ],
      "name": "createLimitOrder",
      "outputs": [],
      "stateMutability": "nonpayable",
      "type": "function"
    },
    {
      "inputs": [
        {
          "internalType": "enum Dex.OrderType",
          "name": "_orderType",
          "type": "uint8"
        },
        {
          "internalType": "bytes32",
          "name": "_symbol",
          "type": "bytes32"
        },
        {
          "internalType": "uint256",
          "name": "_amount",
          "type": "uint256"
        }
      ],
      "name": "createMarketOrder",
      "outputs": [],
      "stateMutability": "nonpayable",
      "type": "function"
    }
  ],
  "bytecode": "0x6080604052600060035560006005553480156200001b57600080fd5b50620000306200002a62000079565b6200007d565b60408051808201909152600c81526b6574682d657468657265756d60a01b6020820152620000739067457468657265756d60c01b6208aa8960eb1b6000620000cd565b62000354565b3390565b600080546001600160a01b038381166001600160a01b0319831681178455604051919092169283917f8be0079c531659141344cd1fd0a4f28419497f9722a3daafe3b4186f6b6457e09190a35050565b620000d7620001b4565b6040805160808101825285815260208082018690528183018590526001600160a01b038416606083015260008581526001825292909220815180519293919262000125928492019062000214565b5060208201516001828101919091556040830151600280840191909155606090930151600392830180546001600160a01b0319166001600160a01b039092169190911790558254908101835560009283527f405787fa12a823e0f2b7631cc41b3ba8828b3321ca811111fa75cd3aa3bb5ace01849055805491620001a9836200032c565b919050555050505050565b620001be62000079565b6001600160a01b0316620001d162000205565b6001600160a01b031614620002035760405162461bcd60e51b8152600401620001fa90620002ba565b60405180910390fd5b565b6000546001600160a01b031690565b8280546200022290620002ef565b90600052602060002090601f01602090048101928262000246576000855562000291565b82601f106200026157805160ff191683800117855562000291565b8280016001018555821562000291579182015b828111156200029157825182559160200191906001019062000274565b506200029f929150620002a3565b5090565b5b808211156200029f5760008155600101620002a4565b6020808252818101527f4f776e61626c653a2063616c6c6572206973206e6f7420746865206f776e6572604082015260600190565b6002810460018216806200030457607f821691505b602082108114156200032657634e487b7160e01b600052602260045260246000fd5b50919050565b60006000198214156200034d57634e487b7160e01b81526011600452602481fd5b5060010190565b61294080620003646000396000f3fe6080604052600436106101145760003560e01c806399ec2f1c116100a0578063c311d04911610064578063c311d049146102ea578063c9630cb01461030a578063d15e2efe1461032a578063f2fde38b1461034a578063fae1cbce1461036a57610114565b806399ec2f1c146102485780639ead722214610268578063a43ad7e714610288578063a8d2021a1461029d578063ba58ea68146102bd57610114565b8063439370b1116100e7578063439370b1146101b95780636f3b62f9146101c1578063715018a6146101e15780638da5cb5b146101f6578063904194a31461021857610114565b80630bb431b6146101195780631f14df69146101555780632a58b3301461018257806336bb452614610197575b600080fd5b34801561012557600080fd5b506101396101343660046123ae565b61038a565b60405161014c97969594939291906127dc565b60405180910390f35b34801561016157600080fd5b50610175610170366004612301565b610400565b60405161014c919061265c565b34801561018e57600080fd5b5061017561041d565b3480156101a357600080fd5b506101b76101b236600461238d565b610423565b005b6101b761051f565b3480156101cd57600080fd5b506101b76101dc36600461240b565b61059d565b3480156101ed57600080fd5b506101b7610ef3565b34801561020257600080fd5b5061020b610f07565b60405161014c919061256c565b34801561022457600080fd5b5061023861023336600461234a565b610f16565b60405161014c9493929190612665565b34801561025457600080fd5b506101b76102633660046123d9565b610fd1565b34801561027457600080fd5b5061017561028336600461234a565b611a0a565b34801561029457600080fd5b50610175611a2b565b3480156102a957600080fd5b506101b76102b836600461238d565b611a31565b3480156102c957600080fd5b506102dd6102d8366004612362565b611bcc565b60405161014c91906125bd565b6102fd6102f836600461234a565b611d01565b60405161014c9190612651565b34801561031657600080fd5b506101b761032536600461238d565b611e1e565b34801561033657600080fd5b506101b7610345366004612506565b611f75565b34801561035657600080fd5b506101b76103653660046122e7565b612013565b34801561037657600080fd5b506101b7610385366004612443565b61204d565b600660205282600052604060002060205281600052604060002081815481106103b257600080fd5b60009182526020909120600690910201805460018201546002830154600384015460048501546005909501549397506001600160a01b0383169650600160a01b90920460ff16945092909187565b600460209081526000928352604080842090915290825290205481565b60055481565b61042b61212e565b60008281526001602052604081209061044482826121ec565b5060006001828101829055600280840192909255600390920180546001600160a01b0319169055805490916104789161285a565b8154811061049657634e487b7160e01b600052603260045260246000fd5b9060005260206000200154600282815481106104c257634e487b7160e01b600052603260045260246000fd5b60009182526020909120015560028054806104ed57634e487b7160e01b600052603160045260246000fd5b600190038181906000526020600020016000905590556003600081548092919061051690612871565b91905055505050565b610562346004600061052f61216d565b6001600160a01b03168152602080820192909252604090810160009081206208aa8960eb1b825290925290205490612171565b6004600061056e61216d565b6001600160a01b03168152602080820192909252604090810160009081206208aa8960eb1b8252909252902055565b60008460018111156105bf57634e487b7160e01b600052602160045260246000fd5b1415610623576105cf8282612184565b600460006105db61216d565b6001600160a01b03166001600160a01b0316815260200190815260200160002060006208aa8960eb1b815260200190815260200160002054101561061e57600080fd5b610695565b600184600181111561064557634e487b7160e01b600052602160045260246000fd5b141561069557816004600061065861216d565b6001600160a01b03166001600160a01b03168152602001908152602001600020600085815260200190815260200160002054101561069557600080fd5b6000838152600660205260408120818660018111156106c457634e487b7160e01b600052602160045260246000fd5b81526020019081526020016000209050806040518060e0016040528060055481526020016106f061216d565b6001600160a01b0316815260200187600181111561071e57634e487b7160e01b600052602160045260246000fd5b81526020808201889052604080830188905260608301879052600060809093018390528454600180820187559584529282902084516006909402019283559083015182850180546001600160a01b0319166001600160a01b0390921691909117808255918401519394929392909160ff60a01b191690600160a01b9084908111156107b957634e487b7160e01b600052602160045260246000fd5b0217905550606082015160028201556080820151600382015560a0820151600482015560c090910151600590910155805415610edb57600085600181111561081157634e487b7160e01b600052602160045260246000fd5b1415610b675780546000906108289060019061285a565b90505b8015610b615781818154811061085157634e487b7160e01b600052603260045260246000fd5b90600052602060002090600602016004015482600183610871919061285a565b8154811061088f57634e487b7160e01b600052603260045260246000fd5b9060005260206000209060060201600401541115610b4f576000826108b560018461285a565b815481106108d357634e487b7160e01b600052603260045260246000fd5b60009182526020918290206040805160e081018252600693909302909101805483526001808201546001600160a01b038116958501959095529293909291840191600160a01b90910460ff169081111561093d57634e487b7160e01b600052602160045260246000fd5b600181111561095c57634e487b7160e01b600052602160045260246000fd5b815260200160028201548152602001600382015481526020016004820154815260200160058201548152505090508282815481106109aa57634e487b7160e01b600052603260045260246000fd5b9060005260206000209060060201836001846109c6919061285a565b815481106109e457634e487b7160e01b600052603260045260246000fd5b6000918252602090912082546006909202019081556001808301805482840180546001600160a01b0319166001600160a01b0390921691909117808255915460ff600160a01b918290041693919260ff60a01b1916918490811115610a5957634e487b7160e01b600052602160045260246000fd5b02179055506002820154816002015560038201548160030155600482015481600401556005820154816005015590505080838381548110610aaa57634e487b7160e01b600052603260045260246000fd5b600091825260209182902083516006929092020190815590820151600180830180546001600160a01b0319166001600160a01b03909316929092178083556040850151929160ff60a01b1990911690600160a01b908490811115610b1e57634e487b7160e01b600052602160045260246000fd5b0217905550606082015160028201556080820151600382015560a0820151600482015560c090910151600590910155505b80610b5981612871565b91505061082b565b50610edb565b6001856001811115610b8957634e487b7160e01b600052602160045260246000fd5b1415610edb578054600090610ba09060019061285a565b90505b8015610ed957818181548110610bc957634e487b7160e01b600052603260045260246000fd5b90600052602060002090600602016004015482600183610be9919061285a565b81548110610c0757634e487b7160e01b600052603260045260246000fd5b9060005260206000209060060201600401541015610ec757600082610c2d60018461285a565b81548110610c4b57634e487b7160e01b600052603260045260246000fd5b60009182526020918290206040805160e081018252600693909302909101805483526001808201546001600160a01b038116958501959095529293909291840191600160a01b90910460ff1690811115610cb557634e487b7160e01b600052602160045260246000fd5b6001811115610cd457634e487b7160e01b600052602160045260246000fd5b81526020016002820154815260200160038201548152602001600482015481526020016005820154815250509050828281548110610d2257634e487b7160e01b600052603260045260246000fd5b906000526020600020906006020183600184610d3e919061285a565b81548110610d5c57634e487b7160e01b600052603260045260246000fd5b6000918252602090912082546006909202019081556001808301805482840180546001600160a01b0319166001600160a01b0390921691909117808255915460ff600160a01b918290041693919260ff60a01b1916918490811115610dd157634e487b7160e01b600052602160045260246000fd5b02179055506002820154816002015560038201548160030155600482015481600401556005820154816005015590505080838381548110610e2257634e487b7160e01b600052603260045260246000fd5b600091825260209182902083516006929092020190815590820151600180830180546001600160a01b0319166001600160a01b03909316929092178083556040850151929160ff60a01b1990911690600160a01b908490811115610e9657634e487b7160e01b600052602160045260246000fd5b0217905550606082015160028201556080820151600382015560a0820151600482015560c090910151600590910155505b80610ed181612871565b915050610ba3565b505b600554610ee9906001612171565b6005555050505050565b610efb61212e565b610f056000612190565b565b6000546001600160a01b031690565b600160205260009081526040902080548190610f3190612888565b80601f0160208091040260200160405190810160405280929190818152602001828054610f5d90612888565b8015610faa5780601f10610f7f57610100808354040283529160200191610faa565b820191906000526020600020905b815481529060010190602001808311610f8d57829003601f168201915b5050505060018301546002840154600390940154929390929091506001600160a01b031684565b6001836001811115610ff357634e487b7160e01b600052602160045260246000fd5b141561105f57806004600061100661216d565b6001600160a01b03166001600160a01b03168152602001908152602001600020600084815260200190815260200160002054101561105f5760405162461bcd60e51b81526004016110569061271c565b60405180910390fd5b60008084600181111561108257634e487b7160e01b600052602160045260246000fd5b141561109057506001611094565b5060005b6000838152600660209081526040808320848452909152812090805b8254811080156110bf57508482105b156117fc5760006110d086846121e0565b905060006111498584815481106110f757634e487b7160e01b600052603260045260246000fd5b90600052602060002090600602016005015486858154811061112957634e487b7160e01b600052603260045260246000fd5b9060005260206000209060060201600301546121e090919063ffffffff16565b905060008282111561115c57508161115f565b50805b6111698582612171565b94506111af8187868154811061118f57634e487b7160e01b600052603260045260246000fd5b90600052602060002090600602016005015461217190919063ffffffff16565b8685815481106111cf57634e487b7160e01b600052603260045260246000fd5b906000526020600020906006020160050181905550600061122a87868154811061120957634e487b7160e01b600052603260045260246000fd5b9060005260206000209060060201600401548361218490919063ffffffff16565b905060008b600181111561124e57634e487b7160e01b600052602160045260246000fd5b141561154c57806004600061126161216d565b6001600160a01b03166001600160a01b0316815260200190815260200160002060006208aa8960eb1b81526020019081526020016000205410156112a457600080fd5b6112e182600460006112b461216d565b6001600160a01b03168152602080820192909252604090810160009081208f825290925290205490612171565b600460006112ed61216d565b6001600160a01b03166001600160a01b0316815260200190815260200160002060008c815260200190815260200160002081905550611365816004600061133261216d565b6001600160a01b03168152602080820192909252604090810160009081206208aa8960eb1b8252909252902054906121e0565b6004600061137161216d565b6001600160a01b03166001600160a01b0316815260200190815260200160002060006208aa8960eb1b81526020019081526020016000208190555061141382600460008a89815481106113d457634e487b7160e01b600052603260045260246000fd5b60009182526020808320600160069093020191909101546001600160a01b0316835282810193909352604091820181208f8252909252902054906121e0565b6004600089888154811061143757634e487b7160e01b600052603260045260246000fd5b60009182526020808320600160069093020191909101546001600160a01b0316835282810193909352604091820181208e825290925281209190915587546114e4918391600491908b908a90811061149f57634e487b7160e01b600052603260045260246000fd5b60009182526020808320600160069093020191909101546001600160a01b0316835282810193909352604091820181206208aa8960eb1b825290925290205490612171565b6004600089888154811061150857634e487b7160e01b600052603260045260246000fd5b60009182526020808320600160069093020191909101546001600160a01b0316835282810193909352604091820181206208aa8960eb1b82529092529020556117e5565b60018b600181111561156e57634e487b7160e01b600052602160045260246000fd5b14156117e5576115b1826004600061158461216d565b6001600160a01b03168152602080820192909252604090810160009081208f8252909252902054906121e0565b600460006115bd61216d565b6001600160a01b03166001600160a01b0316815260200190815260200160002060008c815260200190815260200160002081905550611602816004600061052f61216d565b6004600061160e61216d565b6001600160a01b03166001600160a01b0316815260200190815260200160002060006208aa8960eb1b8152602001908152602001600020819055506116b082600460008a898154811061167157634e487b7160e01b600052603260045260246000fd5b60009182526020808320600160069093020191909101546001600160a01b0316835282810193909352604091820181208f825290925290205490612171565b600460008988815481106116d457634e487b7160e01b600052603260045260246000fd5b60009182526020808320600160069093020191909101546001600160a01b0316835282810193909352604091820181208e82529092528120919091558754611781918391600491908b908a90811061173c57634e487b7160e01b600052603260045260246000fd5b60009182526020808320600160069093020191909101546001600160a01b0316835282810193909352604091820181206208aa8960eb1b8252909252902054906121e0565b600460008988815481106117a557634e487b7160e01b600052603260045260246000fd5b60009182526020808320600160069093020191909101546001600160a01b0316835282810193909352604091820181206208aa8960eb1b82529092529020555b5050505080806117f4906128c3565b9150506110b0565b505b81541580159061187157508160008154811061182a57634e487b7160e01b600052603260045260246000fd5b9060005260206000209060060201600301548260008154811061185d57634e487b7160e01b600052603260045260246000fd5b906000526020600020906006020160050154145b15611a025760005b82546118879060019061285a565b811015611999578261189a826001612823565b815481106118b857634e487b7160e01b600052603260045260246000fd5b90600052602060002090600602018382815481106118e657634e487b7160e01b600052603260045260246000fd5b6000918252602090912082546006909202019081556001808301805482840180546001600160a01b0319166001600160a01b0390921691909117808255915460ff600160a01b918290041693919260ff60a01b191691849081111561195b57634e487b7160e01b600052602160045260246000fd5b021790555060028281015490820155600380830154908201556004808301549082015560059182015491015580611991816128c3565b915050611879565b50818054806119b857634e487b7160e01b600052603160045260246000fd5b6000828152602081206006600019909301928302018181556001810180546001600160a81b03191690556002810182905560038101829055600481018290556005015590556117fe565b505050505050565b60028181548110611a1a57600080fd5b600091825260209091200154905081565b60035481565b60008181526001602052604090206003015481906001600160a01b0316611a6a5760405162461bcd60e51b81526004016110569061274a565b8260046000611a7761216d565b6001600160a01b03166001600160a01b031681526020019081526020016000206000848152602001908152602001600020541015611ac75760405162461bcd60e51b815260040161105690612778565b611b048360046000611ad761216d565b6001600160a01b0316815260208082019290925260409081016000908120878252909252902054906121e0565b60046000611b1061216d565b6001600160a01b039081168252602080830193909352604091820160009081208782528452828120949094556001909252909120600301541663a9059cbb611b5661216d565b856040518363ffffffff1660e01b8152600401611b749291906125a4565b602060405180830381600087803b158015611b8e57600080fd5b505af1158015611ba2573d6000803e3d6000fd5b505050506040513d601f19601f82011682018060405250810190611bc6919061232a565b50505050565b6000828152600660205260408120606091836001811115611bfd57634e487b7160e01b600052602160045260246000fd5b8152602001908152602001600020805480602002602001604051908101604052809291908181526020016000905b82821015611cf55760008481526020908190206040805160e08101825260068602909201805483526001808201546001600160a01b038116958501959095529293909291840191600160a01b90910460ff1690811115611c9b57634e487b7160e01b600052602160045260246000fd5b6001811115611cba57634e487b7160e01b600052602160045260246000fd5b815260200160028201548152602001600382015481526020016004820154815260200160058201548152505081526020019060010190611c2b565b50505050905092915050565b60008160046000611d1061216d565b6001600160a01b03166001600160a01b0316815260200190815260200160002060006208aa8960eb1b8152602001908152602001600020541015611d665760405162461bcd60e51b81526004016110569061271c565b611d76826004600061133261216d565b60046000611d8261216d565b6001600160a01b03168152602080820192909252604090810160009081206208aa8960eb1b8252909252812091909155611dba61216d565b6001600160a01b031683604051611dd090612569565b60006040518083038185875af1925050503d8060008114611e0d576040519150601f19603f3d011682016040523d82523d6000602084013e611e12565b606091505b5090925050505b919050565b60008181526001602052604090206003015481906001600160a01b0316611e575760405162461bcd60e51b81526004016110569061274a565b6000828152600160205260409020600301546001600160a01b03166323b872dd611e7f61216d565b30866040518463ffffffff1660e01b8152600401611e9f93929190612580565b602060405180830381600087803b158015611eb957600080fd5b505af1158015611ecd573d6000803e3d6000fd5b505050506040513d601f19601f82011682018060405250810190611ef1919061232a565b50611f2f8360046000611f0261216d565b6001600160a01b031681526020808201929092526040908101600090812087825290925290205490612171565b60046000611f3b61216d565b6001600160a01b03166001600160a01b03168152602001908152602001600020600084815260200190815260200160002081905550505050565b600082815260066020526040812090826001811115611fa457634e487b7160e01b600052602160045260246000fd5b81526020019081526020016000208381548110611fd157634e487b7160e01b600052603260045260246000fd5b6000918252602082206006909102018181556001810180546001600160a81b031916905560028101829055600381018290556004810182905560050155505050565b61201b61212e565b6001600160a01b0381166120415760405162461bcd60e51b8152600401611056906126d6565b61204a81612190565b50565b61205561212e565b6040805160808101825285815260208082018690528183018590526001600160a01b03841660608301526000858152600182529290922081518051929391926120a19284920190612228565b5060208201516001828101919091556040830151600280840191909155606090930151600392830180546001600160a01b0319166001600160a01b039092169190911790558254908101835560009283527f405787fa12a823e0f2b7631cc41b3ba8828b3321ca811111fa75cd3aa3bb5ace01849055805491612123836128c3565b919050555050505050565b61213661216d565b6001600160a01b0316612147610f07565b6001600160a01b031614610f055760405162461bcd60e51b8152600401611056906127a7565b3390565b600061217d8284612823565b9392505050565b600061217d828461283b565b600080546001600160a01b038381166001600160a01b0319831681178455604051919092169283917f8be0079c531659141344cd1fd0a4f28419497f9722a3daafe3b4186f6b6457e09190a35050565b600061217d828461285a565b5080546121f890612888565b6000825580601f1061220a575061204a565b601f01602090049060005260206000209081019061204a91906122ac565b82805461223490612888565b90600052602060002090601f016020900481019282612256576000855561229c565b82601f1061226f57805160ff191683800117855561229c565b8280016001018555821561229c579182015b8281111561229c578251825591602001919060010190612281565b506122a89291506122ac565b5090565b5b808211156122a857600081556001016122ad565b80356001600160a01b0381168114611e1957600080fd5b803560028110611e1957600080fd5b6000602082840312156122f8578081fd5b61217d826122c1565b60008060408385031215612313578081fd5b61231c836122c1565b946020939093013593505050565b60006020828403121561233b578081fd5b8151801515811461217d578182fd5b60006020828403121561235b578081fd5b5035919050565b60008060408385031215612374578182fd5b82359150612384602084016122d8565b90509250929050565b6000806040838503121561239f578182fd5b50508035926020909101359150565b6000806000606084860312156123c2578081fd5b505081359360208301359350604090920135919050565b6000806000606084860312156123ed578283fd5b6123f6846122d8565b95602085013595506040909401359392505050565b60008060008060808587031215612420578081fd5b612429856122d8565b966020860135965060408601359560600135945092505050565b60008060008060808587031215612458578384fd5b843567ffffffffffffffff8082111561246f578586fd5b818701915087601f830112612482578586fd5b8135602082821115612496576124966128f4565b604051601f8301601f19168101820184811182821017156124b9576124b96128f4565b60405282815284830182018b10156124cf578889fd5b82828601838301379182018101979097529587013594505050604085013591506124fb606086016122c1565b905092959194509250565b60008060006060848603121561251a578283fd5b8335925060208401359150612531604085016122d8565b90509250925092565b6001600160a01b03169052565b6002811061256557634e487b7160e01b600052602160045260246000fd5b9052565b90565b6001600160a01b0391909116815260200190565b6001600160a01b039384168152919092166020820152604081019190915260600190565b6001600160a01b03929092168252602082015260400190565b602080825282518282018190526000919060409081850190868401855b8281101561264457815180518552868101516001600160a01b0316878601528581015161260987870182612547565b50606081810151908601526080808201519086015260a0808201519086015260c0908101519085015260e090930192908501906001016125da565b5091979650505050505050565b901515815260200190565b90815260200190565b6000608082528551806080840152815b8181101561269257602081890181015160a0868401015201612675565b818111156126a3578260a083860101525b506020830186905260408301859052601f01601f1916820160a00190506126cd606083018461253a565b95945050505050565b60208082526026908201527f4f776e61626c653a206e6577206f776e657220697320746865207a65726f206160408201526564647265737360d01b606082015260800190565b602080825260149082015273496e73756666696369656e742062616c616e636560601b604082015260600190565b602080825260149082015273151bdad95b88191bd95cc81b9bdd08195e1a5cdd60621b604082015260600190565b60208082526015908201527424b739bab33334b1b4b2b73a103130b630b731b29760591b604082015260600190565b6020808252818101527f4f776e61626c653a2063616c6c6572206973206e6f7420746865206f776e6572604082015260600190565b8781526001600160a01b038716602082015260e081016127ff6040830188612547565b8560608301528460808301528360a08301528260c083015298975050505050505050565b60008219821115612836576128366128de565b500190565b6000816000190483118215151615612855576128556128de565b500290565b60008282101561286c5761286c6128de565b500390565b600081612880576128806128de565b506000190190565b60028104600182168061289c57607f821691505b602082108114156128bd57634e487b7160e01b600052602260045260246000fd5b50919050565b60006000198214156128d7576128d76128de565b5060010190565b634e487b7160e01b600052601160045260246000fd5b634e487b7160e01b600052604160045260246000fdfea2646970667358221220136c5e5009f9341e9898ef0bec53307a3b9637ac41ff547105fb98e0b74f36a664736f6c63430008000033",
  "immutableReferences": {},
  "source": "// SPDX-License-Identifier: UNLICENSED\n\npragma solidity 0.8.0;\npragma experimental ABIEncoderV2;\n\nimport \"./Wallet.sol\";\n\ncontract Dex is Wallet {\n\n    using SafeMath for uint256;\n\n    enum OrderType {\n        BUY,\n        SELL\n    }\n    \n    struct Order {\n        uint256 id;\n        address trader;\n        OrderType orderType;\n        bytes32 symbol;\n        uint256 amount;\n        uint256 price;\n        uint256 filled;\n    }\n\n    // address payable constant FEE_ADDRESS = payable(0x7eaAFED0E594a1ac12f50d59847eBB784c66c45E);\n\n    uint public nextOrderId = 0;\n\n    mapping (bytes32 => mapping (uint => Order[])) public orderBook;\n\n    function getOrderBook(bytes32 _symbol, OrderType _orderType) view public returns (Order[] memory) {\n        return orderBook[_symbol][uint(_orderType)];\n    }\n\n    function deleteOrder(uint256 _orderId, bytes32 _symbol, OrderType _orderType) public {\n        delete orderBook[_symbol][uint(_orderType)][_orderId];\n    }\n\n    function createLimitOrder(OrderType _orderType,  bytes32 _symbol, uint256 _amount, uint256 _price) public {\n        if (_orderType == OrderType.BUY) {\n            require(balances[_msgSender()][\"ETH\"] >= _amount.mul(_price));\n        } else if (_orderType == OrderType.SELL) {\n            require(balances[_msgSender()][_symbol] >= _amount);\n        }\n\n        Order[] storage orders = orderBook[_symbol][uint(_orderType)];\n\n        orders.push(\n            Order(nextOrderId, _msgSender(), _orderType, _symbol, _amount, _price, 0)\n        );\n\n        // Bubble sort\n        if (orders.length > 0) {\n            if (_orderType == OrderType.BUY) {\n                for (uint256 i=orders.length-1; i>0; i--) {\n                    if (orders[i-1].price > orders[i].price) {\n                        Order memory orderToMove = orders[i-1];\n                        orders[i-1] = orders[i];\n                        orders[i] = orderToMove;\n                    }\n                }\n            } else if (_orderType == OrderType.SELL) {\n                for (uint256 i=orders.length-1; i>0; i--) {\n                    if (orders[i-1].price < orders[i].price) {\n                        Order memory orderToMove = orders[i-1];\n                        orders[i-1] = orders[i];\n                        orders[i] = orderToMove;\n                    }\n                }\n            }\n        }\n\n\n\n        nextOrderId = nextOrderId.add(1);\n    }\n\n    function createMarketOrder(OrderType _orderType,  bytes32 _symbol, uint256 _amount) public {\n        if (_orderType == OrderType.SELL) {\n            require(balances[_msgSender()][_symbol] >= _amount, \"Insufficient balance\");\n        }\n\n        uint negateOrderType;\n        if (_orderType == OrderType.BUY) {\n            negateOrderType = 1;\n        } else {\n            negateOrderType = 0;\n        }\n\n        Order[] storage orders = orderBook[_symbol][uint(negateOrderType)];\n\n        uint orderFilled;\n        for (uint256 i = 0; i < orders.length && orderFilled < _amount; i++) {\n            uint leftToFill = _amount.sub(orderFilled);\n            uint availableToFill = orders[i].amount.sub(orders[i].filled);\n            uint filled = 0;\n\n            if(availableToFill > leftToFill) {\n                filled = leftToFill;\n            } else {\n                filled = availableToFill;\n            }\n\n            orderFilled = orderFilled.add(filled);\n            orders[i].filled = orders[i].filled.add(filled);\n            uint cost = filled.mul(orders[i].price);\n\n            if (_orderType == OrderType.BUY) {\n                require(balances[_msgSender()][ETH] >= cost);\n                balances[_msgSender()][_symbol] = balances[_msgSender()][_symbol].add(filled);\n                balances[_msgSender()][ETH] = balances[_msgSender()][ETH].sub(cost);\n\n                balances[orders[i].trader][_symbol] = balances[orders[i].trader][_symbol].sub(filled);\n                balances[orders[i].trader][ETH] = balances[orders[i].trader][ETH].add(cost);\n\n                // _transfer(FEE_ADDRESS, _amount);\n            } else if (_orderType == OrderType.SELL) {\n                balances[_msgSender()][_symbol] = balances[_msgSender()][_symbol].sub(filled);\n                balances[_msgSender()][ETH] = balances[_msgSender()][ETH].add(cost);\n\n                balances[orders[i].trader][_symbol] = balances[orders[i].trader][_symbol].add(filled);\n                balances[orders[i].trader][ETH] = balances[orders[i].trader][ETH].sub(cost);\n\n                // _transfer(FEE_ADDRESS, _amount);\n            }\n        }\n\n        while(orders.length > 0 && orders[0].filled == orders[0].amount) {\n            for (uint256 i = 0; i < orders.length -1; i++) {\n                orders[i] = orders[i+1];\n            }\n            orders.pop();\n        }\n    }\n\n    function _transfer(address payable recipient, uint amount) private returns(bool) {\n        (bool success,) = recipient.call{value: amount}(\"\");\n        return success;\n    }\n}",
  "sourcePath": "/Users/shaunlindsley/Desktop/coding/moralis-academy-courses/dex/contracts/Dex.sol",
  "compiler": {
    "name": "solc",
    "version": "0.8.0+commit.c7dfd78e.Emscripten.clang"
  },
  "schemaVersion": "3.4.14",
  "updatedAt": "2023-08-05T18:02:49.124Z",
  "devdoc": {
    "kind": "dev",
    "methods": {
      "addToken(string,bytes32,bytes32,address)": {
        "details": "Add a token into the tokens mapping"
      },
      "deposit(uint256,bytes32)": {
        "details": "Deposit tokens to your account"
      },
      "depositEth()": {
        "details": "Deposit ETH into your account"
      },
      "owner()": {
        "details": "Returns the address of the current owner."
      },
      "renounceOwnership()": {
        "details": "Leaves the contract without owner. It will not be possible to call `onlyOwner` functions. Can only be called by the current owner. NOTE: Renouncing ownership will leave the contract without an owner, thereby disabling any functionality that is only available to the owner."
      },
      "transferOwnership(address)": {
        "details": "Transfers ownership of the contract to a new account (`newOwner`). Can only be called by the current owner."
      },
      "withdraw(uint256,bytes32)": {
        "details": "Withdraw tokens from your account"
      }
    },
    "version": 1
  },
  "userdoc": {
    "kind": "user",
    "methods": {},
    "version": 1
  }
}