{
  "contractName": "Dex",
  "abi": [
    {
      "anonymous": false,
      "inputs": [
        {
          "indexed": true,
          "internalType": "address",
          "name": "previousOwner",
          "type": "address"
        },
        {
          "indexed": true,
          "internalType": "address",
          "name": "newOwner",
          "type": "address"
        }
      ],
      "name": "OwnershipTransferred",
      "type": "event"
    },
    {
      "inputs": [
        {
          "internalType": "bytes32",
          "name": "_name",
          "type": "bytes32"
        },
        {
          "internalType": "bytes32",
          "name": "_ticker",
          "type": "bytes32"
        },
        {
          "internalType": "address",
          "name": "_tokenAddress",
          "type": "address"
        }
      ],
      "name": "addToken",
      "outputs": [],
      "stateMutability": "nonpayable",
      "type": "function"
    },
    {
      "inputs": [
        {
          "internalType": "address",
          "name": "",
          "type": "address"
        },
        {
          "internalType": "bytes32",
          "name": "",
          "type": "bytes32"
        }
      ],
      "name": "balances",
      "outputs": [
        {
          "internalType": "uint256",
          "name": "",
          "type": "uint256"
        }
      ],
      "stateMutability": "view",
      "type": "function",
      "constant": true
    },
    {
      "inputs": [
        {
          "internalType": "uint256",
          "name": "_amount",
          "type": "uint256"
        },
        {
          "internalType": "bytes32",
          "name": "_ticker",
          "type": "bytes32"
        }
      ],
      "name": "deposit",
      "outputs": [],
      "stateMutability": "nonpayable",
      "type": "function"
    },
    {
      "inputs": [],
      "name": "depositEth",
      "outputs": [],
      "stateMutability": "payable",
      "type": "function",
      "payable": true
    },
    {
      "inputs": [],
      "name": "nextOrderId",
      "outputs": [
        {
          "internalType": "uint256",
          "name": "",
          "type": "uint256"
        }
      ],
      "stateMutability": "view",
      "type": "function",
      "constant": true
    },
    {
      "inputs": [
        {
          "internalType": "bytes32",
          "name": "",
          "type": "bytes32"
        },
        {
          "internalType": "uint256",
          "name": "",
          "type": "uint256"
        },
        {
          "internalType": "uint256",
          "name": "",
          "type": "uint256"
        }
      ],
      "name": "orderBook",
      "outputs": [
        {
          "internalType": "uint256",
          "name": "id",
          "type": "uint256"
        },
        {
          "internalType": "address",
          "name": "trader",
          "type": "address"
        },
        {
          "internalType": "enum Dex.OrderType",
          "name": "orderType",
          "type": "uint8"
        },
        {
          "internalType": "bytes32",
          "name": "symbol",
          "type": "bytes32"
        },
        {
          "internalType": "uint256",
          "name": "amount",
          "type": "uint256"
        },
        {
          "internalType": "uint256",
          "name": "price",
          "type": "uint256"
        },
        {
          "internalType": "uint256",
          "name": "filled",
          "type": "uint256"
        }
      ],
      "stateMutability": "view",
      "type": "function",
      "constant": true
    },
    {
      "inputs": [],
      "name": "owner",
      "outputs": [
        {
          "internalType": "address",
          "name": "",
          "type": "address"
        }
      ],
      "stateMutability": "view",
      "type": "function",
      "constant": true
    },
    {
      "inputs": [],
      "name": "renounceOwnership",
      "outputs": [],
      "stateMutability": "nonpayable",
      "type": "function"
    },
    {
      "inputs": [
        {
          "internalType": "uint256",
          "name": "",
          "type": "uint256"
        }
      ],
      "name": "tokenList",
      "outputs": [
        {
          "internalType": "bytes32",
          "name": "",
          "type": "bytes32"
        }
      ],
      "stateMutability": "view",
      "type": "function",
      "constant": true
    },
    {
      "inputs": [],
      "name": "tokenListCount",
      "outputs": [
        {
          "internalType": "uint256",
          "name": "",
          "type": "uint256"
        }
      ],
      "stateMutability": "view",
      "type": "function",
      "constant": true
    },
    {
      "inputs": [
        {
          "internalType": "bytes32",
          "name": "",
          "type": "bytes32"
        }
      ],
      "name": "tokens",
      "outputs": [
        {
          "internalType": "bytes32",
          "name": "name",
          "type": "bytes32"
        },
        {
          "internalType": "bytes32",
          "name": "ticker",
          "type": "bytes32"
        },
        {
          "internalType": "address",
          "name": "tokenAddress",
          "type": "address"
        }
      ],
      "stateMutability": "view",
      "type": "function",
      "constant": true
    },
    {
      "inputs": [
        {
          "internalType": "address",
          "name": "newOwner",
          "type": "address"
        }
      ],
      "name": "transferOwnership",
      "outputs": [],
      "stateMutability": "nonpayable",
      "type": "function"
    },
    {
      "inputs": [
        {
          "internalType": "uint256",
          "name": "_amount",
          "type": "uint256"
        },
        {
          "internalType": "bytes32",
          "name": "_ticker",
          "type": "bytes32"
        }
      ],
      "name": "withdraw",
      "outputs": [],
      "stateMutability": "nonpayable",
      "type": "function"
    },
    {
      "inputs": [
        {
          "internalType": "uint256",
          "name": "_amount",
          "type": "uint256"
        }
      ],
      "name": "withdrawEth",
      "outputs": [
        {
          "internalType": "bool",
          "name": "",
          "type": "bool"
        }
      ],
      "stateMutability": "payable",
      "type": "function",
      "payable": true
    },
    {
      "inputs": [
        {
          "internalType": "bytes32",
          "name": "_symbol",
          "type": "bytes32"
        },
        {
          "internalType": "enum Dex.OrderType",
          "name": "_orderType",
          "type": "uint8"
        }
      ],
      "name": "getOrderBook",
      "outputs": [
        {
          "components": [
            {
              "internalType": "uint256",
              "name": "id",
              "type": "uint256"
            },
            {
              "internalType": "address",
              "name": "trader",
              "type": "address"
            },
            {
              "internalType": "enum Dex.OrderType",
              "name": "orderType",
              "type": "uint8"
            },
            {
              "internalType": "bytes32",
              "name": "symbol",
              "type": "bytes32"
            },
            {
              "internalType": "uint256",
              "name": "amount",
              "type": "uint256"
            },
            {
              "internalType": "uint256",
              "name": "price",
              "type": "uint256"
            },
            {
              "internalType": "uint256",
              "name": "filled",
              "type": "uint256"
            }
          ],
          "internalType": "struct Dex.Order[]",
          "name": "",
          "type": "tuple[]"
        }
      ],
      "stateMutability": "view",
      "type": "function",
      "constant": true
    },
    {
      "inputs": [
        {
          "internalType": "enum Dex.OrderType",
          "name": "_orderType",
          "type": "uint8"
        },
        {
          "internalType": "bytes32",
          "name": "_symbol",
          "type": "bytes32"
        },
        {
          "internalType": "uint256",
          "name": "_amount",
          "type": "uint256"
        },
        {
          "internalType": "uint256",
          "name": "_price",
          "type": "uint256"
        }
      ],
      "name": "createLimitOrder",
      "outputs": [],
      "stateMutability": "nonpayable",
      "type": "function"
    },
    {
      "inputs": [
        {
          "internalType": "enum Dex.OrderType",
          "name": "_orderType",
          "type": "uint8"
        },
        {
          "internalType": "bytes32",
          "name": "_symbol",
          "type": "bytes32"
        },
        {
          "internalType": "uint256",
          "name": "_amount",
          "type": "uint256"
        }
      ],
      "name": "createMarketOrder",
      "outputs": [],
      "stateMutability": "nonpayable",
      "type": "function"
    }
  ],
  "bytecode": "0x60806040526000600355600060055534801561001a57600080fd5b5061002b610026610030565b610034565b610084565b3390565b600080546001600160a01b038381166001600160a01b0319831681178455604051919092169283917f8be0079c531659141344cd1fd0a4f28419497f9722a3daafe3b4186f6b6457e09190a35050565b61243880620000946000396000f3fe6080604052600436106100fe5760003560e01c8063904194a311610095578063a8d2021a11610064578063a8d2021a14610286578063ba58ea68146102a6578063c311d049146102d3578063c9630cb0146102f3578063f2fde38b14610313576100fe565b8063904194a31461020257806399ec2f1c146102315780639ead722214610251578063a43ad7e714610271576100fe565b80636f3b62f9116100d15780636f3b62f91461018b578063715018a6146101ab5780637d154034146101c05780638da5cb5b146101e0576100fe565b80630bb431b6146101035780631f14df691461013f5780632a58b3301461016c578063439370b114610181575b600080fd5b34801561010f57600080fd5b5061012361011e36600461202c565b610333565b6040516101369796959493929190612325565b60405180910390f35b34801561014b57600080fd5b5061015f61015a366004611f6c565b6103a9565b60405161013691906121f7565b34801561017857600080fd5b5061015f6103c6565b6101896103cc565b005b34801561019757600080fd5b506101896101a6366004612089565b61044a565b3480156101b757600080fd5b50610189610da0565b3480156101cc57600080fd5b506101896101db366004611fcd565b610db4565b3480156101ec57600080fd5b506101f5610e58565b6040516101369190612107565b34801561020e57600080fd5b5061022261021d366004611fb5565b610e67565b60405161013693929190612200565b34801561023d57600080fd5b5061018961024c366004612057565b610e90565b34801561025d57600080fd5b5061015f61026c366004611fb5565b6118c9565b34801561027d57600080fd5b5061015f6118ea565b34801561029257600080fd5b506101896102a13660046120c1565b6118f0565b3480156102b257600080fd5b506102c66102c1366004612001565b611a8b565b6040516101369190612158565b6102e66102e1366004611fb5565b611bc0565b60405161013691906121ec565b3480156102ff57600080fd5b5061018961030e3660046120c1565b611cdd565b34801561031f57600080fd5b5061018961032e366004611f52565b611e34565b6006602052826000526040600020602052816000526040600020818154811061035b57600080fd5b60009182526020909120600690910201805460018201546002830154600384015460048501546005909501549397506001600160a01b0383169650600160a01b90920460ff16945092909187565b600460209081526000928352604080842090915290825290205481565b60055481565b61040f34600460006103dc611e6e565b6001600160a01b03168152602080820192909252604090810160009081206208aa8960eb1b825290925290205490611e72565b6004600061041b611e6e565b6001600160a01b03168152602080820192909252604090810160009081206208aa8960eb1b8252909252902055565b600084600181111561046c57634e487b7160e01b600052602160045260246000fd5b14156104d05761047c8282611e85565b60046000610488611e6e565b6001600160a01b03166001600160a01b0316815260200190815260200160002060006208aa8960eb1b81526020019081526020016000205410156104cb57600080fd5b610542565b60018460018111156104f257634e487b7160e01b600052602160045260246000fd5b1415610542578160046000610505611e6e565b6001600160a01b03166001600160a01b03168152602001908152602001600020600085815260200190815260200160002054101561054257600080fd5b60008381526006602052604081208186600181111561057157634e487b7160e01b600052602160045260246000fd5b81526020019081526020016000209050806040518060e00160405280600554815260200161059d611e6e565b6001600160a01b031681526020018760018111156105cb57634e487b7160e01b600052602160045260246000fd5b81526020808201889052604080830188905260608301879052600060809093018390528454600180820187559584529282902084516006909402019283559083015182850180546001600160a01b0319166001600160a01b0390921691909117808255918401519394929392909160ff60a01b191690600160a01b90849081111561066657634e487b7160e01b600052602160045260246000fd5b0217905550606082015160028201556080820151600382015560a0820151600482015560c090910151600590910155805415610d885760008560018111156106be57634e487b7160e01b600052602160045260246000fd5b1415610a145780546000906106d5906001906123a3565b90505b8015610a0e578181815481106106fe57634e487b7160e01b600052603260045260246000fd5b9060005260206000209060060201600401548260018361071e91906123a3565b8154811061073c57634e487b7160e01b600052603260045260246000fd5b90600052602060002090600602016004015411156109fc576000826107626001846123a3565b8154811061078057634e487b7160e01b600052603260045260246000fd5b60009182526020918290206040805160e081018252600693909302909101805483526001808201546001600160a01b038116958501959095529293909291840191600160a01b90910460ff16908111156107ea57634e487b7160e01b600052602160045260246000fd5b600181111561080957634e487b7160e01b600052602160045260246000fd5b8152602001600282015481526020016003820154815260200160048201548152602001600582015481525050905082828154811061085757634e487b7160e01b600052603260045260246000fd5b90600052602060002090600602018360018461087391906123a3565b8154811061089157634e487b7160e01b600052603260045260246000fd5b6000918252602090912082546006909202019081556001808301805482840180546001600160a01b0319166001600160a01b0390921691909117808255915460ff600160a01b918290041693919260ff60a01b191691849081111561090657634e487b7160e01b600052602160045260246000fd5b0217905550600282015481600201556003820154816003015560048201548160040155600582015481600501559050508083838154811061095757634e487b7160e01b600052603260045260246000fd5b600091825260209182902083516006929092020190815590820151600180830180546001600160a01b0319166001600160a01b03909316929092178083556040850151929160ff60a01b1990911690600160a01b9084908111156109cb57634e487b7160e01b600052602160045260246000fd5b0217905550606082015160028201556080820151600382015560a0820151600482015560c090910151600590910155505b80610a06816123ba565b9150506106d8565b50610d88565b6001856001811115610a3657634e487b7160e01b600052602160045260246000fd5b1415610d88578054600090610a4d906001906123a3565b90505b8015610d8657818181548110610a7657634e487b7160e01b600052603260045260246000fd5b90600052602060002090600602016004015482600183610a9691906123a3565b81548110610ab457634e487b7160e01b600052603260045260246000fd5b9060005260206000209060060201600401541015610d7457600082610ada6001846123a3565b81548110610af857634e487b7160e01b600052603260045260246000fd5b60009182526020918290206040805160e081018252600693909302909101805483526001808201546001600160a01b038116958501959095529293909291840191600160a01b90910460ff1690811115610b6257634e487b7160e01b600052602160045260246000fd5b6001811115610b8157634e487b7160e01b600052602160045260246000fd5b81526020016002820154815260200160038201548152602001600482015481526020016005820154815250509050828281548110610bcf57634e487b7160e01b600052603260045260246000fd5b906000526020600020906006020183600184610beb91906123a3565b81548110610c0957634e487b7160e01b600052603260045260246000fd5b6000918252602090912082546006909202019081556001808301805482840180546001600160a01b0319166001600160a01b0390921691909117808255915460ff600160a01b918290041693919260ff60a01b1916918490811115610c7e57634e487b7160e01b600052602160045260246000fd5b02179055506002820154816002015560038201548160030155600482015481600401556005820154816005015590505080838381548110610ccf57634e487b7160e01b600052603260045260246000fd5b600091825260209182902083516006929092020190815590820151600180830180546001600160a01b0319166001600160a01b03909316929092178083556040850151929160ff60a01b1990911690600160a01b908490811115610d4357634e487b7160e01b600052602160045260246000fd5b0217905550606082015160028201556080820151600382015560a0820151600482015560c090910151600590910155505b80610d7e816123ba565b915050610a50565b505b600554610d96906001611e72565b6005555050505050565b610da8611e91565b610db26000611ed0565b565b610dbc611e91565b6040805160608101825284815260208082018581526001600160a01b038581168486019081526000888152600194859052958620945185559151848401559051600293840180546001600160a01b0319169190921617905581548082018355919092527f405787fa12a823e0f2b7631cc41b3ba8828b3321ca811111fa75cd3aa3bb5ace01839055600354610e5091611e72565b600355505050565b6000546001600160a01b031690565b60016020819052600091825260409091208054918101546002909101546001600160a01b031683565b6001836001811115610eb257634e487b7160e01b600052602160045260246000fd5b1415610f1e578060046000610ec5611e6e565b6001600160a01b03166001600160a01b031681526020019081526020016000206000848152602001908152602001600020541015610f1e5760405162461bcd60e51b8152600401610f1590612265565b60405180910390fd5b600080846001811115610f4157634e487b7160e01b600052602160045260246000fd5b1415610f4f57506001610f53565b5060005b6000838152600660209081526040808320848452909152812090805b825481108015610f7e57508482105b156116bb576000610f8f8684611f20565b90506000611008858481548110610fb657634e487b7160e01b600052603260045260246000fd5b906000526020600020906006020160050154868581548110610fe857634e487b7160e01b600052603260045260246000fd5b906000526020600020906006020160030154611f2090919063ffffffff16565b905060008282111561101b57508161101e565b50805b6110288582611e72565b945061106e8187868154811061104e57634e487b7160e01b600052603260045260246000fd5b906000526020600020906006020160050154611e7290919063ffffffff16565b86858154811061108e57634e487b7160e01b600052603260045260246000fd5b90600052602060002090600602016005018190555060006110e98786815481106110c857634e487b7160e01b600052603260045260246000fd5b90600052602060002090600602016004015483611e8590919063ffffffff16565b905060008b600181111561110d57634e487b7160e01b600052602160045260246000fd5b141561140b578060046000611120611e6e565b6001600160a01b03166001600160a01b0316815260200190815260200160002060006208aa8960eb1b815260200190815260200160002054101561116357600080fd5b6111a08260046000611173611e6e565b6001600160a01b03168152602080820192909252604090810160009081208f825290925290205490611e72565b600460006111ac611e6e565b6001600160a01b03166001600160a01b0316815260200190815260200160002060008c81526020019081526020016000208190555061122481600460006111f1611e6e565b6001600160a01b03168152602080820192909252604090810160009081206208aa8960eb1b825290925290205490611f20565b60046000611230611e6e565b6001600160a01b03166001600160a01b0316815260200190815260200160002060006208aa8960eb1b8152602001908152602001600020819055506112d282600460008a898154811061129357634e487b7160e01b600052603260045260246000fd5b60009182526020808320600160069093020191909101546001600160a01b0316835282810193909352604091820181208f825290925290205490611f20565b600460008988815481106112f657634e487b7160e01b600052603260045260246000fd5b60009182526020808320600160069093020191909101546001600160a01b0316835282810193909352604091820181208e825290925281209190915587546113a3918391600491908b908a90811061135e57634e487b7160e01b600052603260045260246000fd5b60009182526020808320600160069093020191909101546001600160a01b0316835282810193909352604091820181206208aa8960eb1b825290925290205490611e72565b600460008988815481106113c757634e487b7160e01b600052603260045260246000fd5b60009182526020808320600160069093020191909101546001600160a01b0316835282810193909352604091820181206208aa8960eb1b82529092529020556116a4565b60018b600181111561142d57634e487b7160e01b600052602160045260246000fd5b14156116a4576114708260046000611443611e6e565b6001600160a01b03168152602080820192909252604090810160009081208f825290925290205490611f20565b6004600061147c611e6e565b6001600160a01b03166001600160a01b0316815260200190815260200160002060008c8152602001908152602001600020819055506114c181600460006103dc611e6e565b600460006114cd611e6e565b6001600160a01b03166001600160a01b0316815260200190815260200160002060006208aa8960eb1b81526020019081526020016000208190555061156f82600460008a898154811061153057634e487b7160e01b600052603260045260246000fd5b60009182526020808320600160069093020191909101546001600160a01b0316835282810193909352604091820181208f825290925290205490611e72565b6004600089888154811061159357634e487b7160e01b600052603260045260246000fd5b60009182526020808320600160069093020191909101546001600160a01b0316835282810193909352604091820181208e82529092528120919091558754611640918391600491908b908a9081106115fb57634e487b7160e01b600052603260045260246000fd5b60009182526020808320600160069093020191909101546001600160a01b0316835282810193909352604091820181206208aa8960eb1b825290925290205490611f20565b6004600089888154811061166457634e487b7160e01b600052603260045260246000fd5b60009182526020808320600160069093020191909101546001600160a01b0316835282810193909352604091820181206208aa8960eb1b82529092529020555b5050505080806116b3906123d1565b915050610f6f565b505b8154158015906117305750816000815481106116e957634e487b7160e01b600052603260045260246000fd5b9060005260206000209060060201600301548260008154811061171c57634e487b7160e01b600052603260045260246000fd5b906000526020600020906006020160050154145b156118c15760005b8254611746906001906123a3565b811015611858578261175982600161236c565b8154811061177757634e487b7160e01b600052603260045260246000fd5b90600052602060002090600602018382815481106117a557634e487b7160e01b600052603260045260246000fd5b6000918252602090912082546006909202019081556001808301805482840180546001600160a01b0319166001600160a01b0390921691909117808255915460ff600160a01b918290041693919260ff60a01b191691849081111561181a57634e487b7160e01b600052602160045260246000fd5b021790555060028281015490820155600380830154908201556004808301549082015560059182015491015580611850816123d1565b915050611738565b508180548061187757634e487b7160e01b600052603160045260246000fd5b6000828152602081206006600019909301928302018181556001810180546001600160a81b03191690556002810182905560038101829055600481018290556005015590556116bd565b505050505050565b600281815481106118d957600080fd5b600091825260209091200154905081565b60035481565b60008181526001602052604090206002015481906001600160a01b03166119295760405162461bcd60e51b8152600401610f1590612293565b8260046000611936611e6e565b6001600160a01b03166001600160a01b0316815260200190815260200160002060008481526020019081526020016000205410156119865760405162461bcd60e51b8152600401610f15906122c1565b6119c38360046000611996611e6e565b6001600160a01b031681526020808201929092526040908101600090812087825290925290205490611f20565b600460006119cf611e6e565b6001600160a01b039081168252602080830193909352604091820160009081208782528452828120949094556001909252909120600201541663a9059cbb611a15611e6e565b856040518363ffffffff1660e01b8152600401611a3392919061213f565b602060405180830381600087803b158015611a4d57600080fd5b505af1158015611a61573d6000803e3d6000fd5b505050506040513d601f19601f82011682018060405250810190611a859190611f95565b50505050565b6000828152600660205260408120606091836001811115611abc57634e487b7160e01b600052602160045260246000fd5b8152602001908152602001600020805480602002602001604051908101604052809291908181526020016000905b82821015611bb45760008481526020908190206040805160e08101825260068602909201805483526001808201546001600160a01b038116958501959095529293909291840191600160a01b90910460ff1690811115611b5a57634e487b7160e01b600052602160045260246000fd5b6001811115611b7957634e487b7160e01b600052602160045260246000fd5b815260200160028201548152602001600382015481526020016004820154815260200160058201548152505081526020019060010190611aea565b50505050905092915050565b60008160046000611bcf611e6e565b6001600160a01b03166001600160a01b0316815260200190815260200160002060006208aa8960eb1b8152602001908152602001600020541015611c255760405162461bcd60e51b8152600401610f1590612265565b611c3582600460006111f1611e6e565b60046000611c41611e6e565b6001600160a01b03168152602080820192909252604090810160009081206208aa8960eb1b8252909252812091909155611c79611e6e565b6001600160a01b031683604051611c8f90612104565b60006040518083038185875af1925050503d8060008114611ccc576040519150601f19603f3d011682016040523d82523d6000602084013e611cd1565b606091505b5090925050505b919050565b60008181526001602052604090206002015481906001600160a01b0316611d165760405162461bcd60e51b8152600401610f1590612293565b6000828152600160205260409020600201546001600160a01b03166323b872dd611d3e611e6e565b30866040518463ffffffff1660e01b8152600401611d5e9392919061211b565b602060405180830381600087803b158015611d7857600080fd5b505af1158015611d8c573d6000803e3d6000fd5b505050506040513d601f19601f82011682018060405250810190611db09190611f95565b50611dee8360046000611dc1611e6e565b6001600160a01b031681526020808201929092526040908101600090812087825290925290205490611e72565b60046000611dfa611e6e565b6001600160a01b03166001600160a01b03168152602001908152602001600020600084815260200190815260200160002081905550505050565b611e3c611e91565b6001600160a01b038116611e625760405162461bcd60e51b8152600401610f159061221f565b611e6b81611ed0565b50565b3390565b6000611e7e828461236c565b9392505050565b6000611e7e8284612384565b611e99611e6e565b6001600160a01b0316611eaa610e58565b6001600160a01b031614610db25760405162461bcd60e51b8152600401610f15906122f0565b600080546001600160a01b038381166001600160a01b0319831681178455604051919092169283917f8be0079c531659141344cd1fd0a4f28419497f9722a3daafe3b4186f6b6457e09190a35050565b6000611e7e82846123a3565b80356001600160a01b0381168114611cd857600080fd5b803560028110611cd857600080fd5b600060208284031215611f63578081fd5b611e7e82611f2c565b60008060408385031215611f7e578081fd5b611f8783611f2c565b946020939093013593505050565b600060208284031215611fa6578081fd5b81518015158114611e7e578182fd5b600060208284031215611fc6578081fd5b5035919050565b600080600060608486031215611fe1578081fd5b8335925060208401359150611ff860408501611f2c565b90509250925092565b60008060408385031215612013578182fd5b8235915061202360208401611f43565b90509250929050565b600080600060608486031215612040578283fd5b505081359360208301359350604090920135919050565b60008060006060848603121561206b578283fd5b61207484611f43565b95602085013595506040909401359392505050565b6000806000806080858703121561209e578081fd5b6120a785611f43565b966020860135965060408601359560600135945092505050565b600080604083850312156120d3578182fd5b50508035926020909101359150565b6002811061210057634e487b7160e01b600052602160045260246000fd5b9052565b90565b6001600160a01b0391909116815260200190565b6001600160a01b039384168152919092166020820152604081019190915260600190565b6001600160a01b03929092168252602082015260400190565b602080825282518282018190526000919060409081850190868401855b828110156121df57815180518552868101516001600160a01b031687860152858101516121a4878701826120e2565b50606081810151908601526080808201519086015260a0808201519086015260c0908101519085015260e09093019290850190600101612175565b5091979650505050505050565b901515815260200190565b90815260200190565b92835260208301919091526001600160a01b0316604082015260600190565b60208082526026908201527f4f776e61626c653a206e6577206f776e657220697320746865207a65726f206160408201526564647265737360d01b606082015260800190565b602080825260149082015273496e73756666696369656e742062616c616e636560601b604082015260600190565b602080825260149082015273151bdad95b88191bd95cc81b9bdd08195e1a5cdd60621b604082015260600190565b60208082526015908201527424b739bab33334b1b4b2b73a103130b630b731b29760591b604082015260600190565b6020808252818101527f4f776e61626c653a2063616c6c6572206973206e6f7420746865206f776e6572604082015260600190565b8781526001600160a01b038716602082015260e0810161234860408301886120e2565b8560608301528460808301528360a08301528260c083015298975050505050505050565b6000821982111561237f5761237f6123ec565b500190565b600081600019048311821515161561239e5761239e6123ec565b500290565b6000828210156123b5576123b56123ec565b500390565b6000816123c9576123c96123ec565b506000190190565b60006000198214156123e5576123e56123ec565b5060010190565b634e487b7160e01b600052601160045260246000fdfea2646970667358221220077141c8f536e5e8c3c9be648c73c72ccd7c73dbae68d66b3e1c5cfbcc5a5c8364736f6c63430008000033",
  "immutableReferences": {},
  "source": "// SPDX-License-Identifier: UNLICENSED\n\npragma solidity 0.8.0;\npragma experimental ABIEncoderV2;\n\nimport \"./Wallet.sol\";\n\ncontract Dex is Wallet {\n\n    using SafeMath for uint256;\n\n    enum OrderType {\n        BUY,\n        SELL\n    }\n    \n    struct Order {\n        uint256 id;\n        address trader;\n        OrderType orderType;\n        bytes32 symbol;\n        uint256 amount;\n        uint256 price;\n        uint256 filled;\n    }\n\n    uint public nextOrderId = 0;\n\n    mapping (bytes32 => mapping (uint => Order[])) public orderBook;\n\n    function getOrderBook(bytes32 _symbol, OrderType _orderType) view public returns (Order[] memory) {\n        return orderBook[_symbol][uint(_orderType)];\n    }\n\n    function createLimitOrder(OrderType _orderType,  bytes32 _symbol, uint256 _amount, uint256 _price) public {\n        if (_orderType == OrderType.BUY) {\n            require(balances[_msgSender()][\"ETH\"] >= _amount.mul(_price));\n        } else if (_orderType == OrderType.SELL) {\n            require(balances[_msgSender()][_symbol] >= _amount);\n        }\n\n        Order[] storage orders = orderBook[_symbol][uint(_orderType)];\n\n        orders.push(\n            Order(nextOrderId, _msgSender(), _orderType, _symbol, _amount, _price, 0)\n        );\n\n        // Bubble sort\n        if (orders.length > 0) {\n            if (_orderType == OrderType.BUY) {\n                for (uint256 i=orders.length-1; i>0; i--) {\n                    if (orders[i-1].price > orders[i].price) {\n                        Order memory orderToMove = orders[i-1];\n                        orders[i-1] = orders[i];\n                        orders[i] = orderToMove;\n                    }\n                }\n            } else if (_orderType == OrderType.SELL) {\n                for (uint256 i=orders.length-1; i>0; i--) {\n                    if (orders[i-1].price < orders[i].price) {\n                        Order memory orderToMove = orders[i-1];\n                        orders[i-1] = orders[i];\n                        orders[i] = orderToMove;\n                    }\n                }\n            }\n        }\n\n        nextOrderId = nextOrderId.add(1);\n    }\n\n    function createMarketOrder(OrderType _orderType,  bytes32 _symbol, uint256 _amount) public {\n        if (_orderType == OrderType.SELL) {\n            require(balances[_msgSender()][_symbol] >= _amount, \"Insufficient balance\");\n        }\n\n        uint negateOrderType;\n        if (_orderType == OrderType.BUY) {\n            negateOrderType = 1;\n        } else {\n            negateOrderType = 0;\n        }\n\n        Order[] storage orders = orderBook[_symbol][uint(negateOrderType)];\n\n        uint orderFilled;\n        for (uint256 i = 0; i < orders.length && orderFilled < _amount; i++) {\n            uint leftToFill = _amount.sub(orderFilled);\n            uint availableToFill = orders[i].amount.sub(orders[i].filled);\n            uint filled = 0;\n\n            if(availableToFill > leftToFill) {\n                filled = leftToFill;\n            } else {\n                filled = availableToFill;\n            }\n\n            orderFilled = orderFilled.add(filled);\n            orders[i].filled = orders[i].filled.add(filled);\n            uint cost = filled.mul(orders[i].price);\n\n            if (_orderType == OrderType.BUY) {\n                require(balances[_msgSender()][ETH] >= cost);\n                balances[_msgSender()][_symbol] = balances[_msgSender()][_symbol].add(filled);\n                balances[_msgSender()][ETH] = balances[_msgSender()][ETH].sub(cost);\n\n                balances[orders[i].trader][_symbol] = balances[orders[i].trader][_symbol].sub(filled);\n                balances[orders[i].trader][ETH] = balances[orders[i].trader][ETH].add(cost);\n            } else if (_orderType == OrderType.SELL) {\n                balances[_msgSender()][_symbol] = balances[_msgSender()][_symbol].sub(filled);\n                balances[_msgSender()][ETH] = balances[_msgSender()][ETH].add(cost);\n\n                balances[orders[i].trader][_symbol] = balances[orders[i].trader][_symbol].add(filled);\n                balances[orders[i].trader][ETH] = balances[orders[i].trader][ETH].sub(cost);\n            }\n        }\n\n        while(orders.length > 0 && orders[0].filled == orders[0].amount) {\n            for (uint256 i = 0; i < orders.length -1; i++) {\n                orders[i] = orders[i+1];\n            }\n            orders.pop();\n        }\n    }\n}",
  "sourcePath": "/Users/shaunlindsley/Desktop/coding/moralis-academy-courses/dex/contracts/Dex.sol",
  "compiler": {
    "name": "solc",
    "version": "0.8.0+commit.c7dfd78e.Emscripten.clang"
  },
  "schemaVersion": "3.4.14",
  "updatedAt": "2023-07-28T10:03:58.374Z",
  "networkType": "ethereum",
  "devdoc": {
    "kind": "dev",
    "methods": {
      "addToken(bytes32,bytes32,address)": {
        "details": "Add a token into the tokens mapping"
      },
      "deposit(uint256,bytes32)": {
        "details": "Deposit tokens to your account"
      },
      "depositEth()": {
        "details": "Deposit ETH into your account"
      },
      "owner()": {
        "details": "Returns the address of the current owner."
      },
      "renounceOwnership()": {
        "details": "Leaves the contract without owner. It will not be possible to call `onlyOwner` functions. Can only be called by the current owner. NOTE: Renouncing ownership will leave the contract without an owner, thereby disabling any functionality that is only available to the owner."
      },
      "transferOwnership(address)": {
        "details": "Transfers ownership of the contract to a new account (`newOwner`). Can only be called by the current owner."
      },
      "withdraw(uint256,bytes32)": {
        "details": "Withdraw tokens from your account"
      }
    },
    "version": 1
  },
  "userdoc": {
    "kind": "user",
    "methods": {},
    "version": 1
  }
}