{
  "contractName": "Dex",
  "abi": [
    {
      "anonymous": false,
      "inputs": [
        {
          "indexed": true,
          "internalType": "address",
          "name": "previousOwner",
          "type": "address"
        },
        {
          "indexed": true,
          "internalType": "address",
          "name": "newOwner",
          "type": "address"
        }
      ],
      "name": "OwnershipTransferred",
      "type": "event"
    },
    {
      "inputs": [
        {
          "internalType": "bytes32",
          "name": "_name",
          "type": "bytes32"
        },
        {
          "internalType": "bytes32",
          "name": "_ticker",
          "type": "bytes32"
        },
        {
          "internalType": "address",
          "name": "_tokenAddress",
          "type": "address"
        }
      ],
      "name": "addToken",
      "outputs": [],
      "stateMutability": "nonpayable",
      "type": "function"
    },
    {
      "inputs": [
        {
          "internalType": "address",
          "name": "",
          "type": "address"
        },
        {
          "internalType": "bytes32",
          "name": "",
          "type": "bytes32"
        }
      ],
      "name": "balances",
      "outputs": [
        {
          "internalType": "uint256",
          "name": "",
          "type": "uint256"
        }
      ],
      "stateMutability": "view",
      "type": "function",
      "constant": true
    },
    {
      "inputs": [
        {
          "internalType": "uint256",
          "name": "_amount",
          "type": "uint256"
        },
        {
          "internalType": "bytes32",
          "name": "_ticker",
          "type": "bytes32"
        }
      ],
      "name": "deposit",
      "outputs": [],
      "stateMutability": "nonpayable",
      "type": "function"
    },
    {
      "inputs": [],
      "name": "depositEth",
      "outputs": [],
      "stateMutability": "payable",
      "type": "function",
      "payable": true
    },
    {
      "inputs": [],
      "name": "nextOrderId",
      "outputs": [
        {
          "internalType": "uint256",
          "name": "",
          "type": "uint256"
        }
      ],
      "stateMutability": "view",
      "type": "function",
      "constant": true
    },
    {
      "inputs": [
        {
          "internalType": "bytes32",
          "name": "",
          "type": "bytes32"
        },
        {
          "internalType": "uint256",
          "name": "",
          "type": "uint256"
        },
        {
          "internalType": "uint256",
          "name": "",
          "type": "uint256"
        }
      ],
      "name": "orderBook",
      "outputs": [
        {
          "internalType": "uint256",
          "name": "id",
          "type": "uint256"
        },
        {
          "internalType": "address",
          "name": "trader",
          "type": "address"
        },
        {
          "internalType": "enum Dex.OrderType",
          "name": "orderType",
          "type": "uint8"
        },
        {
          "internalType": "bytes32",
          "name": "symbol",
          "type": "bytes32"
        },
        {
          "internalType": "uint256",
          "name": "amount",
          "type": "uint256"
        },
        {
          "internalType": "uint256",
          "name": "price",
          "type": "uint256"
        },
        {
          "internalType": "uint256",
          "name": "filled",
          "type": "uint256"
        }
      ],
      "stateMutability": "view",
      "type": "function",
      "constant": true
    },
    {
      "inputs": [],
      "name": "owner",
      "outputs": [
        {
          "internalType": "address",
          "name": "",
          "type": "address"
        }
      ],
      "stateMutability": "view",
      "type": "function",
      "constant": true
    },
    {
      "inputs": [],
      "name": "renounceOwnership",
      "outputs": [],
      "stateMutability": "nonpayable",
      "type": "function"
    },
    {
      "inputs": [
        {
          "internalType": "uint256",
          "name": "",
          "type": "uint256"
        }
      ],
      "name": "tokenList",
      "outputs": [
        {
          "internalType": "bytes32",
          "name": "",
          "type": "bytes32"
        }
      ],
      "stateMutability": "view",
      "type": "function",
      "constant": true
    },
    {
      "inputs": [
        {
          "internalType": "bytes32",
          "name": "",
          "type": "bytes32"
        }
      ],
      "name": "tokens",
      "outputs": [
        {
          "internalType": "bytes32",
          "name": "name",
          "type": "bytes32"
        },
        {
          "internalType": "bytes32",
          "name": "ticker",
          "type": "bytes32"
        },
        {
          "internalType": "address",
          "name": "tokenAddress",
          "type": "address"
        }
      ],
      "stateMutability": "view",
      "type": "function",
      "constant": true
    },
    {
      "inputs": [
        {
          "internalType": "address",
          "name": "newOwner",
          "type": "address"
        }
      ],
      "name": "transferOwnership",
      "outputs": [],
      "stateMutability": "nonpayable",
      "type": "function"
    },
    {
      "inputs": [
        {
          "internalType": "uint256",
          "name": "_amount",
          "type": "uint256"
        },
        {
          "internalType": "bytes32",
          "name": "_ticker",
          "type": "bytes32"
        }
      ],
      "name": "withdraw",
      "outputs": [],
      "stateMutability": "nonpayable",
      "type": "function"
    },
    {
      "inputs": [
        {
          "internalType": "bytes32",
          "name": "_symbol",
          "type": "bytes32"
        },
        {
          "internalType": "enum Dex.OrderType",
          "name": "_orderType",
          "type": "uint8"
        }
      ],
      "name": "getOrderBook",
      "outputs": [
        {
          "components": [
            {
              "internalType": "uint256",
              "name": "id",
              "type": "uint256"
            },
            {
              "internalType": "address",
              "name": "trader",
              "type": "address"
            },
            {
              "internalType": "enum Dex.OrderType",
              "name": "orderType",
              "type": "uint8"
            },
            {
              "internalType": "bytes32",
              "name": "symbol",
              "type": "bytes32"
            },
            {
              "internalType": "uint256",
              "name": "amount",
              "type": "uint256"
            },
            {
              "internalType": "uint256",
              "name": "price",
              "type": "uint256"
            },
            {
              "internalType": "uint256",
              "name": "filled",
              "type": "uint256"
            }
          ],
          "internalType": "struct Dex.Order[]",
          "name": "",
          "type": "tuple[]"
        }
      ],
      "stateMutability": "view",
      "type": "function",
      "constant": true
    },
    {
      "inputs": [
        {
          "internalType": "enum Dex.OrderType",
          "name": "_orderType",
          "type": "uint8"
        },
        {
          "internalType": "bytes32",
          "name": "_symbol",
          "type": "bytes32"
        },
        {
          "internalType": "uint256",
          "name": "_amount",
          "type": "uint256"
        },
        {
          "internalType": "uint256",
          "name": "_price",
          "type": "uint256"
        }
      ],
      "name": "createLimitOrder",
      "outputs": [],
      "stateMutability": "nonpayable",
      "type": "function"
    },
    {
      "inputs": [
        {
          "internalType": "enum Dex.OrderType",
          "name": "_orderType",
          "type": "uint8"
        },
        {
          "internalType": "bytes32",
          "name": "_symbol",
          "type": "bytes32"
        },
        {
          "internalType": "uint256",
          "name": "_amount",
          "type": "uint256"
        }
      ],
      "name": "createMarketOrder",
      "outputs": [],
      "stateMutability": "nonpayable",
      "type": "function"
    }
  ],
  "bytecode": "0x6080604052600060045534801561001557600080fd5b5061002661002161002b565b61002f565b61007f565b3390565b600080546001600160a01b038381166001600160a01b0319831681178455604051919092169283917f8be0079c531659141344cd1fd0a4f28419497f9722a3daafe3b4186f6b6457e09190a35050565b6122af806200008f6000396000f3fe6080604052600436106100e85760003560e01c80638da5cb5b1161008a578063a8d2021a11610059578063a8d2021a1461025b578063ba58ea681461027b578063c9630cb0146102a8578063f2fde38b146102c8576100e8565b80638da5cb5b146101ca578063904194a3146101ec57806399ec2f1c1461021b5780639ead72221461023b576100e8565b8063439370b1116100c6578063439370b11461016b5780636f3b62f914610175578063715018a6146101955780637d154034146101aa576100e8565b80630bb431b6146100ed5780631f14df69146101295780632a58b33014610156575b600080fd5b3480156100f957600080fd5b5061010d610108366004611eb1565b6102e8565b604051610120979695949392919061219c565b60405180910390f35b34801561013557600080fd5b50610149610144366004611df1565b61035e565b604051610120919061206e565b34801561016257600080fd5b5061014961037b565b610173610381565b005b34801561018157600080fd5b50610173610190366004611f0e565b6103ff565b3480156101a157600080fd5b50610173610d55565b3480156101b657600080fd5b506101736101c5366004611e52565b610d69565b3480156101d657600080fd5b506101df610dfb565b6040516101209190611f89565b3480156101f857600080fd5b5061020c610207366004611e3a565b610e0a565b60405161012093929190612077565b34801561022757600080fd5b50610173610236366004611edc565b610e33565b34801561024757600080fd5b50610149610256366004611e3a565b61186c565b34801561026757600080fd5b50610173610276366004611f46565b61188d565b34801561028757600080fd5b5061029b610296366004611e86565b611a28565b6040516101209190611fda565b3480156102b457600080fd5b506101736102c3366004611f46565b611b5d565b3480156102d457600080fd5b506101736102e3366004611dd7565b611cb4565b6005602052826000526040600020602052816000526040600020818154811061031057600080fd5b60009182526020909120600690910201805460018201546002830154600384015460048501546005909501549397506001600160a01b0383169650600160a01b90920460ff16945092909187565b600360209081526000928352604080842090915290825290205481565b60045481565b6103c43460036000610391611cee565b6001600160a01b03168152602080820192909252604090810160009081206208aa8960eb1b825290925290205490611cf2565b600360006103d0611cee565b6001600160a01b03168152602080820192909252604090810160009081206208aa8960eb1b8252909252902055565b600084600181111561042157634e487b7160e01b600052602160045260246000fd5b1415610485576104318282611d05565b6003600061043d611cee565b6001600160a01b03166001600160a01b0316815260200190815260200160002060006208aa8960eb1b815260200190815260200160002054101561048057600080fd5b6104f7565b60018460018111156104a757634e487b7160e01b600052602160045260246000fd5b14156104f75781600360006104ba611cee565b6001600160a01b03166001600160a01b0316815260200190815260200160002060008581526020019081526020016000205410156104f757600080fd5b60008381526005602052604081208186600181111561052657634e487b7160e01b600052602160045260246000fd5b81526020019081526020016000209050806040518060e001604052806004548152602001610552611cee565b6001600160a01b0316815260200187600181111561058057634e487b7160e01b600052602160045260246000fd5b81526020808201889052604080830188905260608301879052600060809093018390528454600180820187559584529282902084516006909402019283559083015182850180546001600160a01b0319166001600160a01b0390921691909117808255918401519394929392909160ff60a01b191690600160a01b90849081111561061b57634e487b7160e01b600052602160045260246000fd5b0217905550606082015160028201556080820151600382015560a0820151600482015560c090910151600590910155805415610d3d57600085600181111561067357634e487b7160e01b600052602160045260246000fd5b14156109c957805460009061068a9060019061221a565b90505b80156109c3578181815481106106b357634e487b7160e01b600052603260045260246000fd5b906000526020600020906006020160040154826001836106d3919061221a565b815481106106f157634e487b7160e01b600052603260045260246000fd5b90600052602060002090600602016004015411156109b15760008261071760018461221a565b8154811061073557634e487b7160e01b600052603260045260246000fd5b60009182526020918290206040805160e081018252600693909302909101805483526001808201546001600160a01b038116958501959095529293909291840191600160a01b90910460ff169081111561079f57634e487b7160e01b600052602160045260246000fd5b60018111156107be57634e487b7160e01b600052602160045260246000fd5b8152602001600282015481526020016003820154815260200160048201548152602001600582015481525050905082828154811061080c57634e487b7160e01b600052603260045260246000fd5b906000526020600020906006020183600184610828919061221a565b8154811061084657634e487b7160e01b600052603260045260246000fd5b6000918252602090912082546006909202019081556001808301805482840180546001600160a01b0319166001600160a01b0390921691909117808255915460ff600160a01b918290041693919260ff60a01b19169184908111156108bb57634e487b7160e01b600052602160045260246000fd5b0217905550600282015481600201556003820154816003015560048201548160040155600582015481600501559050508083838154811061090c57634e487b7160e01b600052603260045260246000fd5b600091825260209182902083516006929092020190815590820151600180830180546001600160a01b0319166001600160a01b03909316929092178083556040850151929160ff60a01b1990911690600160a01b90849081111561098057634e487b7160e01b600052602160045260246000fd5b0217905550606082015160028201556080820151600382015560a0820151600482015560c090910151600590910155505b806109bb81612231565b91505061068d565b50610d3d565b60018560018111156109eb57634e487b7160e01b600052602160045260246000fd5b1415610d3d578054600090610a029060019061221a565b90505b8015610d3b57818181548110610a2b57634e487b7160e01b600052603260045260246000fd5b90600052602060002090600602016004015482600183610a4b919061221a565b81548110610a6957634e487b7160e01b600052603260045260246000fd5b9060005260206000209060060201600401541015610d2957600082610a8f60018461221a565b81548110610aad57634e487b7160e01b600052603260045260246000fd5b60009182526020918290206040805160e081018252600693909302909101805483526001808201546001600160a01b038116958501959095529293909291840191600160a01b90910460ff1690811115610b1757634e487b7160e01b600052602160045260246000fd5b6001811115610b3657634e487b7160e01b600052602160045260246000fd5b81526020016002820154815260200160038201548152602001600482015481526020016005820154815250509050828281548110610b8457634e487b7160e01b600052603260045260246000fd5b906000526020600020906006020183600184610ba0919061221a565b81548110610bbe57634e487b7160e01b600052603260045260246000fd5b6000918252602090912082546006909202019081556001808301805482840180546001600160a01b0319166001600160a01b0390921691909117808255915460ff600160a01b918290041693919260ff60a01b1916918490811115610c3357634e487b7160e01b600052602160045260246000fd5b02179055506002820154816002015560038201548160030155600482015481600401556005820154816005015590505080838381548110610c8457634e487b7160e01b600052603260045260246000fd5b600091825260209182902083516006929092020190815590820151600180830180546001600160a01b0319166001600160a01b03909316929092178083556040850151929160ff60a01b1990911690600160a01b908490811115610cf857634e487b7160e01b600052602160045260246000fd5b0217905550606082015160028201556080820151600382015560a0820151600482015560c090910151600590910155505b80610d3381612231565b915050610a05565b505b600454610d4b906001611cf2565b6004555050505050565b610d5d611d11565b610d676000611d50565b565b610d71611d11565b6040805160608101825293845260208085018481526001600160a01b0393841686840190815260008681526001938490529384209651875590518683015551600295860180546001600160a01b031916919094161790925583549182018455929092527f405787fa12a823e0f2b7631cc41b3ba8828b3321ca811111fa75cd3aa3bb5ace90910155565b6000546001600160a01b031690565b60016020819052600091825260409091208054918101546002909101546001600160a01b031683565b6001836001811115610e5557634e487b7160e01b600052602160045260246000fd5b1415610ec1578060036000610e68611cee565b6001600160a01b03166001600160a01b031681526020019081526020016000206000848152602001908152602001600020541015610ec15760405162461bcd60e51b8152600401610eb8906120dc565b60405180910390fd5b600080846001811115610ee457634e487b7160e01b600052602160045260246000fd5b1415610ef257506001610ef6565b5060005b6000838152600560209081526040808320848452909152812090805b825481108015610f2157508482105b1561165e576000610f328684611da0565b90506000610fab858481548110610f5957634e487b7160e01b600052603260045260246000fd5b906000526020600020906006020160050154868581548110610f8b57634e487b7160e01b600052603260045260246000fd5b906000526020600020906006020160030154611da090919063ffffffff16565b9050600082821115610fbe575081610fc1565b50805b610fcb8582611cf2565b945061101181878681548110610ff157634e487b7160e01b600052603260045260246000fd5b906000526020600020906006020160050154611cf290919063ffffffff16565b86858154811061103157634e487b7160e01b600052603260045260246000fd5b906000526020600020906006020160050181905550600061108c87868154811061106b57634e487b7160e01b600052603260045260246000fd5b90600052602060002090600602016004015483611d0590919063ffffffff16565b905060008b60018111156110b057634e487b7160e01b600052602160045260246000fd5b14156113ae5780600360006110c3611cee565b6001600160a01b03166001600160a01b0316815260200190815260200160002060006208aa8960eb1b815260200190815260200160002054101561110657600080fd5b6111438260036000611116611cee565b6001600160a01b03168152602080820192909252604090810160009081208f825290925290205490611cf2565b6003600061114f611cee565b6001600160a01b03166001600160a01b0316815260200190815260200160002060008c8152602001908152602001600020819055506111c78160036000611194611cee565b6001600160a01b03168152602080820192909252604090810160009081206208aa8960eb1b825290925290205490611da0565b600360006111d3611cee565b6001600160a01b03166001600160a01b0316815260200190815260200160002060006208aa8960eb1b81526020019081526020016000208190555061127582600360008a898154811061123657634e487b7160e01b600052603260045260246000fd5b60009182526020808320600160069093020191909101546001600160a01b0316835282810193909352604091820181208f825290925290205490611da0565b6003600089888154811061129957634e487b7160e01b600052603260045260246000fd5b60009182526020808320600160069093020191909101546001600160a01b0316835282810193909352604091820181208e82529092528120919091558754611346918391600391908b908a90811061130157634e487b7160e01b600052603260045260246000fd5b60009182526020808320600160069093020191909101546001600160a01b0316835282810193909352604091820181206208aa8960eb1b825290925290205490611cf2565b6003600089888154811061136a57634e487b7160e01b600052603260045260246000fd5b60009182526020808320600160069093020191909101546001600160a01b0316835282810193909352604091820181206208aa8960eb1b8252909252902055611647565b60018b60018111156113d057634e487b7160e01b600052602160045260246000fd5b14156116475761141382600360006113e6611cee565b6001600160a01b03168152602080820192909252604090810160009081208f825290925290205490611da0565b6003600061141f611cee565b6001600160a01b03166001600160a01b0316815260200190815260200160002060008c8152602001908152602001600020819055506114648160036000610391611cee565b60036000611470611cee565b6001600160a01b03166001600160a01b0316815260200190815260200160002060006208aa8960eb1b81526020019081526020016000208190555061151282600360008a89815481106114d357634e487b7160e01b600052603260045260246000fd5b60009182526020808320600160069093020191909101546001600160a01b0316835282810193909352604091820181208f825290925290205490611cf2565b6003600089888154811061153657634e487b7160e01b600052603260045260246000fd5b60009182526020808320600160069093020191909101546001600160a01b0316835282810193909352604091820181208e825290925281209190915587546115e3918391600391908b908a90811061159e57634e487b7160e01b600052603260045260246000fd5b60009182526020808320600160069093020191909101546001600160a01b0316835282810193909352604091820181206208aa8960eb1b825290925290205490611da0565b6003600089888154811061160757634e487b7160e01b600052603260045260246000fd5b60009182526020808320600160069093020191909101546001600160a01b0316835282810193909352604091820181206208aa8960eb1b82529092529020555b50505050808061165690612248565b915050610f12565b505b8154158015906116d357508160008154811061168c57634e487b7160e01b600052603260045260246000fd5b906000526020600020906006020160030154826000815481106116bf57634e487b7160e01b600052603260045260246000fd5b906000526020600020906006020160050154145b156118645760005b82546116e99060019061221a565b8110156117fb57826116fc8260016121e3565b8154811061171a57634e487b7160e01b600052603260045260246000fd5b906000526020600020906006020183828154811061174857634e487b7160e01b600052603260045260246000fd5b6000918252602090912082546006909202019081556001808301805482840180546001600160a01b0319166001600160a01b0390921691909117808255915460ff600160a01b918290041693919260ff60a01b19169184908111156117bd57634e487b7160e01b600052602160045260246000fd5b0217905550600282810154908201556003808301549082015560048083015490820155600591820154910155806117f381612248565b9150506116db565b508180548061181a57634e487b7160e01b600052603160045260246000fd5b6000828152602081206006600019909301928302018181556001810180546001600160a81b0319169055600281018290556003810182905560048101829055600501559055611660565b505050505050565b6002818154811061187c57600080fd5b600091825260209091200154905081565b60008181526001602052604090206002015481906001600160a01b03166118c65760405162461bcd60e51b8152600401610eb89061210a565b82600360006118d3611cee565b6001600160a01b03166001600160a01b0316815260200190815260200160002060008481526020019081526020016000205410156119235760405162461bcd60e51b8152600401610eb890612138565b6119608360036000611933611cee565b6001600160a01b031681526020808201929092526040908101600090812087825290925290205490611da0565b6003600061196c611cee565b6001600160a01b039081168252602080830193909352604091820160009081208782528452828120949094556001909252909120600201541663a9059cbb6119b2611cee565b856040518363ffffffff1660e01b81526004016119d0929190611fc1565b602060405180830381600087803b1580156119ea57600080fd5b505af11580156119fe573d6000803e3d6000fd5b505050506040513d601f19601f82011682018060405250810190611a229190611e1a565b50505050565b6000828152600560205260408120606091836001811115611a5957634e487b7160e01b600052602160045260246000fd5b8152602001908152602001600020805480602002602001604051908101604052809291908181526020016000905b82821015611b515760008481526020908190206040805160e08101825260068602909201805483526001808201546001600160a01b038116958501959095529293909291840191600160a01b90910460ff1690811115611af757634e487b7160e01b600052602160045260246000fd5b6001811115611b1657634e487b7160e01b600052602160045260246000fd5b815260200160028201548152602001600382015481526020016004820154815260200160058201548152505081526020019060010190611a87565b50505050905092915050565b60008181526001602052604090206002015481906001600160a01b0316611b965760405162461bcd60e51b8152600401610eb89061210a565b6000828152600160205260409020600201546001600160a01b03166323b872dd611bbe611cee565b30866040518463ffffffff1660e01b8152600401611bde93929190611f9d565b602060405180830381600087803b158015611bf857600080fd5b505af1158015611c0c573d6000803e3d6000fd5b505050506040513d601f19601f82011682018060405250810190611c309190611e1a565b50611c6e8360036000611c41611cee565b6001600160a01b031681526020808201929092526040908101600090812087825290925290205490611cf2565b60036000611c7a611cee565b6001600160a01b03166001600160a01b03168152602001908152602001600020600084815260200190815260200160002081905550505050565b611cbc611d11565b6001600160a01b038116611ce25760405162461bcd60e51b8152600401610eb890612096565b611ceb81611d50565b50565b3390565b6000611cfe82846121e3565b9392505050565b6000611cfe82846121fb565b611d19611cee565b6001600160a01b0316611d2a610dfb565b6001600160a01b031614610d675760405162461bcd60e51b8152600401610eb890612167565b600080546001600160a01b038381166001600160a01b0319831681178455604051919092169283917f8be0079c531659141344cd1fd0a4f28419497f9722a3daafe3b4186f6b6457e09190a35050565b6000611cfe828461221a565b80356001600160a01b0381168114611dc357600080fd5b919050565b803560028110611dc357600080fd5b600060208284031215611de8578081fd5b611cfe82611dac565b60008060408385031215611e03578081fd5b611e0c83611dac565b946020939093013593505050565b600060208284031215611e2b578081fd5b81518015158114611cfe578182fd5b600060208284031215611e4b578081fd5b5035919050565b600080600060608486031215611e66578081fd5b8335925060208401359150611e7d60408501611dac565b90509250925092565b60008060408385031215611e98578182fd5b82359150611ea860208401611dc8565b90509250929050565b600080600060608486031215611ec5578283fd5b505081359360208301359350604090920135919050565b600080600060608486031215611ef0578283fd5b611ef984611dc8565b95602085013595506040909401359392505050565b60008060008060808587031215611f23578081fd5b611f2c85611dc8565b966020860135965060408601359560600135945092505050565b60008060408385031215611f58578182fd5b50508035926020909101359150565b60028110611f8557634e487b7160e01b600052602160045260246000fd5b9052565b6001600160a01b0391909116815260200190565b6001600160a01b039384168152919092166020820152604081019190915260600190565b6001600160a01b03929092168252602082015260400190565b602080825282518282018190526000919060409081850190868401855b8281101561206157815180518552868101516001600160a01b0316878601528581015161202687870182611f67565b50606081810151908601526080808201519086015260a0808201519086015260c0908101519085015260e09093019290850190600101611ff7565b5091979650505050505050565b90815260200190565b92835260208301919091526001600160a01b0316604082015260600190565b60208082526026908201527f4f776e61626c653a206e6577206f776e657220697320746865207a65726f206160408201526564647265737360d01b606082015260800190565b602080825260149082015273496e73756666696369656e742062616c616e636560601b604082015260600190565b602080825260149082015273151bdad95b88191bd95cc81b9bdd08195e1a5cdd60621b604082015260600190565b60208082526015908201527424b739bab33334b1b4b2b73a103130b630b731b29760591b604082015260600190565b6020808252818101527f4f776e61626c653a2063616c6c6572206973206e6f7420746865206f776e6572604082015260600190565b8781526001600160a01b038716602082015260e081016121bf6040830188611f67565b8560608301528460808301528360a08301528260c083015298975050505050505050565b600082198211156121f6576121f6612263565b500190565b600081600019048311821515161561221557612215612263565b500290565b60008282101561222c5761222c612263565b500390565b60008161224057612240612263565b506000190190565b600060001982141561225c5761225c612263565b5060010190565b634e487b7160e01b600052601160045260246000fdfea26469706673582212203548e6c06fc1166d9b2d031efa273ea4733c3e55c28add7ba7db6eae2e4f863b64736f6c63430008000033",
  "immutableReferences": {},
  "source": "// SPDX-License-Identifier: UNLICENSED\n\npragma solidity 0.8.0;\npragma experimental ABIEncoderV2;\n\nimport \"./Wallet.sol\";\n\ncontract Dex is Wallet {\n\n    using SafeMath for uint256;\n\n    enum OrderType {\n        BUY,\n        SELL\n    }\n    \n    struct Order {\n        uint256 id;\n        address trader;\n        OrderType orderType;\n        bytes32 symbol;\n        uint256 amount;\n        uint256 price;\n        uint256 filled;\n    }\n\n    uint public nextOrderId = 0;\n\n    mapping (bytes32 => mapping (uint => Order[])) public orderBook;\n\n    function getOrderBook(bytes32 _symbol, OrderType _orderType) view public returns (Order[] memory) {\n        return orderBook[_symbol][uint(_orderType)];\n    }\n\n    function createLimitOrder(OrderType _orderType,  bytes32 _symbol, uint256 _amount, uint256 _price) public {\n        if (_orderType == OrderType.BUY) {\n            require(balances[_msgSender()][\"ETH\"] >= _amount.mul(_price));\n        } else if (_orderType == OrderType.SELL) {\n            require(balances[_msgSender()][_symbol] >= _amount);\n        }\n\n        Order[] storage orders = orderBook[_symbol][uint(_orderType)];\n\n        orders.push(\n            Order(nextOrderId, _msgSender(), _orderType, _symbol, _amount, _price, 0)\n        );\n\n        // Bubble sort\n        if (orders.length > 0) {\n            if (_orderType == OrderType.BUY) {\n                for (uint256 i=orders.length-1; i>0; i--) {\n                    if (orders[i-1].price > orders[i].price) {\n                        Order memory orderToMove = orders[i-1];\n                        orders[i-1] = orders[i];\n                        orders[i] = orderToMove;\n                    }\n                }\n            } else if (_orderType == OrderType.SELL) {\n                for (uint256 i=orders.length-1; i>0; i--) {\n                    if (orders[i-1].price < orders[i].price) {\n                        Order memory orderToMove = orders[i-1];\n                        orders[i-1] = orders[i];\n                        orders[i] = orderToMove;\n                    }\n                }\n            }\n        }\n\n        nextOrderId = nextOrderId.add(1);\n    }\n\n    function createMarketOrder(OrderType _orderType,  bytes32 _symbol, uint256 _amount) public {\n        if (_orderType == OrderType.SELL) {\n            require(balances[_msgSender()][_symbol] >= _amount, \"Insufficient balance\");\n        }\n\n        uint negateOrderType;\n        if (_orderType == OrderType.BUY) {\n            negateOrderType = 1;\n        } else {\n            negateOrderType = 0;\n        }\n\n        Order[] storage orders = orderBook[_symbol][uint(negateOrderType)];\n\n        uint orderFilled;\n        for (uint256 i = 0; i < orders.length && orderFilled < _amount; i++) {\n            uint leftToFill = _amount.sub(orderFilled);\n            uint availableToFill = orders[i].amount.sub(orders[i].filled);\n            uint filled = 0;\n\n            if(availableToFill > leftToFill) {\n                filled = leftToFill;\n            } else {\n                filled = availableToFill;\n            }\n\n            orderFilled = orderFilled.add(filled);\n            orders[i].filled = orders[i].filled.add(filled);\n            uint cost = filled.mul(orders[i].price);\n\n            if (_orderType == OrderType.BUY) {\n                require(balances[_msgSender()][ETH] >= cost);\n                balances[_msgSender()][_symbol] = balances[_msgSender()][_symbol].add(filled);\n                balances[_msgSender()][ETH] = balances[_msgSender()][ETH].sub(cost);\n\n                balances[orders[i].trader][_symbol] = balances[orders[i].trader][_symbol].sub(filled);\n                balances[orders[i].trader][ETH] = balances[orders[i].trader][ETH].add(cost);\n            } else if (_orderType == OrderType.SELL) {\n                balances[_msgSender()][_symbol] = balances[_msgSender()][_symbol].sub(filled);\n                balances[_msgSender()][ETH] = balances[_msgSender()][ETH].add(cost);\n\n                balances[orders[i].trader][_symbol] = balances[orders[i].trader][_symbol].add(filled);\n                balances[orders[i].trader][ETH] = balances[orders[i].trader][ETH].sub(cost);\n            }\n        }\n\n        while(orders.length > 0 && orders[0].filled == orders[0].amount) {\n            for (uint256 i = 0; i < orders.length -1; i++) {\n                orders[i] = orders[i+1];\n            }\n            orders.pop();\n        }\n    }\n}",
  "sourcePath": "/Users/shaunlindsley/Desktop/coding/moralis-academy-courses/dex/contracts/Dex.sol",
  "compiler": {
    "name": "solc",
    "version": "0.8.0+commit.c7dfd78e.Emscripten.clang"
  },
  "schemaVersion": "3.4.14",
  "updatedAt": "2023-07-26T20:17:42.426Z",
  "networkType": "ethereum",
  "devdoc": {
    "kind": "dev",
    "methods": {
      "owner()": {
        "details": "Returns the address of the current owner."
      },
      "renounceOwnership()": {
        "details": "Leaves the contract without owner. It will not be possible to call `onlyOwner` functions. Can only be called by the current owner. NOTE: Renouncing ownership will leave the contract without an owner, thereby disabling any functionality that is only available to the owner."
      },
      "transferOwnership(address)": {
        "details": "Transfers ownership of the contract to a new account (`newOwner`). Can only be called by the current owner."
      }
    },
    "version": 1
  },
  "userdoc": {
    "kind": "user",
    "methods": {},
    "version": 1
  }
}