{
  "contractName": "Dex",
  "abi": [
    {
      "anonymous": false,
      "inputs": [
        {
          "indexed": true,
          "internalType": "address",
          "name": "previousOwner",
          "type": "address"
        },
        {
          "indexed": true,
          "internalType": "address",
          "name": "newOwner",
          "type": "address"
        }
      ],
      "name": "OwnershipTransferred",
      "type": "event"
    },
    {
      "inputs": [
        {
          "internalType": "string",
          "name": "_id",
          "type": "string"
        },
        {
          "internalType": "bytes32",
          "name": "_name",
          "type": "bytes32"
        },
        {
          "internalType": "bytes32",
          "name": "_ticker",
          "type": "bytes32"
        },
        {
          "internalType": "address",
          "name": "_tokenAddress",
          "type": "address"
        }
      ],
      "name": "addToken",
      "outputs": [],
      "stateMutability": "nonpayable",
      "type": "function"
    },
    {
      "inputs": [
        {
          "internalType": "address",
          "name": "",
          "type": "address"
        },
        {
          "internalType": "bytes32",
          "name": "",
          "type": "bytes32"
        }
      ],
      "name": "balances",
      "outputs": [
        {
          "internalType": "uint256",
          "name": "",
          "type": "uint256"
        }
      ],
      "stateMutability": "view",
      "type": "function",
      "constant": true
    },
    {
      "inputs": [
        {
          "internalType": "bytes32",
          "name": "_ticker",
          "type": "bytes32"
        },
        {
          "internalType": "uint256",
          "name": "_index",
          "type": "uint256"
        }
      ],
      "name": "deleteToken",
      "outputs": [],
      "stateMutability": "nonpayable",
      "type": "function"
    },
    {
      "inputs": [
        {
          "internalType": "uint256",
          "name": "_amount",
          "type": "uint256"
        },
        {
          "internalType": "bytes32",
          "name": "_ticker",
          "type": "bytes32"
        }
      ],
      "name": "deposit",
      "outputs": [],
      "stateMutability": "nonpayable",
      "type": "function"
    },
    {
      "inputs": [],
      "name": "depositEth",
      "outputs": [],
      "stateMutability": "payable",
      "type": "function",
      "payable": true
    },
    {
      "inputs": [],
      "name": "nextOrderId",
      "outputs": [
        {
          "internalType": "uint256",
          "name": "",
          "type": "uint256"
        }
      ],
      "stateMutability": "view",
      "type": "function",
      "constant": true
    },
    {
      "inputs": [
        {
          "internalType": "bytes32",
          "name": "",
          "type": "bytes32"
        },
        {
          "internalType": "uint256",
          "name": "",
          "type": "uint256"
        },
        {
          "internalType": "uint256",
          "name": "",
          "type": "uint256"
        }
      ],
      "name": "orderBook",
      "outputs": [
        {
          "internalType": "uint256",
          "name": "id",
          "type": "uint256"
        },
        {
          "internalType": "address",
          "name": "trader",
          "type": "address"
        },
        {
          "internalType": "enum Dex.OrderType",
          "name": "orderType",
          "type": "uint8"
        },
        {
          "internalType": "bytes32",
          "name": "symbol",
          "type": "bytes32"
        },
        {
          "internalType": "uint256",
          "name": "amount",
          "type": "uint256"
        },
        {
          "internalType": "uint256",
          "name": "price",
          "type": "uint256"
        },
        {
          "internalType": "uint256",
          "name": "filled",
          "type": "uint256"
        }
      ],
      "stateMutability": "view",
      "type": "function",
      "constant": true
    },
    {
      "inputs": [],
      "name": "owner",
      "outputs": [
        {
          "internalType": "address",
          "name": "",
          "type": "address"
        }
      ],
      "stateMutability": "view",
      "type": "function",
      "constant": true
    },
    {
      "inputs": [],
      "name": "renounceOwnership",
      "outputs": [],
      "stateMutability": "nonpayable",
      "type": "function"
    },
    {
      "inputs": [
        {
          "internalType": "uint256",
          "name": "",
          "type": "uint256"
        }
      ],
      "name": "tokenList",
      "outputs": [
        {
          "internalType": "bytes32",
          "name": "",
          "type": "bytes32"
        }
      ],
      "stateMutability": "view",
      "type": "function",
      "constant": true
    },
    {
      "inputs": [],
      "name": "tokenListCount",
      "outputs": [
        {
          "internalType": "uint256",
          "name": "",
          "type": "uint256"
        }
      ],
      "stateMutability": "view",
      "type": "function",
      "constant": true
    },
    {
      "inputs": [
        {
          "internalType": "bytes32",
          "name": "",
          "type": "bytes32"
        }
      ],
      "name": "tokens",
      "outputs": [
        {
          "internalType": "string",
          "name": "id",
          "type": "string"
        },
        {
          "internalType": "bytes32",
          "name": "name",
          "type": "bytes32"
        },
        {
          "internalType": "bytes32",
          "name": "ticker",
          "type": "bytes32"
        },
        {
          "internalType": "address",
          "name": "tokenAddress",
          "type": "address"
        }
      ],
      "stateMutability": "view",
      "type": "function",
      "constant": true
    },
    {
      "inputs": [
        {
          "internalType": "address",
          "name": "newOwner",
          "type": "address"
        }
      ],
      "name": "transferOwnership",
      "outputs": [],
      "stateMutability": "nonpayable",
      "type": "function"
    },
    {
      "inputs": [
        {
          "internalType": "uint256",
          "name": "_amount",
          "type": "uint256"
        },
        {
          "internalType": "bytes32",
          "name": "_ticker",
          "type": "bytes32"
        }
      ],
      "name": "withdraw",
      "outputs": [],
      "stateMutability": "nonpayable",
      "type": "function"
    },
    {
      "inputs": [
        {
          "internalType": "uint256",
          "name": "_amount",
          "type": "uint256"
        }
      ],
      "name": "withdrawEth",
      "outputs": [
        {
          "internalType": "bool",
          "name": "",
          "type": "bool"
        }
      ],
      "stateMutability": "payable",
      "type": "function",
      "payable": true
    },
    {
      "inputs": [
        {
          "internalType": "bytes32",
          "name": "_symbol",
          "type": "bytes32"
        },
        {
          "internalType": "enum Dex.OrderType",
          "name": "_orderType",
          "type": "uint8"
        }
      ],
      "name": "getOrderBook",
      "outputs": [
        {
          "components": [
            {
              "internalType": "uint256",
              "name": "id",
              "type": "uint256"
            },
            {
              "internalType": "address",
              "name": "trader",
              "type": "address"
            },
            {
              "internalType": "enum Dex.OrderType",
              "name": "orderType",
              "type": "uint8"
            },
            {
              "internalType": "bytes32",
              "name": "symbol",
              "type": "bytes32"
            },
            {
              "internalType": "uint256",
              "name": "amount",
              "type": "uint256"
            },
            {
              "internalType": "uint256",
              "name": "price",
              "type": "uint256"
            },
            {
              "internalType": "uint256",
              "name": "filled",
              "type": "uint256"
            }
          ],
          "internalType": "struct Dex.Order[]",
          "name": "",
          "type": "tuple[]"
        }
      ],
      "stateMutability": "view",
      "type": "function",
      "constant": true
    },
    {
      "inputs": [
        {
          "internalType": "uint256",
          "name": "_orderId",
          "type": "uint256"
        },
        {
          "internalType": "bytes32",
          "name": "_symbol",
          "type": "bytes32"
        },
        {
          "internalType": "enum Dex.OrderType",
          "name": "_orderType",
          "type": "uint8"
        }
      ],
      "name": "deleteOrder",
      "outputs": [],
      "stateMutability": "nonpayable",
      "type": "function"
    },
    {
      "inputs": [
        {
          "internalType": "enum Dex.OrderType",
          "name": "_orderType",
          "type": "uint8"
        },
        {
          "internalType": "bytes32",
          "name": "_symbol",
          "type": "bytes32"
        },
        {
          "internalType": "uint256",
          "name": "_amount",
          "type": "uint256"
        },
        {
          "internalType": "uint256",
          "name": "_price",
          "type": "uint256"
        }
      ],
      "name": "createLimitOrder",
      "outputs": [],
      "stateMutability": "nonpayable",
      "type": "function"
    },
    {
      "inputs": [
        {
          "internalType": "enum Dex.OrderType",
          "name": "_orderType",
          "type": "uint8"
        },
        {
          "internalType": "bytes32",
          "name": "_symbol",
          "type": "bytes32"
        },
        {
          "internalType": "uint256",
          "name": "_amount",
          "type": "uint256"
        }
      ],
      "name": "createMarketOrder",
      "outputs": [],
      "stateMutability": "nonpayable",
      "type": "function"
    }
  ],
  "bytecode": "0x6080604052600060035560006005553480156200001b57600080fd5b50620000306200002a62000079565b6200007d565b60408051808201909152600c81526b6574682d657468657265756d60a01b6020820152620000739067457468657265756d60c01b6208aa8960eb1b6000620000cd565b62000354565b3390565b600080546001600160a01b038381166001600160a01b0319831681178455604051919092169283917f8be0079c531659141344cd1fd0a4f28419497f9722a3daafe3b4186f6b6457e09190a35050565b620000d7620001b4565b6040805160808101825285815260208082018690528183018590526001600160a01b038416606083015260008581526001825292909220815180519293919262000125928492019062000214565b5060208201516001828101919091556040830151600280840191909155606090930151600392830180546001600160a01b0319166001600160a01b039092169190911790558254908101835560009283527f405787fa12a823e0f2b7631cc41b3ba8828b3321ca811111fa75cd3aa3bb5ace01849055805491620001a9836200032c565b919050555050505050565b620001be62000079565b6001600160a01b0316620001d162000205565b6001600160a01b031614620002035760405162461bcd60e51b8152600401620001fa90620002ba565b60405180910390fd5b565b6000546001600160a01b031690565b8280546200022290620002ef565b90600052602060002090601f01602090048101928262000246576000855562000291565b82601f106200026157805160ff191683800117855562000291565b8280016001018555821562000291579182015b828111156200029157825182559160200191906001019062000274565b506200029f929150620002a3565b5090565b5b808211156200029f5760008155600101620002a4565b6020808252818101527f4f776e61626c653a2063616c6c6572206973206e6f7420746865206f776e6572604082015260600190565b6002810460018216806200030457607f821691505b602082108114156200032657634e487b7160e01b600052602260045260246000fd5b50919050565b60006000198214156200034d57634e487b7160e01b81526011600452602481fd5b5060010190565b61293980620003646000396000f3fe6080604052600436106101145760003560e01c806399ec2f1c116100a0578063c311d04911610064578063c311d049146102ea578063c9630cb01461030a578063d15e2efe1461032a578063f2fde38b1461034a578063fae1cbce1461036a57610114565b806399ec2f1c146102485780639ead722214610268578063a43ad7e714610288578063a8d2021a1461029d578063ba58ea68146102bd57610114565b8063439370b1116100e7578063439370b1146101b95780636f3b62f9146101c1578063715018a6146101e15780638da5cb5b146101f6578063904194a31461021857610114565b80630bb431b6146101195780631f14df69146101555780632a58b3301461018257806336bb452614610197575b600080fd5b34801561012557600080fd5b506101396101343660046123a7565b61038a565b60405161014c97969594939291906127d5565b60405180910390f35b34801561016157600080fd5b506101756101703660046122fa565b610400565b60405161014c9190612655565b34801561018e57600080fd5b5061017561041d565b3480156101a357600080fd5b506101b76101b2366004612386565b610423565b005b6101b761051f565b3480156101cd57600080fd5b506101b76101dc366004612404565b61059d565b3480156101ed57600080fd5b506101b7610eec565b34801561020257600080fd5b5061020b610f00565b60405161014c9190612565565b34801561022457600080fd5b50610238610233366004612343565b610f0f565b60405161014c949392919061265e565b34801561025457600080fd5b506101b76102633660046123d2565b610fca565b34801561027457600080fd5b50610175610283366004612343565b611a03565b34801561029457600080fd5b50610175611a24565b3480156102a957600080fd5b506101b76102b8366004612386565b611a2a565b3480156102c957600080fd5b506102dd6102d836600461235b565b611bc5565b60405161014c91906125b6565b6102fd6102f8366004612343565b611cfa565b60405161014c919061264a565b34801561031657600080fd5b506101b7610325366004612386565b611e17565b34801561033657600080fd5b506101b76103453660046124ff565b611f6e565b34801561035657600080fd5b506101b76103653660046122e0565b61200c565b34801561037657600080fd5b506101b761038536600461243c565b612046565b600660205282600052604060002060205281600052604060002081815481106103b257600080fd5b60009182526020909120600690910201805460018201546002830154600384015460048501546005909501549397506001600160a01b0383169650600160a01b90920460ff16945092909187565b600460209081526000928352604080842090915290825290205481565b60055481565b61042b612127565b60008281526001602052604081209061044482826121e5565b5060006001828101829055600280840192909255600390920180546001600160a01b03191690558054909161047891612853565b8154811061049657634e487b7160e01b600052603260045260246000fd5b9060005260206000200154600282815481106104c257634e487b7160e01b600052603260045260246000fd5b60009182526020909120015560028054806104ed57634e487b7160e01b600052603160045260246000fd5b60019003818190600052602060002001600090559055600360008154809291906105169061286a565b91905055505050565b610562346004600061052f612166565b6001600160a01b03168152602080820192909252604090810160009081206208aa8960eb1b82529092529020549061216a565b6004600061056e612166565b6001600160a01b03168152602080820192909252604090810160009081206208aa8960eb1b8252909252902055565b60008460018111156105bf57634e487b7160e01b600052602160045260246000fd5b1415610623576105cf828261217d565b600460006105db612166565b6001600160a01b03166001600160a01b0316815260200190815260200160002060006208aa8960eb1b815260200190815260200160002054101561061e57600080fd5b610695565b600184600181111561064557634e487b7160e01b600052602160045260246000fd5b1415610695578160046000610658612166565b6001600160a01b03166001600160a01b03168152602001908152602001600020600085815260200190815260200160002054101561069557600080fd5b6000838152600660205260408120818660018111156106c457634e487b7160e01b600052602160045260246000fd5b81526020019081526020016000209050806040518060e0016040528060055481526020016106f0612166565b6001600160a01b0316815260200187600181111561071e57634e487b7160e01b600052602160045260246000fd5b81526020808201889052604080830188905260608301879052600060809093018390528454600180820187559584529282902084516006909402019283559083015182850180546001600160a01b0319166001600160a01b0390921691909117808255918401519394929392909160ff60a01b191690600160a01b9084908111156107b957634e487b7160e01b600052602160045260246000fd5b0217905550606082015160028201556080820151600382015560a0820151600482015560c09091015160059091015580546000906107f8576000610806565b815461080690600190612853565b9050600086600181111561082a57634e487b7160e01b600052602160045260246000fd5b1415610b70575b8015610b6b5781818154811061085757634e487b7160e01b600052603260045260246000fd5b906000526020600020906006020160040154826001836108779190612853565b8154811061089557634e487b7160e01b600052603260045260246000fd5b90600052602060002090600602016004015411156108b257610b6b565b6000826108c0600184612853565b815481106108de57634e487b7160e01b600052603260045260246000fd5b60009182526020918290206040805160e081018252600693909302909101805483526001808201546001600160a01b038116958501959095529293909291840191600160a01b90910460ff169081111561094857634e487b7160e01b600052602160045260246000fd5b600181111561096757634e487b7160e01b600052602160045260246000fd5b815260200160028201548152602001600382015481526020016004820154815260200160058201548152505090508282815481106109b557634e487b7160e01b600052603260045260246000fd5b9060005260206000209060060201836001846109d19190612853565b815481106109ef57634e487b7160e01b600052603260045260246000fd5b6000918252602090912082546006909202019081556001808301805482840180546001600160a01b0319166001600160a01b0390921691909117808255915460ff600160a01b918290041693919260ff60a01b1916918490811115610a6457634e487b7160e01b600052602160045260246000fd5b02179055506002820154816002015560038201548160030155600482015481600401556005820154816005015590505080838381548110610ab557634e487b7160e01b600052603260045260246000fd5b600091825260209182902083516006929092020190815590820151600180830180546001600160a01b0319166001600160a01b03909316929092178083556040850151929160ff60a01b1990911690600160a01b908490811115610b2957634e487b7160e01b600052602160045260246000fd5b0217905550606082015160028201556080820151600382015560a0820151600482015560c09091015160059091015581610b628161286a565b92505050610831565b610ed3565b6001866001811115610b9257634e487b7160e01b600052602160045260246000fd5b1415610ed3575b8015610ed357818181548110610bbf57634e487b7160e01b600052603260045260246000fd5b90600052602060002090600602016004015482600183610bdf9190612853565b81548110610bfd57634e487b7160e01b600052603260045260246000fd5b9060005260206000209060060201600401541015610c1a57610ed3565b600082610c28600184612853565b81548110610c4657634e487b7160e01b600052603260045260246000fd5b60009182526020918290206040805160e081018252600693909302909101805483526001808201546001600160a01b038116958501959095529293909291840191600160a01b90910460ff1690811115610cb057634e487b7160e01b600052602160045260246000fd5b6001811115610ccf57634e487b7160e01b600052602160045260246000fd5b81526020016002820154815260200160038201548152602001600482015481526020016005820154815250509050828281548110610d1d57634e487b7160e01b600052603260045260246000fd5b906000526020600020906006020183600184610d399190612853565b81548110610d5757634e487b7160e01b600052603260045260246000fd5b6000918252602090912082546006909202019081556001808301805482840180546001600160a01b0319166001600160a01b0390921691909117808255915460ff600160a01b918290041693919260ff60a01b1916918490811115610dcc57634e487b7160e01b600052602160045260246000fd5b02179055506002820154816002015560038201548160030155600482015481600401556005820154816005015590505080838381548110610e1d57634e487b7160e01b600052603260045260246000fd5b600091825260209182902083516006929092020190815590820151600180830180546001600160a01b0319166001600160a01b03909316929092178083556040850151929160ff60a01b1990911690600160a01b908490811115610e9157634e487b7160e01b600052602160045260246000fd5b0217905550606082015160028201556080820151600382015560a0820151600482015560c09091015160059091015581610eca8161286a565b92505050610b99565b600554610ee190600161216a565b600555505050505050565b610ef4612127565b610efe6000612189565b565b6000546001600160a01b031690565b600160205260009081526040902080548190610f2a90612881565b80601f0160208091040260200160405190810160405280929190818152602001828054610f5690612881565b8015610fa35780601f10610f7857610100808354040283529160200191610fa3565b820191906000526020600020905b815481529060010190602001808311610f8657829003601f168201915b5050505060018301546002840154600390940154929390929091506001600160a01b031684565b6001836001811115610fec57634e487b7160e01b600052602160045260246000fd5b1415611058578060046000610fff612166565b6001600160a01b03166001600160a01b0316815260200190815260200160002060008481526020019081526020016000205410156110585760405162461bcd60e51b815260040161104f90612715565b60405180910390fd5b60008084600181111561107b57634e487b7160e01b600052602160045260246000fd5b14156110895750600161108d565b5060005b6000838152600660209081526040808320848452909152812090805b8254811080156110b857508482105b156117f55760006110c986846121d9565b905060006111428584815481106110f057634e487b7160e01b600052603260045260246000fd5b90600052602060002090600602016005015486858154811061112257634e487b7160e01b600052603260045260246000fd5b9060005260206000209060060201600301546121d990919063ffffffff16565b9050600082821115611155575081611158565b50805b611162858261216a565b94506111a88187868154811061118857634e487b7160e01b600052603260045260246000fd5b90600052602060002090600602016005015461216a90919063ffffffff16565b8685815481106111c857634e487b7160e01b600052603260045260246000fd5b906000526020600020906006020160050181905550600061122387868154811061120257634e487b7160e01b600052603260045260246000fd5b9060005260206000209060060201600401548361217d90919063ffffffff16565b905060008b600181111561124757634e487b7160e01b600052602160045260246000fd5b141561154557806004600061125a612166565b6001600160a01b03166001600160a01b0316815260200190815260200160002060006208aa8960eb1b815260200190815260200160002054101561129d57600080fd5b6112da82600460006112ad612166565b6001600160a01b03168152602080820192909252604090810160009081208f82529092529020549061216a565b600460006112e6612166565b6001600160a01b03166001600160a01b0316815260200190815260200160002060008c81526020019081526020016000208190555061135e816004600061132b612166565b6001600160a01b03168152602080820192909252604090810160009081206208aa8960eb1b8252909252902054906121d9565b6004600061136a612166565b6001600160a01b03166001600160a01b0316815260200190815260200160002060006208aa8960eb1b81526020019081526020016000208190555061140c82600460008a89815481106113cd57634e487b7160e01b600052603260045260246000fd5b60009182526020808320600160069093020191909101546001600160a01b0316835282810193909352604091820181208f8252909252902054906121d9565b6004600089888154811061143057634e487b7160e01b600052603260045260246000fd5b60009182526020808320600160069093020191909101546001600160a01b0316835282810193909352604091820181208e825290925281209190915587546114dd918391600491908b908a90811061149857634e487b7160e01b600052603260045260246000fd5b60009182526020808320600160069093020191909101546001600160a01b0316835282810193909352604091820181206208aa8960eb1b82529092529020549061216a565b6004600089888154811061150157634e487b7160e01b600052603260045260246000fd5b60009182526020808320600160069093020191909101546001600160a01b0316835282810193909352604091820181206208aa8960eb1b82529092529020556117de565b60018b600181111561156757634e487b7160e01b600052602160045260246000fd5b14156117de576115aa826004600061157d612166565b6001600160a01b03168152602080820192909252604090810160009081208f8252909252902054906121d9565b600460006115b6612166565b6001600160a01b03166001600160a01b0316815260200190815260200160002060008c8152602001908152602001600020819055506115fb816004600061052f612166565b60046000611607612166565b6001600160a01b03166001600160a01b0316815260200190815260200160002060006208aa8960eb1b8152602001908152602001600020819055506116a982600460008a898154811061166a57634e487b7160e01b600052603260045260246000fd5b60009182526020808320600160069093020191909101546001600160a01b0316835282810193909352604091820181208f82529092529020549061216a565b600460008988815481106116cd57634e487b7160e01b600052603260045260246000fd5b60009182526020808320600160069093020191909101546001600160a01b0316835282810193909352604091820181208e8252909252812091909155875461177a918391600491908b908a90811061173557634e487b7160e01b600052603260045260246000fd5b60009182526020808320600160069093020191909101546001600160a01b0316835282810193909352604091820181206208aa8960eb1b8252909252902054906121d9565b6004600089888154811061179e57634e487b7160e01b600052603260045260246000fd5b60009182526020808320600160069093020191909101546001600160a01b0316835282810193909352604091820181206208aa8960eb1b82529092529020555b5050505080806117ed906128bc565b9150506110a9565b505b81541580159061186a57508160008154811061182357634e487b7160e01b600052603260045260246000fd5b9060005260206000209060060201600301548260008154811061185657634e487b7160e01b600052603260045260246000fd5b906000526020600020906006020160050154145b156119fb5760005b825461188090600190612853565b811015611992578261189382600161281c565b815481106118b157634e487b7160e01b600052603260045260246000fd5b90600052602060002090600602018382815481106118df57634e487b7160e01b600052603260045260246000fd5b6000918252602090912082546006909202019081556001808301805482840180546001600160a01b0319166001600160a01b0390921691909117808255915460ff600160a01b918290041693919260ff60a01b191691849081111561195457634e487b7160e01b600052602160045260246000fd5b02179055506002828101549082015560038083015490820155600480830154908201556005918201549101558061198a816128bc565b915050611872565b50818054806119b157634e487b7160e01b600052603160045260246000fd5b6000828152602081206006600019909301928302018181556001810180546001600160a81b03191690556002810182905560038101829055600481018290556005015590556117f7565b505050505050565b60028181548110611a1357600080fd5b600091825260209091200154905081565b60035481565b60008181526001602052604090206003015481906001600160a01b0316611a635760405162461bcd60e51b815260040161104f90612743565b8260046000611a70612166565b6001600160a01b03166001600160a01b031681526020019081526020016000206000848152602001908152602001600020541015611ac05760405162461bcd60e51b815260040161104f90612771565b611afd8360046000611ad0612166565b6001600160a01b0316815260208082019290925260409081016000908120878252909252902054906121d9565b60046000611b09612166565b6001600160a01b039081168252602080830193909352604091820160009081208782528452828120949094556001909252909120600301541663a9059cbb611b4f612166565b856040518363ffffffff1660e01b8152600401611b6d92919061259d565b602060405180830381600087803b158015611b8757600080fd5b505af1158015611b9b573d6000803e3d6000fd5b505050506040513d601f19601f82011682018060405250810190611bbf9190612323565b50505050565b6000828152600660205260408120606091836001811115611bf657634e487b7160e01b600052602160045260246000fd5b8152602001908152602001600020805480602002602001604051908101604052809291908181526020016000905b82821015611cee5760008481526020908190206040805160e08101825260068602909201805483526001808201546001600160a01b038116958501959095529293909291840191600160a01b90910460ff1690811115611c9457634e487b7160e01b600052602160045260246000fd5b6001811115611cb357634e487b7160e01b600052602160045260246000fd5b815260200160028201548152602001600382015481526020016004820154815260200160058201548152505081526020019060010190611c24565b50505050905092915050565b60008160046000611d09612166565b6001600160a01b03166001600160a01b0316815260200190815260200160002060006208aa8960eb1b8152602001908152602001600020541015611d5f5760405162461bcd60e51b815260040161104f90612715565b611d6f826004600061132b612166565b60046000611d7b612166565b6001600160a01b03168152602080820192909252604090810160009081206208aa8960eb1b8252909252812091909155611db3612166565b6001600160a01b031683604051611dc990612562565b60006040518083038185875af1925050503d8060008114611e06576040519150601f19603f3d011682016040523d82523d6000602084013e611e0b565b606091505b5090925050505b919050565b60008181526001602052604090206003015481906001600160a01b0316611e505760405162461bcd60e51b815260040161104f90612743565b6000828152600160205260409020600301546001600160a01b03166323b872dd611e78612166565b30866040518463ffffffff1660e01b8152600401611e9893929190612579565b602060405180830381600087803b158015611eb257600080fd5b505af1158015611ec6573d6000803e3d6000fd5b505050506040513d601f19601f82011682018060405250810190611eea9190612323565b50611f288360046000611efb612166565b6001600160a01b03168152602080820192909252604090810160009081208782529092529020549061216a565b60046000611f34612166565b6001600160a01b03166001600160a01b03168152602001908152602001600020600084815260200190815260200160002081905550505050565b600082815260066020526040812090826001811115611f9d57634e487b7160e01b600052602160045260246000fd5b81526020019081526020016000208381548110611fca57634e487b7160e01b600052603260045260246000fd5b6000918252602082206006909102018181556001810180546001600160a81b031916905560028101829055600381018290556004810182905560050155505050565b612014612127565b6001600160a01b03811661203a5760405162461bcd60e51b815260040161104f906126cf565b61204381612189565b50565b61204e612127565b6040805160808101825285815260208082018690528183018590526001600160a01b038416606083015260008581526001825292909220815180519293919261209a9284920190612221565b5060208201516001828101919091556040830151600280840191909155606090930151600392830180546001600160a01b0319166001600160a01b039092169190911790558254908101835560009283527f405787fa12a823e0f2b7631cc41b3ba8828b3321ca811111fa75cd3aa3bb5ace0184905580549161211c836128bc565b919050555050505050565b61212f612166565b6001600160a01b0316612140610f00565b6001600160a01b031614610efe5760405162461bcd60e51b815260040161104f906127a0565b3390565b6000612176828461281c565b9392505050565b60006121768284612834565b600080546001600160a01b038381166001600160a01b0319831681178455604051919092169283917f8be0079c531659141344cd1fd0a4f28419497f9722a3daafe3b4186f6b6457e09190a35050565b60006121768284612853565b5080546121f190612881565b6000825580601f106122035750612043565b601f01602090049060005260206000209081019061204391906122a5565b82805461222d90612881565b90600052602060002090601f01602090048101928261224f5760008555612295565b82601f1061226857805160ff1916838001178555612295565b82800160010185558215612295579182015b8281111561229557825182559160200191906001019061227a565b506122a19291506122a5565b5090565b5b808211156122a157600081556001016122a6565b80356001600160a01b0381168114611e1257600080fd5b803560028110611e1257600080fd5b6000602082840312156122f1578081fd5b612176826122ba565b6000806040838503121561230c578081fd5b612315836122ba565b946020939093013593505050565b600060208284031215612334578081fd5b81518015158114612176578182fd5b600060208284031215612354578081fd5b5035919050565b6000806040838503121561236d578182fd5b8235915061237d602084016122d1565b90509250929050565b60008060408385031215612398578182fd5b50508035926020909101359150565b6000806000606084860312156123bb578081fd5b505081359360208301359350604090920135919050565b6000806000606084860312156123e6578283fd5b6123ef846122d1565b95602085013595506040909401359392505050565b60008060008060808587031215612419578081fd5b612422856122d1565b966020860135965060408601359560600135945092505050565b60008060008060808587031215612451578384fd5b843567ffffffffffffffff80821115612468578586fd5b818701915087601f83011261247b578586fd5b813560208282111561248f5761248f6128ed565b604051601f8301601f19168101820184811182821017156124b2576124b26128ed565b60405282815284830182018b10156124c8578889fd5b82828601838301379182018101979097529587013594505050604085013591506124f4606086016122ba565b905092959194509250565b600080600060608486031215612513578283fd5b833592506020840135915061252a604085016122d1565b90509250925092565b6001600160a01b03169052565b6002811061255e57634e487b7160e01b600052602160045260246000fd5b9052565b90565b6001600160a01b0391909116815260200190565b6001600160a01b039384168152919092166020820152604081019190915260600190565b6001600160a01b03929092168252602082015260400190565b602080825282518282018190526000919060409081850190868401855b8281101561263d57815180518552868101516001600160a01b0316878601528581015161260287870182612540565b50606081810151908601526080808201519086015260a0808201519086015260c0908101519085015260e090930192908501906001016125d3565b5091979650505050505050565b901515815260200190565b90815260200190565b6000608082528551806080840152815b8181101561268b57602081890181015160a086840101520161266e565b8181111561269c578260a083860101525b506020830186905260408301859052601f01601f1916820160a00190506126c66060830184612533565b95945050505050565b60208082526026908201527f4f776e61626c653a206e6577206f776e657220697320746865207a65726f206160408201526564647265737360d01b606082015260800190565b602080825260149082015273496e73756666696369656e742062616c616e636560601b604082015260600190565b602080825260149082015273151bdad95b88191bd95cc81b9bdd08195e1a5cdd60621b604082015260600190565b60208082526015908201527424b739bab33334b1b4b2b73a103130b630b731b29760591b604082015260600190565b6020808252818101527f4f776e61626c653a2063616c6c6572206973206e6f7420746865206f776e6572604082015260600190565b8781526001600160a01b038716602082015260e081016127f86040830188612540565b8560608301528460808301528360a08301528260c083015298975050505050505050565b6000821982111561282f5761282f6128d7565b500190565b600081600019048311821515161561284e5761284e6128d7565b500290565b600082821015612865576128656128d7565b500390565b600081612879576128796128d7565b506000190190565b60028104600182168061289557607f821691505b602082108114156128b657634e487b7160e01b600052602260045260246000fd5b50919050565b60006000198214156128d0576128d06128d7565b5060010190565b634e487b7160e01b600052601160045260246000fd5b634e487b7160e01b600052604160045260246000fdfea26469706673582212200bbe3963fa5cf5ef3ef78686c4e8bf30c4aad223b3757984810e813014c2a85a64736f6c63430008000033",
  "immutableReferences": {},
  "source": "// SPDX-License-Identifier: UNLICENSED\n\npragma solidity 0.8.0;\npragma experimental ABIEncoderV2;\n\nimport \"./Wallet.sol\";\n\ncontract Dex is Wallet {\n\n    using SafeMath for uint256;\n\n    enum OrderType {\n        BUY,\n        SELL\n    }\n    \n    struct Order {\n        uint256 id;\n        address trader;\n        OrderType orderType;\n        bytes32 symbol;\n        uint256 amount;\n        uint256 price;\n        uint256 filled;\n    }\n\n    // address payable constant FEE_ADDRESS = payable(0x7eaAFED0E594a1ac12f50d59847eBB784c66c45E);\n\n    uint public nextOrderId = 0;\n\n    mapping (bytes32 => mapping (uint => Order[])) public orderBook;\n\n    function getOrderBook(bytes32 _symbol, OrderType _orderType) view public returns (Order[] memory) {\n        return orderBook[_symbol][uint(_orderType)];\n    }\n\n    function deleteOrder(uint256 _orderId, bytes32 _symbol, OrderType _orderType) public {\n        delete orderBook[_symbol][uint(_orderType)][_orderId];\n    }\n\n    function createLimitOrder(OrderType _orderType,  bytes32 _symbol, uint256 _amount, uint256 _price) public {\n        if (_orderType == OrderType.BUY) {\n            require(balances[_msgSender()][\"ETH\"] >= _amount.mul(_price));\n        } else if (_orderType == OrderType.SELL) {\n            require(balances[_msgSender()][_symbol] >= _amount);\n        }\n\n        Order[] storage orders = orderBook[_symbol][uint(_orderType)];\n\n        orders.push(\n            Order(nextOrderId, _msgSender(), _orderType, _symbol, _amount, _price, 0)\n        );\n\n        // Bubble sort\n        uint i = orders.length > 0 ? orders.length - 1 : 0;\n        if(_orderType == OrderType.BUY){\n            while(i > 0){\n                if(orders[i - 1].price > orders[i].price) {\n                    break;\n                }\n                Order memory orderToMove = orders[i - 1];\n                orders[i - 1] = orders[i];\n                orders[i] = orderToMove;\n                i--;\n            }\n        }\n        else if(_orderType == OrderType.SELL){\n            while(i > 0){\n                if(orders[i - 1].price < orders[i].price) {\n                    break;   \n                }\n                Order memory orderToMove = orders[i - 1];\n                orders[i - 1] = orders[i];\n                orders[i] = orderToMove;\n                i--;\n            }\n        }\n\n\n        nextOrderId = nextOrderId.add(1);\n    }\n\n    function createMarketOrder(OrderType _orderType,  bytes32 _symbol, uint256 _amount) public {\n        if (_orderType == OrderType.SELL) {\n            require(balances[_msgSender()][_symbol] >= _amount, \"Insufficient balance\");\n        }\n\n        uint negateOrderType;\n        if (_orderType == OrderType.BUY) {\n            negateOrderType = 1;\n        } else {\n            negateOrderType = 0;\n        }\n\n        Order[] storage orders = orderBook[_symbol][uint(negateOrderType)];\n\n        uint orderFilled;\n        for (uint256 i = 0; i < orders.length && orderFilled < _amount; i++) {\n            uint leftToFill = _amount.sub(orderFilled);\n            uint availableToFill = orders[i].amount.sub(orders[i].filled);\n            uint filled = 0;\n\n            if(availableToFill > leftToFill) {\n                filled = leftToFill;\n            } else {\n                filled = availableToFill;\n            }\n\n            orderFilled = orderFilled.add(filled);\n            orders[i].filled = orders[i].filled.add(filled);\n            uint cost = filled.mul(orders[i].price);\n\n            if (_orderType == OrderType.BUY) {\n                require(balances[_msgSender()][ETH] >= cost);\n                balances[_msgSender()][_symbol] = balances[_msgSender()][_symbol].add(filled);\n                balances[_msgSender()][ETH] = balances[_msgSender()][ETH].sub(cost);\n\n                balances[orders[i].trader][_symbol] = balances[orders[i].trader][_symbol].sub(filled);\n                balances[orders[i].trader][ETH] = balances[orders[i].trader][ETH].add(cost);\n\n                // _transfer(FEE_ADDRESS, _amount);\n            } else if (_orderType == OrderType.SELL) {\n                balances[_msgSender()][_symbol] = balances[_msgSender()][_symbol].sub(filled);\n                balances[_msgSender()][ETH] = balances[_msgSender()][ETH].add(cost);\n\n                balances[orders[i].trader][_symbol] = balances[orders[i].trader][_symbol].add(filled);\n                balances[orders[i].trader][ETH] = balances[orders[i].trader][ETH].sub(cost);\n\n                // _transfer(FEE_ADDRESS, _amount);\n            }\n        }\n\n        while(orders.length > 0 && orders[0].filled == orders[0].amount) {\n            for (uint256 i = 0; i < orders.length -1; i++) {\n                orders[i] = orders[i+1];\n            }\n            orders.pop();\n        }\n    }\n\n    function _transfer(address payable recipient, uint amount) private returns(bool) {\n        (bool success,) = recipient.call{value: amount}(\"\");\n        return success;\n    }\n}",
  "sourcePath": "/Users/shaunlindsley/Desktop/coding/moralis-academy-courses/dex/contracts/Dex.sol",
  "compiler": {
    "name": "solc",
    "version": "0.8.0+commit.c7dfd78e.Emscripten.clang"
  },
  "schemaVersion": "3.4.14",
  "updatedAt": "2023-08-05T13:31:49.723Z",
  "networkType": "ethereum",
  "devdoc": {
    "kind": "dev",
    "methods": {
      "addToken(string,bytes32,bytes32,address)": {
        "details": "Add a token into the tokens mapping"
      },
      "deposit(uint256,bytes32)": {
        "details": "Deposit tokens to your account"
      },
      "depositEth()": {
        "details": "Deposit ETH into your account"
      },
      "owner()": {
        "details": "Returns the address of the current owner."
      },
      "renounceOwnership()": {
        "details": "Leaves the contract without owner. It will not be possible to call `onlyOwner` functions. Can only be called by the current owner. NOTE: Renouncing ownership will leave the contract without an owner, thereby disabling any functionality that is only available to the owner."
      },
      "transferOwnership(address)": {
        "details": "Transfers ownership of the contract to a new account (`newOwner`). Can only be called by the current owner."
      },
      "withdraw(uint256,bytes32)": {
        "details": "Withdraw tokens from your account"
      }
    },
    "version": 1
  },
  "userdoc": {
    "kind": "user",
    "methods": {},
    "version": 1
  }
}