{
  "contractName": "Wallet",
  "abi": [
    {
      "inputs": [],
      "stateMutability": "nonpayable",
      "type": "constructor"
    },
    {
      "anonymous": false,
      "inputs": [
        {
          "indexed": true,
          "internalType": "address",
          "name": "previousOwner",
          "type": "address"
        },
        {
          "indexed": true,
          "internalType": "address",
          "name": "newOwner",
          "type": "address"
        }
      ],
      "name": "OwnershipTransferred",
      "type": "event"
    },
    {
      "inputs": [
        {
          "internalType": "address",
          "name": "",
          "type": "address"
        },
        {
          "internalType": "bytes32",
          "name": "",
          "type": "bytes32"
        }
      ],
      "name": "balances",
      "outputs": [
        {
          "internalType": "uint256",
          "name": "",
          "type": "uint256"
        }
      ],
      "stateMutability": "view",
      "type": "function"
    },
    {
      "inputs": [],
      "name": "owner",
      "outputs": [
        {
          "internalType": "address",
          "name": "",
          "type": "address"
        }
      ],
      "stateMutability": "view",
      "type": "function"
    },
    {
      "inputs": [],
      "name": "renounceOwnership",
      "outputs": [],
      "stateMutability": "nonpayable",
      "type": "function"
    },
    {
      "inputs": [
        {
          "internalType": "uint256",
          "name": "",
          "type": "uint256"
        }
      ],
      "name": "tokenList",
      "outputs": [
        {
          "internalType": "bytes32",
          "name": "",
          "type": "bytes32"
        }
      ],
      "stateMutability": "view",
      "type": "function"
    },
    {
      "inputs": [],
      "name": "tokenListCount",
      "outputs": [
        {
          "internalType": "uint256",
          "name": "",
          "type": "uint256"
        }
      ],
      "stateMutability": "view",
      "type": "function"
    },
    {
      "inputs": [
        {
          "internalType": "bytes32",
          "name": "",
          "type": "bytes32"
        }
      ],
      "name": "tokens",
      "outputs": [
        {
          "internalType": "bytes32",
          "name": "name",
          "type": "bytes32"
        },
        {
          "internalType": "bytes32",
          "name": "ticker",
          "type": "bytes32"
        },
        {
          "internalType": "address",
          "name": "tokenAddress",
          "type": "address"
        }
      ],
      "stateMutability": "view",
      "type": "function"
    },
    {
      "inputs": [
        {
          "internalType": "address",
          "name": "newOwner",
          "type": "address"
        }
      ],
      "name": "transferOwnership",
      "outputs": [],
      "stateMutability": "nonpayable",
      "type": "function"
    },
    {
      "inputs": [
        {
          "internalType": "bytes32",
          "name": "_name",
          "type": "bytes32"
        },
        {
          "internalType": "bytes32",
          "name": "_ticker",
          "type": "bytes32"
        },
        {
          "internalType": "address",
          "name": "_tokenAddress",
          "type": "address"
        }
      ],
      "name": "addToken",
      "outputs": [],
      "stateMutability": "nonpayable",
      "type": "function"
    },
    {
      "inputs": [],
      "name": "depositEth",
      "outputs": [],
      "stateMutability": "payable",
      "type": "function"
    },
    {
      "inputs": [
        {
          "internalType": "uint256",
          "name": "_amount",
          "type": "uint256"
        }
      ],
      "name": "withdrawEth",
      "outputs": [
        {
          "internalType": "bool",
          "name": "",
          "type": "bool"
        }
      ],
      "stateMutability": "payable",
      "type": "function"
    },
    {
      "inputs": [
        {
          "internalType": "uint256",
          "name": "_amount",
          "type": "uint256"
        },
        {
          "internalType": "bytes32",
          "name": "_ticker",
          "type": "bytes32"
        }
      ],
      "name": "deposit",
      "outputs": [],
      "stateMutability": "nonpayable",
      "type": "function"
    },
    {
      "inputs": [
        {
          "internalType": "uint256",
          "name": "_amount",
          "type": "uint256"
        },
        {
          "internalType": "bytes32",
          "name": "_ticker",
          "type": "bytes32"
        }
      ],
      "name": "withdraw",
      "outputs": [],
      "stateMutability": "nonpayable",
      "type": "function"
    }
  ],
  "bytecode": "0x608060405260006003553480156200001657600080fd5b506200002b6200002562000050565b62000054565b6200004a67457468657265756d60c01b6208aa8960eb1b6000620000a4565b62000225565b3390565b600080546001600160a01b038381166001600160a01b0319831681178455604051919092169283917f8be0079c531659141344cd1fd0a4f28419497f9722a3daafe3b4186f6b6457e09190a35050565b620000ae62000156565b6040805160608101825284815260208082018581526001600160a01b03858116848601908152600088815260018086529681209551865592518587015551600294850180546001600160a01b03191691909216179055825480850184559290527f405787fa12a823e0f2b7631cc41b3ba8828b3321ca811111fa75cd3aa3bb5ace9091018490556003546200014e929091620001a7811b6200085e17901c565b600355505050565b6200016062000050565b6001600160a01b031662000173620001bc565b6001600160a01b031614620001a55760405162461bcd60e51b81526004016200019c90620001cb565b60405180910390fd5b565b6000620001b5828462000200565b9392505050565b6000546001600160a01b031690565b6020808252818101527f4f776e61626c653a2063616c6c6572206973206e6f7420746865206f776e6572604082015260600190565b600082198211156200022057634e487b7160e01b81526011600452602481fd5b500190565b610bff80620002356000396000f3fe6080604052600436106100a75760003560e01c80639ead7222116100645780639ead722214610172578063a43ad7e714610192578063a8d2021a146101a7578063c311d049146101c7578063c9630cb0146101e7578063f2fde38b14610207576100a7565b80631f14df69146100ac578063439370b1146100e2578063715018a6146100ec5780637d154034146101015780638da5cb5b14610121578063904194a314610143575b600080fd5b3480156100b857600080fd5b506100cc6100c7366004610941565b610227565b6040516100d99190610a56565b60405180910390f35b6100ea610244565b005b3480156100f857600080fd5b506100ea6102c2565b34801561010d57600080fd5b506100ea61011c3660046109a2565b6102d6565b34801561012d57600080fd5b5061013661037a565b6040516100d991906109fa565b34801561014f57600080fd5b5061016361015e36600461098a565b610389565b6040516100d993929190610a5f565b34801561017e57600080fd5b506100cc61018d36600461098a565b6103b2565b34801561019e57600080fd5b506100cc6103d3565b3480156101b357600080fd5b506100ea6101c23660046109d6565b6103d9565b6101da6101d536600461098a565b61057d565b6040516100d99190610a4b565b3480156101f357600080fd5b506100ea6102023660046109d6565b6106cd565b34801561021357600080fd5b506100ea610222366004610927565b610824565b600460209081526000928352604080842090915290825290205481565b6102873460046000610254610871565b6001600160a01b03168152602080820192909252604090810160009081206208aa8960eb1b82529092529020549061085e565b60046000610293610871565b6001600160a01b03168152602080820192909252604090810160009081206208aa8960eb1b8252909252902055565b6102ca610875565b6102d460006108b4565b565b6102de610875565b6040805160608101825284815260208082018581526001600160a01b038581168486019081526000888152600194859052958620945185559151848401559051600293840180546001600160a01b0319169190921617905581548082018355919092527f405787fa12a823e0f2b7631cc41b3ba8828b3321ca811111fa75cd3aa3bb5ace018390556003546103729161085e565b600355505050565b6000546001600160a01b031690565b60016020819052600091825260409091208054918101546002909101546001600160a01b031683565b600281815481106103c257600080fd5b600091825260209091200154905081565b60035481565b60008181526001602052604090206002015481906001600160a01b031661041b5760405162461bcd60e51b815260040161041290610af2565b60405180910390fd5b8260046000610428610871565b6001600160a01b03166001600160a01b0316815260200190815260200160002060008481526020019081526020016000205410156104785760405162461bcd60e51b815260040161041290610b20565b6104b58360046000610488610871565b6001600160a01b031681526020808201929092526040908101600090812087825290925290205490610904565b600460006104c1610871565b6001600160a01b039081168252602080830193909352604091820160009081208782528452828120949094556001909252909120600201541663a9059cbb610507610871565b856040518363ffffffff1660e01b8152600401610525929190610a32565b602060405180830381600087803b15801561053f57600080fd5b505af1158015610553573d6000803e3d6000fd5b505050506040513d601f19601f82011682018060405250810190610577919061096a565b50505050565b6000816004600061058c610871565b6001600160a01b03166001600160a01b0316815260200190815260200160002060006208aa8960eb1b81526020019081526020016000205410156105e25760405162461bcd60e51b815260040161041290610ac4565b61062582600460006105f2610871565b6001600160a01b03168152602080820192909252604090810160009081206208aa8960eb1b825290925290205490610904565b60046000610631610871565b6001600160a01b03168152602080820192909252604090810160009081206208aa8960eb1b8252909252812091909155610669610871565b6001600160a01b03168360405161067f906109f7565b60006040518083038185875af1925050503d80600081146106bc576040519150601f19603f3d011682016040523d82523d6000602084013e6106c1565b606091505b5090925050505b919050565b60008181526001602052604090206002015481906001600160a01b03166107065760405162461bcd60e51b815260040161041290610af2565b6000828152600160205260409020600201546001600160a01b03166323b872dd61072e610871565b30866040518463ffffffff1660e01b815260040161074e93929190610a0e565b602060405180830381600087803b15801561076857600080fd5b505af115801561077c573d6000803e3d6000fd5b505050506040513d601f19601f820116820180604052508101906107a0919061096a565b506107de83600460006107b1610871565b6001600160a01b03168152602080820192909252604090810160009081208782529092529020549061085e565b600460006107ea610871565b6001600160a01b03166001600160a01b03168152602001908152602001600020600084815260200190815260200160002081905550505050565b61082c610875565b6001600160a01b0381166108525760405162461bcd60e51b815260040161041290610a7e565b61085b816108b4565b50565b600061086a8284610b84565b9392505050565b3390565b61087d610871565b6001600160a01b031661088e61037a565b6001600160a01b0316146102d45760405162461bcd60e51b815260040161041290610b4f565b600080546001600160a01b038381166001600160a01b0319831681178455604051919092169283917f8be0079c531659141344cd1fd0a4f28419497f9722a3daafe3b4186f6b6457e09190a35050565b600061086a8284610b9c565b80356001600160a01b03811681146106c857600080fd5b600060208284031215610938578081fd5b61086a82610910565b60008060408385031215610953578081fd5b61095c83610910565b946020939093013593505050565b60006020828403121561097b578081fd5b8151801515811461086a578182fd5b60006020828403121561099b578081fd5b5035919050565b6000806000606084860312156109b6578081fd5b83359250602084013591506109cd60408501610910565b90509250925092565b600080604083850312156109e8578182fd5b50508035926020909101359150565b90565b6001600160a01b0391909116815260200190565b6001600160a01b039384168152919092166020820152604081019190915260600190565b6001600160a01b03929092168252602082015260400190565b901515815260200190565b90815260200190565b92835260208301919091526001600160a01b0316604082015260600190565b60208082526026908201527f4f776e61626c653a206e6577206f776e657220697320746865207a65726f206160408201526564647265737360d01b606082015260800190565b602080825260149082015273496e73756666696369656e742062616c616e636560601b604082015260600190565b602080825260149082015273151bdad95b88191bd95cc81b9bdd08195e1a5cdd60621b604082015260600190565b60208082526015908201527424b739bab33334b1b4b2b73a103130b630b731b29760591b604082015260600190565b6020808252818101527f4f776e61626c653a2063616c6c6572206973206e6f7420746865206f776e6572604082015260600190565b60008219821115610b9757610b97610bb3565b500190565b600082821015610bae57610bae610bb3565b500390565b634e487b7160e01b600052601160045260246000fdfea2646970667358221220b3cd698eaa371834ab59340dd0e2c4082b5e68554b664dce3a2605ffb798001064736f6c63430008000033",
  "immutableReferences": {},
  "source": "// SPDX-License-Identifier: UNLICENSED\n\npragma solidity 0.8.0;\n\nimport \"../node_modules/@openzeppelin/contracts/token/ERC20/IERC20.sol\";\nimport \"../node_modules/@openzeppelin/contracts/utils/Context.sol\";\nimport \"../node_modules/@openzeppelin/contracts/utils/math/SafeMath.sol\";\nimport \"../node_modules/@openzeppelin/contracts/access/Ownable.sol\";\n\n/**\n* @dev This contract handles the global balances mapping of the dex, along with\n* functions that enable the user to interact with the data storage\n*/\ncontract Wallet is Context, Ownable  {\n\n    using SafeMath for uint256;\n\n    /**\n    * @dev Modifier for deposit and withdraw functions to check if the token/ETH actually\n    * exists in contract\n    */\n    modifier tokenExists(bytes32 _ticker) {\n        require(tokens[_ticker].tokenAddress != address(0), \"Token does not exist\");\n        _;\n    }\n    \n    struct Token {\n        bytes32 name;\n        bytes32 ticker;\n        address tokenAddress;\n    }\n\n    mapping (bytes32 => Token) public tokens;\n    bytes32[] public tokenList;\n    uint256 public tokenListCount = 0;\n\n    mapping (address => mapping (bytes32 => uint256)) public balances;\n\n    bytes32 constant ETH = bytes32(\"ETH\");\n\n    constructor() {\n        // Initialise with ETH\n        addToken(\n            0x457468657265756d000000000000000000000000000000000000000000000000, \n            0x4554480000000000000000000000000000000000000000000000000000000000,\n            0x0000000000000000000000000000000000000000\n        );\n    }\n\n    /**\n    * @dev Add a token into the tokens mapping\n    */\n    function addToken(bytes32 _name, bytes32 _ticker, address _tokenAddress) public onlyOwner() {\n        tokens[_ticker] = Token(_name, _ticker, _tokenAddress);\n        tokenList.push(_ticker);\n        tokenListCount = tokenListCount.add(1);\n    }\n\n    /**\n    * @dev Deposit ETH into your account\n    */\n    function depositEth() public payable {\n        balances[_msgSender()][ETH] = balances[_msgSender()][ETH].add(msg.value);\n    }\n\n    function withdrawEth(uint256 _amount) public payable returns (bool) {\n        require(balances[_msgSender()][ETH] >= _amount, \"Insufficient balance\");\n        balances[_msgSender()][ETH] = balances[_msgSender()][ETH].sub(_amount);\n        (bool success,) = _msgSender().call{value: _amount}(\"\");\n        return success;\n    }\n\n    /**\n    * @dev Deposit tokens to your account\n    */\n    function deposit(uint256 _amount, bytes32 _ticker) public tokenExists(_ticker) {\n        IERC20(tokens[_ticker].tokenAddress).transferFrom(_msgSender(), address(this), _amount);\n        balances[_msgSender()][_ticker] = balances[_msgSender()][_ticker].add(_amount);\n    }\n\n    /**\n    * @dev Withdraw tokens from your account\n    */\n    function withdraw(uint256 _amount, bytes32 _ticker) public tokenExists(_ticker) {\n        require(balances[_msgSender()][_ticker] >= _amount, \"Insufficient balance.\");\n        balances[_msgSender()][_ticker] = balances[_msgSender()][_ticker].sub(_amount);\n        IERC20(tokens[_ticker].tokenAddress).transfer(_msgSender(), _amount);\n    }\n\n}",
  "sourcePath": "/Users/shaunlindsley/Desktop/coding/moralis-academy-courses/dex/contracts/Wallet.sol",
  "compiler": {
    "name": "solc",
    "version": "0.8.0+commit.c7dfd78e.Emscripten.clang"
  },
  "schemaVersion": "3.4.14",
  "updatedAt": "2023-08-01T10:05:50.606Z",
  "devdoc": {
    "details": "This contract handles the global balances mapping of the dex, along with functions that enable the user to interact with the data storage",
    "kind": "dev",
    "methods": {
      "addToken(bytes32,bytes32,address)": {
        "details": "Add a token into the tokens mapping"
      },
      "deposit(uint256,bytes32)": {
        "details": "Deposit tokens to your account"
      },
      "depositEth()": {
        "details": "Deposit ETH into your account"
      },
      "owner()": {
        "details": "Returns the address of the current owner."
      },
      "renounceOwnership()": {
        "details": "Leaves the contract without owner. It will not be possible to call `onlyOwner` functions. Can only be called by the current owner. NOTE: Renouncing ownership will leave the contract without an owner, thereby disabling any functionality that is only available to the owner."
      },
      "transferOwnership(address)": {
        "details": "Transfers ownership of the contract to a new account (`newOwner`). Can only be called by the current owner."
      },
      "withdraw(uint256,bytes32)": {
        "details": "Withdraw tokens from your account"
      }
    },
    "version": 1
  },
  "userdoc": {
    "kind": "user",
    "methods": {},
    "version": 1
  }
}