{
  "contractName": "Wallet",
  "abi": [
    {
      "inputs": [],
      "stateMutability": "nonpayable",
      "type": "constructor"
    },
    {
      "anonymous": false,
      "inputs": [
        {
          "indexed": true,
          "internalType": "address",
          "name": "previousOwner",
          "type": "address"
        },
        {
          "indexed": true,
          "internalType": "address",
          "name": "newOwner",
          "type": "address"
        }
      ],
      "name": "OwnershipTransferred",
      "type": "event"
    },
    {
      "inputs": [
        {
          "internalType": "address",
          "name": "",
          "type": "address"
        },
        {
          "internalType": "bytes32",
          "name": "",
          "type": "bytes32"
        }
      ],
      "name": "balances",
      "outputs": [
        {
          "internalType": "uint256",
          "name": "",
          "type": "uint256"
        }
      ],
      "stateMutability": "view",
      "type": "function"
    },
    {
      "inputs": [],
      "name": "owner",
      "outputs": [
        {
          "internalType": "address",
          "name": "",
          "type": "address"
        }
      ],
      "stateMutability": "view",
      "type": "function"
    },
    {
      "inputs": [],
      "name": "renounceOwnership",
      "outputs": [],
      "stateMutability": "nonpayable",
      "type": "function"
    },
    {
      "inputs": [
        {
          "internalType": "uint256",
          "name": "",
          "type": "uint256"
        }
      ],
      "name": "tokenList",
      "outputs": [
        {
          "internalType": "bytes32",
          "name": "",
          "type": "bytes32"
        }
      ],
      "stateMutability": "view",
      "type": "function"
    },
    {
      "inputs": [],
      "name": "tokenListCount",
      "outputs": [
        {
          "internalType": "uint256",
          "name": "",
          "type": "uint256"
        }
      ],
      "stateMutability": "view",
      "type": "function"
    },
    {
      "inputs": [
        {
          "internalType": "bytes32",
          "name": "",
          "type": "bytes32"
        }
      ],
      "name": "tokens",
      "outputs": [
        {
          "internalType": "string",
          "name": "id",
          "type": "string"
        },
        {
          "internalType": "bytes32",
          "name": "name",
          "type": "bytes32"
        },
        {
          "internalType": "bytes32",
          "name": "ticker",
          "type": "bytes32"
        },
        {
          "internalType": "address",
          "name": "tokenAddress",
          "type": "address"
        }
      ],
      "stateMutability": "view",
      "type": "function"
    },
    {
      "inputs": [
        {
          "internalType": "address",
          "name": "newOwner",
          "type": "address"
        }
      ],
      "name": "transferOwnership",
      "outputs": [],
      "stateMutability": "nonpayable",
      "type": "function"
    },
    {
      "inputs": [
        {
          "internalType": "string",
          "name": "_id",
          "type": "string"
        },
        {
          "internalType": "bytes32",
          "name": "_name",
          "type": "bytes32"
        },
        {
          "internalType": "bytes32",
          "name": "_ticker",
          "type": "bytes32"
        },
        {
          "internalType": "address",
          "name": "_tokenAddress",
          "type": "address"
        }
      ],
      "name": "addToken",
      "outputs": [],
      "stateMutability": "nonpayable",
      "type": "function"
    },
    {
      "inputs": [
        {
          "internalType": "bytes32",
          "name": "_ticker",
          "type": "bytes32"
        },
        {
          "internalType": "uint256",
          "name": "_index",
          "type": "uint256"
        }
      ],
      "name": "deleteToken",
      "outputs": [],
      "stateMutability": "nonpayable",
      "type": "function"
    },
    {
      "inputs": [],
      "name": "depositEth",
      "outputs": [],
      "stateMutability": "payable",
      "type": "function"
    },
    {
      "inputs": [
        {
          "internalType": "uint256",
          "name": "_amount",
          "type": "uint256"
        }
      ],
      "name": "withdrawEth",
      "outputs": [
        {
          "internalType": "bool",
          "name": "",
          "type": "bool"
        }
      ],
      "stateMutability": "payable",
      "type": "function"
    },
    {
      "inputs": [
        {
          "internalType": "uint256",
          "name": "_amount",
          "type": "uint256"
        },
        {
          "internalType": "bytes32",
          "name": "_ticker",
          "type": "bytes32"
        }
      ],
      "name": "deposit",
      "outputs": [],
      "stateMutability": "nonpayable",
      "type": "function"
    },
    {
      "inputs": [
        {
          "internalType": "uint256",
          "name": "_amount",
          "type": "uint256"
        },
        {
          "internalType": "bytes32",
          "name": "_ticker",
          "type": "bytes32"
        }
      ],
      "name": "withdraw",
      "outputs": [],
      "stateMutability": "nonpayable",
      "type": "function"
    }
  ],
  "bytecode": "0x608060405260006003553480156200001657600080fd5b506200002b6200002562000074565b62000078565b60408051808201909152600c81526b6574682d657468657265756d60a01b60208201526200006e9067457468657265756d60c01b6208aa8960eb1b6000620000c8565b6200034f565b3390565b600080546001600160a01b038381166001600160a01b0319831681178455604051919092169283917f8be0079c531659141344cd1fd0a4f28419497f9722a3daafe3b4186f6b6457e09190a35050565b620000d2620001af565b6040805160808101825285815260208082018690528183018590526001600160a01b03841660608301526000858152600182529290922081518051929391926200012092849201906200020f565b5060208201516001828101919091556040830151600280840191909155606090930151600392830180546001600160a01b0319166001600160a01b039092169190911790558254908101835560009283527f405787fa12a823e0f2b7631cc41b3ba8828b3321ca811111fa75cd3aa3bb5ace01849055805491620001a48362000327565b919050555050505050565b620001b962000074565b6001600160a01b0316620001cc62000200565b6001600160a01b031614620001fe5760405162461bcd60e51b8152600401620001f590620002b5565b60405180910390fd5b565b6000546001600160a01b031690565b8280546200021d90620002ea565b90600052602060002090601f0160209004810192826200024157600085556200028c565b82601f106200025c57805160ff19168380011785556200028c565b828001600101855582156200028c579182015b828111156200028c5782518255916020019190600101906200026f565b506200029a9291506200029e565b5090565b5b808211156200029a57600081556001016200029f565b6020808252818101527f4f776e61626c653a2063616c6c6572206973206e6f7420746865206f776e6572604082015260600190565b600281046001821680620002ff57607f821691505b602082108114156200032157634e487b7160e01b600052602260045260246000fd5b50919050565b60006000198214156200034857634e487b7160e01b81526011600452602481fd5b5060010190565b61104d806200035f6000396000f3fe6080604052600436106100c25760003560e01c80639ead72221161007f578063c311d04911610059578063c311d049146101e3578063c9630cb014610203578063f2fde38b14610223578063fae1cbce14610243576100c2565b80639ead72221461018e578063a43ad7e7146101ae578063a8d2021a146101c3576100c2565b80631f14df69146100c757806336bb4526146100fd578063439370b11461011f578063715018a6146101275780638da5cb5b1461013c578063904194a31461015e575b600080fd5b3480156100d357600080fd5b506100e76100e2366004610c1d565b610263565b6040516100f49190610dcf565b60405180910390f35b34801561010957600080fd5b5061011d610118366004610c7e565b610280565b005b61011d61037c565b34801561013357600080fd5b5061011d6103fa565b34801561014857600080fd5b5061015161040e565b6040516100f49190610d73565b34801561016a57600080fd5b5061017e610179366004610c66565b61041d565b6040516100f49493929190610dd8565b34801561019a57600080fd5b506100e76101a9366004610c66565b6104d8565b3480156101ba57600080fd5b506100e76104f9565b3480156101cf57600080fd5b5061011d6101de366004610c7e565b6104ff565b6101f66101f1366004610c66565b6106a3565b6040516100f49190610dc4565b34801561020f57600080fd5b5061011d61021e366004610c7e565b6107f3565b34801561022f57600080fd5b5061011d61023e366004610c03565b61094a565b34801561024f57600080fd5b5061011d61025e366004610c9f565b610984565b600460209081526000928352604080842090915290825290205481565b610288610a65565b6000828152600160205260408120906102a18282610b17565b5060006001828101829055600280840192909255600390920180546001600160a01b0319169055805490916102d591610f67565b815481106102f357634e487b7160e01b600052603260045260246000fd5b90600052602060002001546002828154811061031f57634e487b7160e01b600052603260045260246000fd5b600091825260209091200155600280548061034a57634e487b7160e01b600052603160045260246000fd5b600190038181906000526020600020016000905590556003600081548092919061037390610f7e565b91905055505050565b6103bf346004600061038c610aa4565b6001600160a01b03168152602080820192909252604090810160009081206208aa8960eb1b825290925290205490610aa8565b600460006103cb610aa4565b6001600160a01b03168152602080820192909252604090810160009081206208aa8960eb1b8252909252902055565b610402610a65565b61040c6000610abb565b565b6000546001600160a01b031690565b60016020526000908152604090208054819061043890610f95565b80601f016020809104026020016040519081016040528092919081815260200182805461046490610f95565b80156104b15780601f10610486576101008083540402835291602001916104b1565b820191906000526020600020905b81548152906001019060200180831161049457829003601f168201915b5050505060018301546002840154600390940154929390929091506001600160a01b031684565b600281815481106104e857600080fd5b600091825260209091200154905081565b60035481565b60008181526001602052604090206003015481906001600160a01b03166105415760405162461bcd60e51b815260040161053890610ebd565b60405180910390fd5b826004600061054e610aa4565b6001600160a01b03166001600160a01b03168152602001908152602001600020600084815260200190815260200160002054101561059e5760405162461bcd60e51b815260040161053890610eeb565b6105db83600460006105ae610aa4565b6001600160a01b031681526020808201929092526040908101600090812087825290925290205490610b0b565b600460006105e7610aa4565b6001600160a01b039081168252602080830193909352604091820160009081208782528452828120949094556001909252909120600301541663a9059cbb61062d610aa4565b856040518363ffffffff1660e01b815260040161064b929190610dab565b602060405180830381600087803b15801561066557600080fd5b505af1158015610679573d6000803e3d6000fd5b505050506040513d601f19601f8201168201806040525081019061069d9190610c46565b50505050565b600081600460006106b2610aa4565b6001600160a01b03166001600160a01b0316815260200190815260200160002060006208aa8960eb1b81526020019081526020016000205410156107085760405162461bcd60e51b815260040161053890610e8f565b61074b8260046000610718610aa4565b6001600160a01b03168152602080820192909252604090810160009081206208aa8960eb1b825290925290205490610b0b565b60046000610757610aa4565b6001600160a01b03168152602080820192909252604090810160009081206208aa8960eb1b825290925281209190915561078f610aa4565b6001600160a01b0316836040516107a590610d70565b60006040518083038185875af1925050503d80600081146107e2576040519150601f19603f3d011682016040523d82523d6000602084013e6107e7565b606091505b5090925050505b919050565b60008181526001602052604090206003015481906001600160a01b031661082c5760405162461bcd60e51b815260040161053890610ebd565b6000828152600160205260409020600301546001600160a01b03166323b872dd610854610aa4565b30866040518463ffffffff1660e01b815260040161087493929190610d87565b602060405180830381600087803b15801561088e57600080fd5b505af11580156108a2573d6000803e3d6000fd5b505050506040513d601f19601f820116820180604052508101906108c69190610c46565b5061090483600460006108d7610aa4565b6001600160a01b031681526020808201929092526040908101600090812087825290925290205490610aa8565b60046000610910610aa4565b6001600160a01b03166001600160a01b03168152602001908152602001600020600084815260200190815260200160002081905550505050565b610952610a65565b6001600160a01b0381166109785760405162461bcd60e51b815260040161053890610e49565b61098181610abb565b50565b61098c610a65565b6040805160808101825285815260208082018690528183018590526001600160a01b03841660608301526000858152600182529290922081518051929391926109d89284920190610b53565b5060208201516001828101919091556040830151600280840191909155606090930151600392830180546001600160a01b0319166001600160a01b039092169190911790558254908101835560009283527f405787fa12a823e0f2b7631cc41b3ba8828b3321ca811111fa75cd3aa3bb5ace01849055805491610a5a83610fd0565b919050555050505050565b610a6d610aa4565b6001600160a01b0316610a7e61040e565b6001600160a01b03161461040c5760405162461bcd60e51b815260040161053890610f1a565b3390565b6000610ab48284610f4f565b9392505050565b600080546001600160a01b038381166001600160a01b0319831681178455604051919092169283917f8be0079c531659141344cd1fd0a4f28419497f9722a3daafe3b4186f6b6457e09190a35050565b6000610ab48284610f67565b508054610b2390610f95565b6000825580601f10610b355750610981565b601f0160209004906000526020600020908101906109819190610bd7565b828054610b5f90610f95565b90600052602060002090601f016020900481019282610b815760008555610bc7565b82601f10610b9a57805160ff1916838001178555610bc7565b82800160010185558215610bc7579182015b82811115610bc7578251825591602001919060010190610bac565b50610bd3929150610bd7565b5090565b5b80821115610bd35760008155600101610bd8565b80356001600160a01b03811681146107ee57600080fd5b600060208284031215610c14578081fd5b610ab482610bec565b60008060408385031215610c2f578081fd5b610c3883610bec565b946020939093013593505050565b600060208284031215610c57578081fd5b81518015158114610ab4578182fd5b600060208284031215610c77578081fd5b5035919050565b60008060408385031215610c90578182fd5b50508035926020909101359150565b60008060008060808587031215610cb4578182fd5b843567ffffffffffffffff80821115610ccb578384fd5b818701915087601f830112610cde578384fd5b8135602082821115610cf257610cf2611001565b604051601f8301601f1916810182018481118282101715610d1557610d15611001565b60405282815284830182018b1015610d2b578687fd5b828286018383013791820181019590955295505050908401359150604084013590610d5860608601610bec565b905092959194509250565b6001600160a01b03169052565b90565b6001600160a01b0391909116815260200190565b6001600160a01b039384168152919092166020820152604081019190915260600190565b6001600160a01b03929092168252602082015260400190565b901515815260200190565b90815260200190565b6000608082528551806080840152815b81811015610e0557602081890181015160a0868401015201610de8565b81811115610e16578260a083860101525b506020830186905260408301859052601f01601f1916820160a0019050610e406060830184610d63565b95945050505050565b60208082526026908201527f4f776e61626c653a206e6577206f776e657220697320746865207a65726f206160408201526564647265737360d01b606082015260800190565b602080825260149082015273496e73756666696369656e742062616c616e636560601b604082015260600190565b602080825260149082015273151bdad95b88191bd95cc81b9bdd08195e1a5cdd60621b604082015260600190565b60208082526015908201527424b739bab33334b1b4b2b73a103130b630b731b29760591b604082015260600190565b6020808252818101527f4f776e61626c653a2063616c6c6572206973206e6f7420746865206f776e6572604082015260600190565b60008219821115610f6257610f62610feb565b500190565b600082821015610f7957610f79610feb565b500390565b600081610f8d57610f8d610feb565b506000190190565b600281046001821680610fa957607f821691505b60208210811415610fca57634e487b7160e01b600052602260045260246000fd5b50919050565b6000600019821415610fe457610fe4610feb565b5060010190565b634e487b7160e01b600052601160045260246000fd5b634e487b7160e01b600052604160045260246000fdfea2646970667358221220a510a36939b5a9b3227c95864fcf5606ef064c25ced375373408cd2abcf4aebc64736f6c63430008000033",
  "immutableReferences": {},
  "source": "// SPDX-License-Identifier: UNLICENSED\n\npragma solidity 0.8.0;\n\nimport \"../node_modules/@openzeppelin/contracts/token/ERC20/IERC20.sol\";\nimport \"../node_modules/@openzeppelin/contracts/utils/Context.sol\";\nimport \"../node_modules/@openzeppelin/contracts/utils/math/SafeMath.sol\";\nimport \"../node_modules/@openzeppelin/contracts/access/Ownable.sol\";\n\n/**\n* @dev This contract handles the global balances mapping of the dex, along with\n* functions that enable the user to interact with the data storage\n*/\ncontract Wallet is Context, Ownable  {\n\n    using SafeMath for uint256;\n\n    /**\n    * @dev Modifier for deposit and withdraw functions to check if the token/ETH actually\n    * exists in contract\n    */\n    modifier tokenExists(bytes32 _ticker) {\n        require(tokens[_ticker].tokenAddress != address(0), \"Token does not exist\");\n        _;\n    }\n    \n    struct Token {\n        string id;\n        bytes32 name;\n        bytes32 ticker;\n        address tokenAddress;\n    }\n\n    mapping (bytes32 => Token) public tokens;\n    bytes32[] public tokenList;\n    uint256 public tokenListCount = 0;\n\n    mapping (address => mapping (bytes32 => uint256)) public balances;\n\n    bytes32 constant ETH = bytes32(\"ETH\");\n\n    constructor() {\n        // Initialise with ETH\n        addToken(\n            \"eth-ethereum\",\n            0x457468657265756d000000000000000000000000000000000000000000000000, \n            0x4554480000000000000000000000000000000000000000000000000000000000,\n            0x0000000000000000000000000000000000000000\n        );\n    }\n\n    /**\n    * @dev Add a token into the tokens mapping\n    */\n    function addToken(string memory _id, bytes32 _name, bytes32 _ticker, address _tokenAddress) public onlyOwner() {\n        tokens[_ticker] = Token(_id, _name, _ticker, _tokenAddress);\n        tokenList.push(_ticker);\n        tokenListCount++;\n    }\n\n    function deleteToken(bytes32 _ticker, uint256 _index) public onlyOwner() {\n        delete tokens[_ticker];\n        tokenList[_index] = tokenList[tokenList.length - 1];\n        tokenList.pop();\n        tokenListCount--;\n    }\n\n    /**\n    * @dev Deposit ETH into your account\n    */\n    function depositEth() public payable {\n        balances[_msgSender()][ETH] = balances[_msgSender()][ETH].add(msg.value);\n    }\n\n    function withdrawEth(uint256 _amount) public payable returns (bool) {\n        require(balances[_msgSender()][ETH] >= _amount, \"Insufficient balance\");\n        balances[_msgSender()][ETH] = balances[_msgSender()][ETH].sub(_amount);\n        (bool success,) = _msgSender().call{value: _amount}(\"\");\n        return success;\n    }\n\n    /**\n    * @dev Deposit tokens to your account\n    */\n    function deposit(uint256 _amount, bytes32 _ticker) public tokenExists(_ticker) {\n        IERC20(tokens[_ticker].tokenAddress).transferFrom(_msgSender(), address(this), _amount);\n        balances[_msgSender()][_ticker] = balances[_msgSender()][_ticker].add(_amount);\n    }\n\n    /**\n    * @dev Withdraw tokens from your account\n    */\n    function withdraw(uint256 _amount, bytes32 _ticker) public tokenExists(_ticker) {\n        require(balances[_msgSender()][_ticker] >= _amount, \"Insufficient balance.\");\n        balances[_msgSender()][_ticker] = balances[_msgSender()][_ticker].sub(_amount);\n        IERC20(tokens[_ticker].tokenAddress).transfer(_msgSender(), _amount);\n    }\n\n}",
  "sourcePath": "/Users/shaunlindsley/Desktop/coding/moralis-academy-courses/dex/contracts/Wallet.sol",
  "compiler": {
    "name": "solc",
    "version": "0.8.0+commit.c7dfd78e.Emscripten.clang"
  },
  "schemaVersion": "3.4.14",
  "updatedAt": "2023-08-04T14:19:55.820Z",
  "devdoc": {
    "details": "This contract handles the global balances mapping of the dex, along with functions that enable the user to interact with the data storage",
    "kind": "dev",
    "methods": {
      "addToken(string,bytes32,bytes32,address)": {
        "details": "Add a token into the tokens mapping"
      },
      "deposit(uint256,bytes32)": {
        "details": "Deposit tokens to your account"
      },
      "depositEth()": {
        "details": "Deposit ETH into your account"
      },
      "owner()": {
        "details": "Returns the address of the current owner."
      },
      "renounceOwnership()": {
        "details": "Leaves the contract without owner. It will not be possible to call `onlyOwner` functions. Can only be called by the current owner. NOTE: Renouncing ownership will leave the contract without an owner, thereby disabling any functionality that is only available to the owner."
      },
      "transferOwnership(address)": {
        "details": "Transfers ownership of the contract to a new account (`newOwner`). Can only be called by the current owner."
      },
      "withdraw(uint256,bytes32)": {
        "details": "Withdraw tokens from your account"
      }
    },
    "version": 1
  },
  "userdoc": {
    "kind": "user",
    "methods": {},
    "version": 1
  }
}