{
  "contractName": "Wallet",
  "abi": [
    {
      "anonymous": false,
      "inputs": [
        {
          "indexed": true,
          "internalType": "address",
          "name": "previousOwner",
          "type": "address"
        },
        {
          "indexed": true,
          "internalType": "address",
          "name": "newOwner",
          "type": "address"
        }
      ],
      "name": "OwnershipTransferred",
      "type": "event"
    },
    {
      "inputs": [
        {
          "internalType": "address",
          "name": "",
          "type": "address"
        },
        {
          "internalType": "bytes32",
          "name": "",
          "type": "bytes32"
        }
      ],
      "name": "balances",
      "outputs": [
        {
          "internalType": "uint256",
          "name": "",
          "type": "uint256"
        }
      ],
      "stateMutability": "view",
      "type": "function",
      "constant": true
    },
    {
      "inputs": [],
      "name": "owner",
      "outputs": [
        {
          "internalType": "address",
          "name": "",
          "type": "address"
        }
      ],
      "stateMutability": "view",
      "type": "function",
      "constant": true
    },
    {
      "inputs": [],
      "name": "renounceOwnership",
      "outputs": [],
      "stateMutability": "nonpayable",
      "type": "function"
    },
    {
      "inputs": [
        {
          "internalType": "uint256",
          "name": "",
          "type": "uint256"
        }
      ],
      "name": "tokenList",
      "outputs": [
        {
          "internalType": "bytes32",
          "name": "",
          "type": "bytes32"
        }
      ],
      "stateMutability": "view",
      "type": "function",
      "constant": true
    },
    {
      "inputs": [
        {
          "internalType": "bytes32",
          "name": "",
          "type": "bytes32"
        }
      ],
      "name": "tokens",
      "outputs": [
        {
          "internalType": "bytes32",
          "name": "name",
          "type": "bytes32"
        },
        {
          "internalType": "bytes32",
          "name": "ticker",
          "type": "bytes32"
        },
        {
          "internalType": "address",
          "name": "tokenAddress",
          "type": "address"
        }
      ],
      "stateMutability": "view",
      "type": "function",
      "constant": true
    },
    {
      "inputs": [
        {
          "internalType": "address",
          "name": "newOwner",
          "type": "address"
        }
      ],
      "name": "transferOwnership",
      "outputs": [],
      "stateMutability": "nonpayable",
      "type": "function"
    },
    {
      "inputs": [
        {
          "internalType": "bytes32",
          "name": "_name",
          "type": "bytes32"
        },
        {
          "internalType": "bytes32",
          "name": "_ticker",
          "type": "bytes32"
        },
        {
          "internalType": "address",
          "name": "_tokenAddress",
          "type": "address"
        }
      ],
      "name": "addToken",
      "outputs": [],
      "stateMutability": "nonpayable",
      "type": "function"
    },
    {
      "inputs": [
        {
          "internalType": "uint256",
          "name": "_amount",
          "type": "uint256"
        },
        {
          "internalType": "bytes32",
          "name": "_ticker",
          "type": "bytes32"
        }
      ],
      "name": "deposit",
      "outputs": [],
      "stateMutability": "nonpayable",
      "type": "function"
    },
    {
      "inputs": [
        {
          "internalType": "uint256",
          "name": "_amount",
          "type": "uint256"
        },
        {
          "internalType": "bytes32",
          "name": "_ticker",
          "type": "bytes32"
        }
      ],
      "name": "withdraw",
      "outputs": [],
      "stateMutability": "nonpayable",
      "type": "function"
    }
  ],
  "bytecode": "0x608060405234801561000f575f80fd5b506100193361001e565b61006d565b5f80546001600160a01b038381166001600160a01b0319831681178455604051919092169283917f8be0079c531659141344cd1fd0a4f28419497f9722a3daafe3b4186f6b6457e09190a35050565b6107d18061007a5f395ff3fe608060405234801561000f575f80fd5b5060043610610090575f3560e01c8063904194a311610063578063904194a3146101085780639ead722214610162578063a8d2021a14610175578063c9630cb014610188578063f2fde38b1461019b575f80fd5b80631f14df6914610094578063715018a6146100d15780637d154034146100db5780638da5cb5b146100ee575b5f80fd5b6100be6100a2366004610691565b600360209081525f928352604080842090915290825290205481565b6040519081526020015b60405180910390f35b6100d96101ae565b005b6100d96100e93660046106b9565b6101c1565b5f546040516001600160a01b0390911681526020016100c8565b61013e6101163660046106eb565b600160208190525f91825260409091208054918101546002909101546001600160a01b031683565b6040805193845260208401929092526001600160a01b0316908201526060016100c8565b6100be6101703660046106eb565b610252565b6100d9610183366004610702565b610271565b6100d9610196366004610702565b6103fb565b6100d96101a9366004610722565b610536565b6101b66105af565b6101bf5f610608565b565b6101c96105af565b6040805160608101825293845260208085018481526001600160a01b039384168684019081525f8681526001938490529384209651875590518683015551600295860180546001600160a01b031916919094161790925583549182018455929092527f405787fa12a823e0f2b7631cc41b3ba8828b3321ca811111fa75cd3aa3bb5ace90910155565b60028181548110610261575f80fd5b5f91825260209091200154905081565b5f8181526001602052604090206002015481906001600160a01b03166102d55760405162461bcd60e51b8152602060048201526014602482015273151bdad95b88191bd95cc81b9bdd08195e1a5cdd60621b60448201526064015b60405180910390fd5b335f9081526003602090815260408083208584529091529020548311156103365760405162461bcd60e51b815260206004820152601560248201527424b739bab33334b1b4b2b73a103130b630b731b29760591b60448201526064016102cc565b335f90815260036020908152604080832085845290915290205461035a9084610657565b335f8181526003602090815260408083208784528252808320949094556001815283822060020154845163a9059cbb60e01b815260048101949094526024840188905293516001600160a01b039094169363a9059cbb936044808201949183900301908290875af11580156103d1573d5f803e3d5ffd5b505050506040513d601f19601f820116820180604052508101906103f5919061073b565b50505050565b5f8181526001602052604090206002015481906001600160a01b031661045a5760405162461bcd60e51b8152602060048201526014602482015273151bdad95b88191bd95cc81b9bdd08195e1a5cdd60621b60448201526064016102cc565b5f828152600160205260409020600201546001600160a01b03166323b872dd336040516001600160e01b031960e084901b1681526001600160a01b039091166004820152306024820152604481018690526064016020604051808303815f875af11580156104ca573d5f803e3d5ffd5b505050506040513d601f19601f820116820180604052508101906104ee919061073b565b50335f908152600360209081526040808320858452909152902054610513908461066b565b335f90815260036020908152604080832095835294905292909220919091555050565b61053e6105af565b6001600160a01b0381166105a35760405162461bcd60e51b815260206004820152602660248201527f4f776e61626c653a206e6577206f776e657220697320746865207a65726f206160448201526564647265737360d01b60648201526084016102cc565b6105ac81610608565b50565b5f546001600160a01b031633146101bf5760405162461bcd60e51b815260206004820181905260248201527f4f776e61626c653a2063616c6c6572206973206e6f7420746865206f776e657260448201526064016102cc565b5f80546001600160a01b038381166001600160a01b0319831681178455604051919092169283917f8be0079c531659141344cd1fd0a4f28419497f9722a3daafe3b4186f6b6457e09190a35050565b5f6106628284610775565b90505b92915050565b5f6106628284610788565b80356001600160a01b038116811461068c575f80fd5b919050565b5f80604083850312156106a2575f80fd5b6106ab83610676565b946020939093013593505050565b5f805f606084860312156106cb575f80fd5b83359250602084013591506106e260408501610676565b90509250925092565b5f602082840312156106fb575f80fd5b5035919050565b5f8060408385031215610713575f80fd5b50508035926020909101359150565b5f60208284031215610732575f80fd5b61066282610676565b5f6020828403121561074b575f80fd5b8151801515811461075a575f80fd5b9392505050565b634e487b7160e01b5f52601160045260245ffd5b8181038181111561066557610665610761565b808201808211156106655761066561076156fea2646970667358221220224987e7887bc70e8cba40ac09ad96848b2e26eee872a24396f0cf0786dfaceb64736f6c63430008150033",
  "immutableReferences": {},
  "source": "// SPDX-License-Identifier: UNLICENSED\n\npragma solidity >=0.5.0 <0.9.0;\n\nimport \"../node_modules/@openzeppelin/contracts/token/ERC20/IERC20.sol\";\nimport \"../node_modules/@openzeppelin/contracts/utils/Context.sol\";\nimport \"../node_modules/@openzeppelin/contracts/utils/math/SafeMath.sol\";\nimport \"../node_modules/@openzeppelin/contracts/access/Ownable.sol\";\n\ncontract Wallet is Context, Ownable  {\n\n    modifier tokenExists(bytes32 _ticker) {\n        require(tokens[_ticker].tokenAddress != address(0), \"Token does not exist\");\n        _;\n    }\n\n    using SafeMath for uint256;\n\n    struct Token {\n        bytes32 name;\n        bytes32 ticker;\n        address tokenAddress;\n    }\n\n    mapping (bytes32 => Token) public tokens;\n    bytes32[] public tokenList;\n\n    mapping (address => mapping (bytes32 => uint256)) public balances;\n\n    function addToken(bytes32 _name, bytes32 _ticker, address _tokenAddress) external onlyOwner() {\n        tokens[_ticker] = Token(_name, _ticker, _tokenAddress);\n        tokenList.push(_ticker);\n    }\n\n    function deposit(uint256 _amount, bytes32 _ticker) external tokenExists(_ticker) {\n        IERC20(tokens[_ticker].tokenAddress).transferFrom(_msgSender(), address(this), _amount);\n        balances[_msgSender()][_ticker] = balances[_msgSender()][_ticker].add(_amount);\n    }\n\n    function withdraw(uint256 _amount, bytes32 _ticker) external tokenExists(_ticker) {\n        require(balances[_msgSender()][_ticker] >= _amount, \"Insufficient balance.\");\n        balances[_msgSender()][_ticker] = balances[_msgSender()][_ticker].sub(_amount);\n        IERC20(tokens[_ticker].tokenAddress).transfer(_msgSender(), _amount);\n    }\n\n}",
  "sourcePath": "/Users/shaunlindsley/Desktop/coding/moralis-academy-courses/dex/contracts/Wallet.sol",
  "compiler": {
    "name": "solc",
    "version": "0.8.21+commit.d9974bed.Emscripten.clang"
  },
  "schemaVersion": "3.4.14",
  "updatedAt": "2023-07-25T16:33:55.051Z",
  "networkType": "ethereum",
  "devdoc": {
    "kind": "dev",
    "methods": {
      "owner()": {
        "details": "Returns the address of the current owner."
      },
      "renounceOwnership()": {
        "details": "Leaves the contract without owner. It will not be possible to call `onlyOwner` functions. Can only be called by the current owner. NOTE: Renouncing ownership will leave the contract without an owner, thereby disabling any functionality that is only available to the owner."
      },
      "transferOwnership(address)": {
        "details": "Transfers ownership of the contract to a new account (`newOwner`). Can only be called by the current owner."
      }
    },
    "version": 1
  },
  "userdoc": {
    "kind": "user",
    "methods": {},
    "version": 1
  }
}