{
  "contractName": "Wallet",
  "abi": [
    {
      "anonymous": false,
      "inputs": [
        {
          "indexed": true,
          "internalType": "address",
          "name": "previousOwner",
          "type": "address"
        },
        {
          "indexed": true,
          "internalType": "address",
          "name": "newOwner",
          "type": "address"
        }
      ],
      "name": "OwnershipTransferred",
      "type": "event"
    },
    {
      "inputs": [
        {
          "internalType": "address",
          "name": "",
          "type": "address"
        },
        {
          "internalType": "bytes32",
          "name": "",
          "type": "bytes32"
        }
      ],
      "name": "balances",
      "outputs": [
        {
          "internalType": "uint256",
          "name": "",
          "type": "uint256"
        }
      ],
      "stateMutability": "view",
      "type": "function"
    },
    {
      "inputs": [],
      "name": "owner",
      "outputs": [
        {
          "internalType": "address",
          "name": "",
          "type": "address"
        }
      ],
      "stateMutability": "view",
      "type": "function"
    },
    {
      "inputs": [],
      "name": "renounceOwnership",
      "outputs": [],
      "stateMutability": "nonpayable",
      "type": "function"
    },
    {
      "inputs": [
        {
          "internalType": "uint256",
          "name": "",
          "type": "uint256"
        }
      ],
      "name": "tokenList",
      "outputs": [
        {
          "internalType": "bytes32",
          "name": "",
          "type": "bytes32"
        }
      ],
      "stateMutability": "view",
      "type": "function"
    },
    {
      "inputs": [
        {
          "internalType": "bytes32",
          "name": "",
          "type": "bytes32"
        }
      ],
      "name": "tokens",
      "outputs": [
        {
          "internalType": "bytes32",
          "name": "name",
          "type": "bytes32"
        },
        {
          "internalType": "bytes32",
          "name": "ticker",
          "type": "bytes32"
        },
        {
          "internalType": "address",
          "name": "tokenAddress",
          "type": "address"
        }
      ],
      "stateMutability": "view",
      "type": "function"
    },
    {
      "inputs": [
        {
          "internalType": "address",
          "name": "newOwner",
          "type": "address"
        }
      ],
      "name": "transferOwnership",
      "outputs": [],
      "stateMutability": "nonpayable",
      "type": "function"
    },
    {
      "inputs": [
        {
          "internalType": "bytes32",
          "name": "_name",
          "type": "bytes32"
        },
        {
          "internalType": "bytes32",
          "name": "_ticker",
          "type": "bytes32"
        },
        {
          "internalType": "address",
          "name": "_tokenAddress",
          "type": "address"
        }
      ],
      "name": "addToken",
      "outputs": [],
      "stateMutability": "nonpayable",
      "type": "function"
    },
    {
      "inputs": [],
      "name": "depositEth",
      "outputs": [],
      "stateMutability": "payable",
      "type": "function"
    },
    {
      "inputs": [
        {
          "internalType": "uint256",
          "name": "_amount",
          "type": "uint256"
        },
        {
          "internalType": "bytes32",
          "name": "_ticker",
          "type": "bytes32"
        }
      ],
      "name": "deposit",
      "outputs": [],
      "stateMutability": "nonpayable",
      "type": "function"
    },
    {
      "inputs": [
        {
          "internalType": "uint256",
          "name": "_amount",
          "type": "uint256"
        },
        {
          "internalType": "bytes32",
          "name": "_ticker",
          "type": "bytes32"
        }
      ],
      "name": "withdraw",
      "outputs": [],
      "stateMutability": "nonpayable",
      "type": "function"
    }
  ],
  "bytecode": "0x608060405234801561001057600080fd5b5061002161001c610026565b61002a565b61007a565b3390565b600080546001600160a01b038381166001600160a01b0319831681178455604051919092169283917f8be0079c531659141344cd1fd0a4f28419497f9722a3daafe3b4186f6b6457e09190a35050565b610a15806100896000396000f3fe6080604052600436106100915760003560e01c8063904194a311610059578063904194a31461012d5780639ead72221461015c578063a8d2021a1461017c578063c9630cb01461019c578063f2fde38b146101bc57610091565b80631f14df6914610096578063439370b1146100cc578063715018a6146100d65780637d154034146100eb5780638da5cb5b1461010b575b600080fd5b3480156100a257600080fd5b506100b66100b1366004610793565b6101dc565b6040516100c3919061089a565b60405180910390f35b6100d46101f9565b005b3480156100e257600080fd5b506100d4610277565b3480156100f757600080fd5b506100d46101063660046107f4565b61028b565b34801561011757600080fd5b5061012061031d565b6040516100c39190610849565b34801561013957600080fd5b5061014d6101483660046107dc565b61032c565b6040516100c3939291906108a3565b34801561016857600080fd5b506100b66101773660046107dc565b610355565b34801561018857600080fd5b506100d4610197366004610828565b610376565b3480156101a857600080fd5b506100d46101b7366004610828565b61051a565b3480156101c857600080fd5b506100d46101d7366004610779565b610671565b600360209081526000928352604080842090915290825290205481565b61023c34600360006102096106ab565b6001600160a01b03168152602080820192909252604090810160009081206208aa8960eb1b8252909252902054906106af565b600360006102486106ab565b6001600160a01b03168152602080820192909252604090810160009081206208aa8960eb1b8252909252902055565b61027f6106c2565b6102896000610701565b565b6102936106c2565b6040805160608101825293845260208085018481526001600160a01b0393841686840190815260008681526001938490529384209651875590518683015551600295860180546001600160a01b031916919094161790925583549182018455929092527f405787fa12a823e0f2b7631cc41b3ba8828b3321ca811111fa75cd3aa3bb5ace90910155565b6000546001600160a01b031690565b60016020819052600091825260409091208054918101546002909101546001600160a01b031683565b6002818154811061036557600080fd5b600091825260209091200154905081565b60008181526001602052604090206002015481906001600160a01b03166103b85760405162461bcd60e51b81526004016103af90610908565b60405180910390fd5b82600360006103c56106ab565b6001600160a01b03166001600160a01b0316815260200190815260200160002060008481526020019081526020016000205410156104155760405162461bcd60e51b81526004016103af90610936565b61045283600360006104256106ab565b6001600160a01b031681526020808201929092526040908101600090812087825290925290205490610751565b6003600061045e6106ab565b6001600160a01b039081168252602080830193909352604091820160009081208782528452828120949094556001909252909120600201541663a9059cbb6104a46106ab565b856040518363ffffffff1660e01b81526004016104c2929190610881565b602060405180830381600087803b1580156104dc57600080fd5b505af11580156104f0573d6000803e3d6000fd5b505050506040513d601f19601f8201168201806040525081019061051491906107bc565b50505050565b60008181526001602052604090206002015481906001600160a01b03166105535760405162461bcd60e51b81526004016103af90610908565b6000828152600160205260409020600201546001600160a01b03166323b872dd61057b6106ab565b30866040518463ffffffff1660e01b815260040161059b9392919061085d565b602060405180830381600087803b1580156105b557600080fd5b505af11580156105c9573d6000803e3d6000fd5b505050506040513d601f19601f820116820180604052508101906105ed91906107bc565b5061062b83600360006105fe6106ab565b6001600160a01b0316815260208082019290925260409081016000908120878252909252902054906106af565b600360006106376106ab565b6001600160a01b03166001600160a01b03168152602001908152602001600020600084815260200190815260200160002081905550505050565b6106796106c2565b6001600160a01b03811661069f5760405162461bcd60e51b81526004016103af906108c2565b6106a881610701565b50565b3390565b60006106bb828461099a565b9392505050565b6106ca6106ab565b6001600160a01b03166106db61031d565b6001600160a01b0316146102895760405162461bcd60e51b81526004016103af90610965565b600080546001600160a01b038381166001600160a01b0319831681178455604051919092169283917f8be0079c531659141344cd1fd0a4f28419497f9722a3daafe3b4186f6b6457e09190a35050565b60006106bb82846109b2565b80356001600160a01b038116811461077457600080fd5b919050565b60006020828403121561078a578081fd5b6106bb8261075d565b600080604083850312156107a5578081fd5b6107ae8361075d565b946020939093013593505050565b6000602082840312156107cd578081fd5b815180151581146106bb578182fd5b6000602082840312156107ed578081fd5b5035919050565b600080600060608486031215610808578081fd5b833592506020840135915061081f6040850161075d565b90509250925092565b6000806040838503121561083a578182fd5b50508035926020909101359150565b6001600160a01b0391909116815260200190565b6001600160a01b039384168152919092166020820152604081019190915260600190565b6001600160a01b03929092168252602082015260400190565b90815260200190565b92835260208301919091526001600160a01b0316604082015260600190565b60208082526026908201527f4f776e61626c653a206e6577206f776e657220697320746865207a65726f206160408201526564647265737360d01b606082015260800190565b602080825260149082015273151bdad95b88191bd95cc81b9bdd08195e1a5cdd60621b604082015260600190565b60208082526015908201527424b739bab33334b1b4b2b73a103130b630b731b29760591b604082015260600190565b6020808252818101527f4f776e61626c653a2063616c6c6572206973206e6f7420746865206f776e6572604082015260600190565b600082198211156109ad576109ad6109c9565b500190565b6000828210156109c4576109c46109c9565b500390565b634e487b7160e01b600052601160045260246000fdfea26469706673582212205048a4e5b1bdd91ce9087959f00c50c7daeb0e5c3d52c84031c27866ce0b02d064736f6c63430008000033",
  "immutableReferences": {},
  "source": "// SPDX-License-Identifier: UNLICENSED\n\npragma solidity 0.8.0;\n\nimport \"../node_modules/@openzeppelin/contracts/token/ERC20/IERC20.sol\";\nimport \"../node_modules/@openzeppelin/contracts/utils/Context.sol\";\nimport \"../node_modules/@openzeppelin/contracts/utils/math/SafeMath.sol\";\nimport \"../node_modules/@openzeppelin/contracts/access/Ownable.sol\";\n\ncontract Wallet is Context, Ownable  {\n\n    using SafeMath for uint256;\n\n    modifier tokenExists(bytes32 _ticker) {\n        require(tokens[_ticker].tokenAddress != address(0), \"Token does not exist\");\n        _;\n    }\n    \n    struct Token {\n        bytes32 name;\n        bytes32 ticker;\n        address tokenAddress;\n    }\n\n    mapping (bytes32 => Token) public tokens;\n    bytes32[] public tokenList;\n\n    mapping (address => mapping (bytes32 => uint256)) public balances;\n\n    bytes32 constant ETH = bytes32(\"ETH\");\n\n    function addToken(bytes32 _name, bytes32 _ticker, address _tokenAddress) external onlyOwner() {\n        tokens[_ticker] = Token(_name, _ticker, _tokenAddress);\n        tokenList.push(_ticker);\n    }\n\n    function depositEth() payable external {\n        balances[_msgSender()][ETH] = balances[_msgSender()][ETH].add(msg.value);\n    }\n\n    function deposit(uint256 _amount, bytes32 _ticker) external tokenExists(_ticker) {\n        IERC20(tokens[_ticker].tokenAddress).transferFrom(_msgSender(), address(this), _amount);\n        balances[_msgSender()][_ticker] = balances[_msgSender()][_ticker].add(_amount);\n    }\n\n    function withdraw(uint256 _amount, bytes32 _ticker) external tokenExists(_ticker) {\n        require(balances[_msgSender()][_ticker] >= _amount, \"Insufficient balance.\");\n        balances[_msgSender()][_ticker] = balances[_msgSender()][_ticker].sub(_amount);\n        IERC20(tokens[_ticker].tokenAddress).transfer(_msgSender(), _amount);\n    }\n\n}",
  "sourcePath": "/Users/shaunlindsley/Desktop/coding/moralis-academy-courses/dex/contracts/Wallet.sol",
  "compiler": {
    "name": "solc",
    "version": "0.8.0+commit.c7dfd78e.Emscripten.clang"
  },
  "schemaVersion": "3.4.14",
  "updatedAt": "2023-07-26T20:17:02.586Z",
  "devdoc": {
    "kind": "dev",
    "methods": {
      "owner()": {
        "details": "Returns the address of the current owner."
      },
      "renounceOwnership()": {
        "details": "Leaves the contract without owner. It will not be possible to call `onlyOwner` functions. Can only be called by the current owner. NOTE: Renouncing ownership will leave the contract without an owner, thereby disabling any functionality that is only available to the owner."
      },
      "transferOwnership(address)": {
        "details": "Transfers ownership of the contract to a new account (`newOwner`). Can only be called by the current owner."
      }
    },
    "version": 1
  },
  "userdoc": {
    "kind": "user",
    "methods": {},
    "version": 1
  }
}