{
  "contractName": "Wallet",
  "abi": [
    {
      "inputs": [],
      "stateMutability": "nonpayable",
      "type": "constructor"
    },
    {
      "anonymous": false,
      "inputs": [
        {
          "indexed": true,
          "internalType": "address",
          "name": "previousOwner",
          "type": "address"
        },
        {
          "indexed": true,
          "internalType": "address",
          "name": "newOwner",
          "type": "address"
        }
      ],
      "name": "OwnershipTransferred",
      "type": "event"
    },
    {
      "inputs": [
        {
          "internalType": "address",
          "name": "",
          "type": "address"
        },
        {
          "internalType": "bytes32",
          "name": "",
          "type": "bytes32"
        }
      ],
      "name": "balances",
      "outputs": [
        {
          "internalType": "uint256",
          "name": "",
          "type": "uint256"
        }
      ],
      "stateMutability": "view",
      "type": "function"
    },
    {
      "inputs": [],
      "name": "owner",
      "outputs": [
        {
          "internalType": "address",
          "name": "",
          "type": "address"
        }
      ],
      "stateMutability": "view",
      "type": "function"
    },
    {
      "inputs": [],
      "name": "renounceOwnership",
      "outputs": [],
      "stateMutability": "nonpayable",
      "type": "function"
    },
    {
      "inputs": [
        {
          "internalType": "uint256",
          "name": "",
          "type": "uint256"
        }
      ],
      "name": "tokenList",
      "outputs": [
        {
          "internalType": "bytes32",
          "name": "",
          "type": "bytes32"
        }
      ],
      "stateMutability": "view",
      "type": "function"
    },
    {
      "inputs": [],
      "name": "tokenListCount",
      "outputs": [
        {
          "internalType": "uint256",
          "name": "",
          "type": "uint256"
        }
      ],
      "stateMutability": "view",
      "type": "function"
    },
    {
      "inputs": [
        {
          "internalType": "bytes32",
          "name": "",
          "type": "bytes32"
        }
      ],
      "name": "tokens",
      "outputs": [
        {
          "internalType": "string",
          "name": "id",
          "type": "string"
        },
        {
          "internalType": "bytes32",
          "name": "name",
          "type": "bytes32"
        },
        {
          "internalType": "bytes32",
          "name": "ticker",
          "type": "bytes32"
        },
        {
          "internalType": "address",
          "name": "tokenAddress",
          "type": "address"
        }
      ],
      "stateMutability": "view",
      "type": "function"
    },
    {
      "inputs": [
        {
          "internalType": "address",
          "name": "newOwner",
          "type": "address"
        }
      ],
      "name": "transferOwnership",
      "outputs": [],
      "stateMutability": "nonpayable",
      "type": "function"
    },
    {
      "inputs": [
        {
          "internalType": "string",
          "name": "_id",
          "type": "string"
        },
        {
          "internalType": "bytes32",
          "name": "_name",
          "type": "bytes32"
        },
        {
          "internalType": "bytes32",
          "name": "_ticker",
          "type": "bytes32"
        },
        {
          "internalType": "address",
          "name": "_tokenAddress",
          "type": "address"
        }
      ],
      "name": "addToken",
      "outputs": [],
      "stateMutability": "nonpayable",
      "type": "function"
    },
    {
      "inputs": [],
      "name": "depositEth",
      "outputs": [],
      "stateMutability": "payable",
      "type": "function"
    },
    {
      "inputs": [
        {
          "internalType": "uint256",
          "name": "_amount",
          "type": "uint256"
        }
      ],
      "name": "withdrawEth",
      "outputs": [
        {
          "internalType": "bool",
          "name": "",
          "type": "bool"
        }
      ],
      "stateMutability": "payable",
      "type": "function"
    },
    {
      "inputs": [
        {
          "internalType": "uint256",
          "name": "_amount",
          "type": "uint256"
        },
        {
          "internalType": "bytes32",
          "name": "_ticker",
          "type": "bytes32"
        }
      ],
      "name": "deposit",
      "outputs": [],
      "stateMutability": "nonpayable",
      "type": "function"
    },
    {
      "inputs": [
        {
          "internalType": "uint256",
          "name": "_amount",
          "type": "uint256"
        },
        {
          "internalType": "bytes32",
          "name": "_ticker",
          "type": "bytes32"
        }
      ],
      "name": "withdraw",
      "outputs": [],
      "stateMutability": "nonpayable",
      "type": "function"
    }
  ],
  "bytecode": "0x608060405260006003553480156200001657600080fd5b506200002b6200002562000074565b62000078565b60408051808201909152600c81526b6574682d657468657265756d60a01b60208201526200006e9067457468657265756d60c01b6208aa8960eb1b6000620000c8565b6200034f565b3390565b600080546001600160a01b038381166001600160a01b0319831681178455604051919092169283917f8be0079c531659141344cd1fd0a4f28419497f9722a3daafe3b4186f6b6457e09190a35050565b620000d2620001af565b6040805160808101825285815260208082018690528183018590526001600160a01b03841660608301526000858152600182529290922081518051929391926200012092849201906200020f565b5060208201516001828101919091556040830151600280840191909155606090930151600392830180546001600160a01b0319166001600160a01b039092169190911790558254908101835560009283527f405787fa12a823e0f2b7631cc41b3ba8828b3321ca811111fa75cd3aa3bb5ace01849055805491620001a48362000327565b919050555050505050565b620001b962000074565b6001600160a01b0316620001cc62000200565b6001600160a01b031614620001fe5760405162461bcd60e51b8152600401620001f590620002b5565b60405180910390fd5b565b6000546001600160a01b031690565b8280546200021d90620002ea565b90600052602060002090601f0160209004810192826200024157600085556200028c565b82601f106200025c57805160ff19168380011785556200028c565b828001600101855582156200028c579182015b828111156200028c5782518255916020019190600101906200026f565b506200029a9291506200029e565b5090565b5b808211156200029a57600081556001016200029f565b6020808252818101527f4f776e61626c653a2063616c6c6572206973206e6f7420746865206f776e6572604082015260600190565b600281046001821680620002ff57607f821691505b602082108114156200032157634e487b7160e01b600052602260045260246000fd5b50919050565b60006000198214156200034857634e487b7160e01b81526011600452602481fd5b5060010190565b610ec3806200035f6000396000f3fe6080604052600436106100a75760003560e01c8063a43ad7e711610064578063a43ad7e714610173578063a8d2021a14610188578063c311d049146101a8578063c9630cb0146101c8578063f2fde38b146101e8578063fae1cbce14610208576100a7565b80631f14df69146100ac578063439370b1146100e2578063715018a6146100ec5780638da5cb5b14610101578063904194a3146101235780639ead722214610153575b600080fd5b3480156100b857600080fd5b506100cc6100c7366004610aaa565b610228565b6040516100d99190610c5c565b60405180910390f35b6100ea610245565b005b3480156100f857600080fd5b506100ea6102c3565b34801561010d57600080fd5b506101166102d7565b6040516100d99190610c00565b34801561012f57600080fd5b5061014361013e366004610af3565b6102e6565b6040516100d99493929190610c65565b34801561015f57600080fd5b506100cc61016e366004610af3565b6103a1565b34801561017f57600080fd5b506100cc6103c2565b34801561019457600080fd5b506100ea6101a3366004610bcf565b6103c8565b6101bb6101b6366004610af3565b61056c565b6040516100d99190610c51565b3480156101d457600080fd5b506100ea6101e3366004610bcf565b6106bc565b3480156101f457600080fd5b506100ea610203366004610a90565b610813565b34801561021457600080fd5b506100ea610223366004610b0b565b61084d565b600460209081526000928352604080842090915290825290205481565b610288346004600061025561092e565b6001600160a01b03168152602080820192909252604090810160009081206208aa8960eb1b825290925290205490610932565b6004600061029461092e565b6001600160a01b03168152602080820192909252604090810160009081206208aa8960eb1b8252909252902055565b6102cb610945565b6102d56000610984565b565b6000546001600160a01b031690565b60016020526000908152604090208054819061030190610e0b565b80601f016020809104026020016040519081016040528092919081815260200182805461032d90610e0b565b801561037a5780601f1061034f5761010080835404028352916020019161037a565b820191906000526020600020905b81548152906001019060200180831161035d57829003601f168201915b5050505060018301546002840154600390940154929390929091506001600160a01b031684565b600281815481106103b157600080fd5b600091825260209091200154905081565b60035481565b60008181526001602052604090206003015481906001600160a01b031661040a5760405162461bcd60e51b815260040161040190610d4a565b60405180910390fd5b826004600061041761092e565b6001600160a01b03166001600160a01b0316815260200190815260200160002060008481526020019081526020016000205410156104675760405162461bcd60e51b815260040161040190610d78565b6104a4836004600061047761092e565b6001600160a01b0316815260208082019290925260409081016000908120878252909252902054906109d4565b600460006104b061092e565b6001600160a01b039081168252602080830193909352604091820160009081208782528452828120949094556001909252909120600301541663a9059cbb6104f661092e565b856040518363ffffffff1660e01b8152600401610514929190610c38565b602060405180830381600087803b15801561052e57600080fd5b505af1158015610542573d6000803e3d6000fd5b505050506040513d601f19601f820116820180604052508101906105669190610ad3565b50505050565b6000816004600061057b61092e565b6001600160a01b03166001600160a01b0316815260200190815260200160002060006208aa8960eb1b81526020019081526020016000205410156105d15760405162461bcd60e51b815260040161040190610d1c565b61061482600460006105e161092e565b6001600160a01b03168152602080820192909252604090810160009081206208aa8960eb1b8252909252902054906109d4565b6004600061062061092e565b6001600160a01b03168152602080820192909252604090810160009081206208aa8960eb1b825290925281209190915561065861092e565b6001600160a01b03168360405161066e90610bfd565b60006040518083038185875af1925050503d80600081146106ab576040519150601f19603f3d011682016040523d82523d6000602084013e6106b0565b606091505b5090925050505b919050565b60008181526001602052604090206003015481906001600160a01b03166106f55760405162461bcd60e51b815260040161040190610d4a565b6000828152600160205260409020600301546001600160a01b03166323b872dd61071d61092e565b30866040518463ffffffff1660e01b815260040161073d93929190610c14565b602060405180830381600087803b15801561075757600080fd5b505af115801561076b573d6000803e3d6000fd5b505050506040513d601f19601f8201168201806040525081019061078f9190610ad3565b506107cd83600460006107a061092e565b6001600160a01b031681526020808201929092526040908101600090812087825290925290205490610932565b600460006107d961092e565b6001600160a01b03166001600160a01b03168152602001908152602001600020600084815260200190815260200160002081905550505050565b61081b610945565b6001600160a01b0381166108415760405162461bcd60e51b815260040161040190610cd6565b61084a81610984565b50565b610855610945565b6040805160808101825285815260208082018690528183018590526001600160a01b03841660608301526000858152600182529290922081518051929391926108a192849201906109e0565b5060208201516001828101919091556040830151600280840191909155606090930151600392830180546001600160a01b0319166001600160a01b039092169190911790558254908101835560009283527f405787fa12a823e0f2b7631cc41b3ba8828b3321ca811111fa75cd3aa3bb5ace0184905580549161092383610e46565b919050555050505050565b3390565b600061093e8284610ddc565b9392505050565b61094d61092e565b6001600160a01b031661095e6102d7565b6001600160a01b0316146102d55760405162461bcd60e51b815260040161040190610da7565b600080546001600160a01b038381166001600160a01b0319831681178455604051919092169283917f8be0079c531659141344cd1fd0a4f28419497f9722a3daafe3b4186f6b6457e09190a35050565b600061093e8284610df4565b8280546109ec90610e0b565b90600052602060002090601f016020900481019282610a0e5760008555610a54565b82601f10610a2757805160ff1916838001178555610a54565b82800160010185558215610a54579182015b82811115610a54578251825591602001919060010190610a39565b50610a60929150610a64565b5090565b5b80821115610a605760008155600101610a65565b80356001600160a01b03811681146106b757600080fd5b600060208284031215610aa1578081fd5b61093e82610a79565b60008060408385031215610abc578081fd5b610ac583610a79565b946020939093013593505050565b600060208284031215610ae4578081fd5b8151801515811461093e578182fd5b600060208284031215610b04578081fd5b5035919050565b60008060008060808587031215610b20578182fd5b843567ffffffffffffffff80821115610b37578384fd5b818701915087601f830112610b4a578384fd5b8135602082821115610b5e57610b5e610e77565b604051601f8301601f1916810182018481118282101715610b8157610b81610e77565b60405282815284830182018b1015610b97578687fd5b828286018383013791820181019590955295505050908401359150604084013590610bc460608601610a79565b905092959194509250565b60008060408385031215610be1578182fd5b50508035926020909101359150565b6001600160a01b03169052565b90565b6001600160a01b0391909116815260200190565b6001600160a01b039384168152919092166020820152604081019190915260600190565b6001600160a01b03929092168252602082015260400190565b901515815260200190565b90815260200190565b6000608082528551806080840152815b81811015610c9257602081890181015160a0868401015201610c75565b81811115610ca3578260a083860101525b506020830186905260408301859052601f01601f1916820160a0019050610ccd6060830184610bf0565b95945050505050565b60208082526026908201527f4f776e61626c653a206e6577206f776e657220697320746865207a65726f206160408201526564647265737360d01b606082015260800190565b602080825260149082015273496e73756666696369656e742062616c616e636560601b604082015260600190565b602080825260149082015273151bdad95b88191bd95cc81b9bdd08195e1a5cdd60621b604082015260600190565b60208082526015908201527424b739bab33334b1b4b2b73a103130b630b731b29760591b604082015260600190565b6020808252818101527f4f776e61626c653a2063616c6c6572206973206e6f7420746865206f776e6572604082015260600190565b60008219821115610def57610def610e61565b500190565b600082821015610e0657610e06610e61565b500390565b600281046001821680610e1f57607f821691505b60208210811415610e4057634e487b7160e01b600052602260045260246000fd5b50919050565b6000600019821415610e5a57610e5a610e61565b5060010190565b634e487b7160e01b600052601160045260246000fd5b634e487b7160e01b600052604160045260246000fdfea26469706673582212206b8940755eea0c6593725c79f3d913bcc837ea90e8357e37c9c28949536aaf8564736f6c63430008000033",
  "immutableReferences": {},
  "source": "// SPDX-License-Identifier: UNLICENSED\n\npragma solidity 0.8.0;\n\nimport \"../node_modules/@openzeppelin/contracts/token/ERC20/IERC20.sol\";\nimport \"../node_modules/@openzeppelin/contracts/utils/Context.sol\";\nimport \"../node_modules/@openzeppelin/contracts/utils/math/SafeMath.sol\";\nimport \"../node_modules/@openzeppelin/contracts/access/Ownable.sol\";\n\n/**\n* @dev This contract handles the global balances mapping of the dex, along with\n* functions that enable the user to interact with the data storage\n*/\ncontract Wallet is Context, Ownable  {\n\n    using SafeMath for uint256;\n\n    /**\n    * @dev Modifier for deposit and withdraw functions to check if the token/ETH actually\n    * exists in contract\n    */\n    modifier tokenExists(bytes32 _ticker) {\n        require(tokens[_ticker].tokenAddress != address(0), \"Token does not exist\");\n        _;\n    }\n    \n    struct Token {\n        string id;\n        bytes32 name;\n        bytes32 ticker;\n        address tokenAddress;\n    }\n\n    mapping (bytes32 => Token) public tokens;\n    bytes32[] public tokenList;\n    uint256 public tokenListCount = 0;\n\n    mapping (address => mapping (bytes32 => uint256)) public balances;\n\n    bytes32 constant ETH = bytes32(\"ETH\");\n\n    constructor() {\n        // Initialise with ETH\n        addToken(\n            \"eth-ethereum\",\n            0x457468657265756d000000000000000000000000000000000000000000000000, \n            0x4554480000000000000000000000000000000000000000000000000000000000,\n            0x0000000000000000000000000000000000000000\n        );\n    }\n\n    /**\n    * @dev Add a token into the tokens mapping\n    */\n    function addToken(string memory _id, bytes32 _name, bytes32 _ticker, address _tokenAddress) public onlyOwner() {\n        tokens[_ticker] = Token(_id, _name, _ticker, _tokenAddress);\n        tokenList.push(_ticker);\n        tokenListCount++;\n    }\n\n    /**\n    * @dev Deposit ETH into your account\n    */\n    function depositEth() public payable {\n        balances[_msgSender()][ETH] = balances[_msgSender()][ETH].add(msg.value);\n    }\n\n    function withdrawEth(uint256 _amount) public payable returns (bool) {\n        require(balances[_msgSender()][ETH] >= _amount, \"Insufficient balance\");\n        balances[_msgSender()][ETH] = balances[_msgSender()][ETH].sub(_amount);\n        (bool success,) = _msgSender().call{value: _amount}(\"\");\n        return success;\n    }\n\n    /**\n    * @dev Deposit tokens to your account\n    */\n    function deposit(uint256 _amount, bytes32 _ticker) public tokenExists(_ticker) {\n        IERC20(tokens[_ticker].tokenAddress).transferFrom(_msgSender(), address(this), _amount);\n        balances[_msgSender()][_ticker] = balances[_msgSender()][_ticker].add(_amount);\n    }\n\n    /**\n    * @dev Withdraw tokens from your account\n    */\n    function withdraw(uint256 _amount, bytes32 _ticker) public tokenExists(_ticker) {\n        require(balances[_msgSender()][_ticker] >= _amount, \"Insufficient balance.\");\n        balances[_msgSender()][_ticker] = balances[_msgSender()][_ticker].sub(_amount);\n        IERC20(tokens[_ticker].tokenAddress).transfer(_msgSender(), _amount);\n    }\n\n}",
  "sourcePath": "/Users/shaunlindsley/Desktop/coding/moralis-academy-courses/dex/contracts/Wallet.sol",
  "compiler": {
    "name": "solc",
    "version": "0.8.0+commit.c7dfd78e.Emscripten.clang"
  },
  "schemaVersion": "3.4.14",
  "updatedAt": "2023-08-01T19:38:13.185Z",
  "devdoc": {
    "details": "This contract handles the global balances mapping of the dex, along with functions that enable the user to interact with the data storage",
    "kind": "dev",
    "methods": {
      "addToken(string,bytes32,bytes32,address)": {
        "details": "Add a token into the tokens mapping"
      },
      "deposit(uint256,bytes32)": {
        "details": "Deposit tokens to your account"
      },
      "depositEth()": {
        "details": "Deposit ETH into your account"
      },
      "owner()": {
        "details": "Returns the address of the current owner."
      },
      "renounceOwnership()": {
        "details": "Leaves the contract without owner. It will not be possible to call `onlyOwner` functions. Can only be called by the current owner. NOTE: Renouncing ownership will leave the contract without an owner, thereby disabling any functionality that is only available to the owner."
      },
      "transferOwnership(address)": {
        "details": "Transfers ownership of the contract to a new account (`newOwner`). Can only be called by the current owner."
      },
      "withdraw(uint256,bytes32)": {
        "details": "Withdraw tokens from your account"
      }
    },
    "version": 1
  },
  "userdoc": {
    "kind": "user",
    "methods": {},
    "version": 1
  }
}